{"abi":[{"type":"constructor","inputs":[{"name":"_pausers","type":"address[]","internalType":"address[]"},{"name":"_unpauser","type":"address","internalType":"address"}],"stateMutability":"nonpayable"},{"type":"function","name":"isPauser","inputs":[{"name":"","type":"address","internalType":"address"}],"outputs":[{"name":"","type":"bool","internalType":"bool"}],"stateMutability":"view"},{"type":"function","name":"setIsPauser","inputs":[{"name":"newPauser","type":"address","internalType":"address"},{"name":"canPause","type":"bool","internalType":"bool"}],"outputs":[],"stateMutability":"nonpayable"},{"type":"function","name":"setUnpauser","inputs":[{"name":"newUnpauser","type":"address","internalType":"address"}],"outputs":[],"stateMutability":"nonpayable"},{"type":"function","name":"unpauser","inputs":[],"outputs":[{"name":"","type":"address","internalType":"address"}],"stateMutability":"view"},{"type":"event","name":"PauserStatusChanged","inputs":[{"name":"pauser","type":"address","indexed":false,"internalType":"address"},{"name":"canPause","type":"bool","indexed":false,"internalType":"bool"}],"anonymous":false},{"type":"event","name":"UnpauserChanged","inputs":[{"name":"previousUnpauser","type":"address","indexed":false,"internalType":"address"},{"name":"newUnpauser","type":"address","indexed":false,"internalType":"address"}],"anonymous":false}],"bytecode":{"object":"0x60406080815234610239576105a68038038061001a81610251565b92833981019082818303126102395780516001600160401b0391908281116102395781019083601f8301121561023957815193602093851161023d576005928560051b90858061006b818501610251565b80998152019282010192831161023957908580939201905b82821061021e575050506100979101610276565b925f5b815181101561015f5780831b82018401516001600160a01b0316801561010557907f65d3a1fd4c13f05cba164f80d03ce90fb4b5e21946bfc3ab7dbd434c2d0b915287836001945f525f8852815f2085908160ff19825416179055825191825288820152a10161009a565b865162461bcd60e51b815260048101869052602d60248201527f50617573657252656769737472792e5f7365745061757365723a207a65726f2060448201526c1859191c995cdcc81a5b9c1d5d609a1b6064820152608490fd5b5050506001600160a01b039182169182156101c257837f06b4167a2528887a1e97a366eefe8549bfbf1ea3e6ac81cb2564a934d20e889291846001549483519286168352820152a16001600160a01b031916176001555161031b908161028b8239f35b835162461bcd60e51b815260048101839052602f60248201527f50617573657252656769737472792e5f736574556e7061757365723a207a657260448201526e1bc81859191c995cdcc81a5b9c1d5d608a1b6064820152608490fd5b9281929361022c8293610276565b8152019101859291610083565b5f80fd5b634e487b7160e01b5f52604160045260245ffd5b6040519190601f01601f191682016001600160401b0381118382101761023d57604052565b51906001600160a01b03821682036102395756fe60806040908082526004361015610014575f80fd5b5f3560e01c90816346fbf68e1461023757508063856852061461014e578063ce548428146100755763eab66d7a1461004a575f80fd5b34610071575f3660031901126100715760015490516001600160a01b039091168152602090f35b5f80fd5b50346100715760203660031901126100715761008f610270565b6001546001600160a01b038082169391926100ab338614610286565b169283156100f257907f06b4167a2528887a1e97a366eefe8549bfbf1ea3e6ac81cb2564a934d20e8892918151908152846020820152a16001600160a01b03191617600155005b815162461bcd60e51b815260206004820152602f60248201527f50617573657252656769737472792e5f736574556e7061757365723a207a657260448201526e1bc81859191c995cdcc81a5b9c1d5d608a1b6064820152608490fd5b5034610071578060031936011261007157610167610270565b9060243591821515809303610071576001546001600160a01b0391906101909083163314610286565b1680156101dd577f65d3a1fd4c13f05cba164f80d03ce90fb4b5e21946bfc3ab7dbd434c2d0b915292815f525f602052825f2060ff1981541660ff831617905582519182526020820152a1005b815162461bcd60e51b815260206004820152602d60248201527f50617573657252656769737472792e5f7365745061757365723a207a65726f2060448201526c1859191c995cdcc81a5b9c1d5d609a1b6064820152608490fd5b9050346100715760203660031901126100715760209160ff906001600160a01b03610260610270565b165f525f84525f20541615158152f35b600435906001600160a01b038216820361007157565b1561028d57565b60405162461bcd60e51b815260206004820152602a60248201527f6d73672e73656e646572206973206e6f74207065726d697373696f6e6564206160448201526939903ab73830bab9b2b960b11b6064820152608490fdfea2646970667358221220886aeae26c5f7e6ccf1dee445ad2888cbf51c137296fc1237259eb832c43d32664736f6c63430008180033","linkReferences":{}},"methodIdentifiers":{"isPauser(address)":"46fbf68e","setIsPauser(address,bool)":"85685206","setUnpauser(address)":"ce548428","unpauser()":"eab66d7a"},"id":34}