{"abi":[{"type":"constructor","inputs":[],"stateMutability":"nonpayable"},{"type":"receive","stateMutability":"payable"},{"type":"function","name":"cpChainDepositManager","inputs":[],"outputs":[{"name":"","type":"address","internalType":"contract ICpChainDepositManager"}],"stateMutability":"view"},{"type":"function","name":"delegationManager","inputs":[],"outputs":[{"name":"","type":"address","internalType":"contract IDelegationManager"}],"stateMutability":"view"},{"type":"function","name":"getStakeHolderAmount","inputs":[{"name":"chainBase","type":"address","internalType":"address"}],"outputs":[{"name":"","type":"uint256","internalType":"uint256"}],"stateMutability":"view"},{"type":"function","name":"initialize","inputs":[{"name":"initialOwner","type":"address","internalType":"address"},{"name":"_rewardManager","type":"address","internalType":"address"},{"name":"_payFeeManager","type":"address","internalType":"address"},{"name":"_stakePercent","type":"uint256","internalType":"uint256"},{"name":"_pauserRegistry","type":"address","internalType":"contract IPauserRegistry"},{"name":"_delegationManager","type":"address","internalType":"contract IDelegationManager"},{"name":"_cpChainDepositManager","type":"address","internalType":"contract ICpChainDepositManager"}],"outputs":[],"stateMutability":"nonpayable"},{"type":"function","name":"operatorClaimReward","inputs":[],"outputs":[{"name":"","type":"bool","internalType":"bool"}],"stateMutability":"nonpayable"},{"type":"function","name":"operatorRewards","inputs":[{"name":"","type":"address","internalType":"address"}],"outputs":[{"name":"","type":"uint256","internalType":"uint256"}],"stateMutability":"view"},{"type":"function","name":"owner","inputs":[],"outputs":[{"name":"","type":"address","internalType":"address"}],"stateMutability":"view"},{"type":"function","name":"pause","inputs":[{"name":"newPausedStatus","type":"uint256","internalType":"uint256"}],"outputs":[],"stateMutability":"nonpayable"},{"type":"function","name":"pauseAll","inputs":[],"outputs":[],"stateMutability":"nonpayable"},{"type":"function","name":"paused","inputs":[{"name":"index","type":"uint8","internalType":"uint8"}],"outputs":[{"name":"","type":"bool","internalType":"bool"}],"stateMutability":"view"},{"type":"function","name":"paused","inputs":[],"outputs":[{"name":"","type":"uint256","internalType":"uint256"}],"stateMutability":"view"},{"type":"function","name":"pauserRegistry","inputs":[],"outputs":[{"name":"","type":"address","internalType":"contract IPauserRegistry"}],"stateMutability":"view"},{"type":"function","name":"payFee","inputs":[{"name":"chainBase","type":"address","internalType":"address"},{"name":"operator","type":"address","internalType":"address"},{"name":"baseFee","type":"uint256","internalType":"uint256"}],"outputs":[],"stateMutability":"nonpayable"},{"type":"function","name":"payFeeManager","inputs":[],"outputs":[{"name":"","type":"address","internalType":"address"}],"stateMutability":"view"},{"type":"function","name":"renounceOwnership","inputs":[],"outputs":[],"stateMutability":"nonpayable"},{"type":"function","name":"rewardManager","inputs":[],"outputs":[{"name":"","type":"address","internalType":"address"}],"stateMutability":"view"},{"type":"function","name":"setPauserRegistry","inputs":[{"name":"newPauserRegistry","type":"address","internalType":"contract IPauserRegistry"}],"outputs":[],"stateMutability":"nonpayable"},{"type":"function","name":"stakeHolderClaimReward","inputs":[{"name":"chainBase","type":"address","internalType":"address"}],"outputs":[{"name":"","type":"bool","internalType":"bool"}],"stateMutability":"nonpayable"},{"type":"function","name":"stakePercent","inputs":[],"outputs":[{"name":"","type":"uint256","internalType":"uint256"}],"stateMutability":"view"},{"type":"function","name":"transferOwnership","inputs":[{"name":"newOwner","type":"address","internalType":"address"}],"outputs":[],"stateMutability":"nonpayable"},{"type":"function","name":"unpause","inputs":[{"name":"newPausedStatus","type":"uint256","internalType":"uint256"}],"outputs":[],"stateMutability":"nonpayable"},{"type":"function","name":"updateStakePercent","inputs":[{"name":"_stakePercent","type":"uint256","internalType":"uint256"}],"outputs":[],"stateMutability":"nonpayable"},{"type":"event","name":"Initialized","inputs":[{"name":"version","type":"uint64","indexed":false,"internalType":"uint64"}],"anonymous":false},{"type":"event","name":"OperatorAndStakeReward","inputs":[{"name":"chainBase","type":"address","indexed":false,"internalType":"address"},{"name":"operator","type":"address","indexed":false,"internalType":"address"},{"name":"stakerFee","type":"uint256","indexed":false,"internalType":"uint256"},{"name":"operatorFee","type":"uint256","indexed":false,"internalType":"uint256"}],"anonymous":false},{"type":"event","name":"OperatorClaimReward","inputs":[{"name":"operator","type":"address","indexed":false,"internalType":"address"},{"name":"amount","type":"uint256","indexed":false,"internalType":"uint256"}],"anonymous":false},{"type":"event","name":"OwnershipTransferred","inputs":[{"name":"previousOwner","type":"address","indexed":true,"internalType":"address"},{"name":"newOwner","type":"address","indexed":true,"internalType":"address"}],"anonymous":false},{"type":"event","name":"Paused","inputs":[{"name":"account","type":"address","indexed":true,"internalType":"address"},{"name":"newPausedStatus","type":"uint256","indexed":false,"internalType":"uint256"}],"anonymous":false},{"type":"event","name":"PauserRegistrySet","inputs":[{"name":"pauserRegistry","type":"address","indexed":false,"internalType":"contract IPauserRegistry"},{"name":"newPauserRegistry","type":"address","indexed":false,"internalType":"contract IPauserRegistry"}],"anonymous":false},{"type":"event","name":"StakeHolderClaimReward","inputs":[{"name":"stakeHolder","type":"address","indexed":false,"internalType":"address"},{"name":"chainBase","type":"address","indexed":false,"internalType":"address"},{"name":"amount","type":"uint256","indexed":false,"internalType":"uint256"}],"anonymous":false},{"type":"event","name":"Unpaused","inputs":[{"name":"account","type":"address","indexed":true,"internalType":"address"},{"name":"newPausedStatus","type":"uint256","indexed":false,"internalType":"uint256"}],"anonymous":false},{"type":"error","name":"InvalidInitialization","inputs":[]},{"type":"error","name":"NotInitializing","inputs":[]},{"type":"error","name":"OwnableInvalidOwner","inputs":[{"name":"owner","type":"address","internalType":"address"}]},{"type":"error","name":"OwnableUnauthorizedAccount","inputs":[{"name":"account","type":"address","internalType":"address"}]},{"type":"error","name":"ReentrancyGuardReentrantCall","inputs":[]}],"bytecode":{"object":"0x608080604052346100b8577ff0c57e16840df040f15088dc2f81fe391c3923bec73e23a9662efc9c229c6a009081549060ff8260401c166100a957506001600160401b036002600160401b031982821601610064575b6040516114b690816100bd8239f35b6001600160401b031990911681179091556040519081527fc7f505b2f371ae2175ee4913f4499e1f2633a7b5936321eed1cdaeb6115181d290602090a15f8080610055565b63f92ee8a960e01b8152600490fd5b5f80fdfe608060409080825260049081361015610022575b5050503615610020575f80fd5b005b5f3560e01c90816258091d14610f8f57508063057e3f2414610f675780630adfcd8114610b325780630f4ef8a614610b0a57806310d67a2f14610a80578063136439dd146109675780632cb082721461086357806334a6cdc5146108455780633ea8c24c1461081d57806341a2b8d6146107e6578063595c6a67146107265780635ac86ab7146106f45780635c975abb146106d6578063715018a61461066f57806386d48fb5146105da578063886f1195146105b25780638da5cb5b1461057e578063a46457df1461053f578063e344b1d6146102cb578063ea4d3c9b146102a4578063f2fde38b146102535763fabc1cbc1461011f5780610013565b3461024f5760208060031936011261024f57606b54835163755b36bd60e11b8152833593916001600160a01b0390849083908590829085165afa801561024557610173925f91610218575b5016331461122c565b606c541983198116036101b1575081927f3582d1828e26bf56bd801502bc021ac0bc8afb57c826e4986b45593c8fad389c92606c55519283523392a2005b60849184519162461bcd60e51b8352820152603860248201527f5061757361626c652e756e70617573653a20696e76616c696420617474656d7060448201527f7420746f2070617573652066756e6374696f6e616c69747900000000000000006064820152fd5b6102389150853d871161023e575b6102308183611146565b81019061120d565b5f61016a565b503d610226565b86513d5f823e3d90fd5b5f80fd5b503461024f57602036600319011261024f5761026d61109c565b916102766113d4565b6001600160a01b0383161561028e576100208361140c565b905f6024925191631e4fbdf760e01b8352820152fd5b823461024f575f36600319011261024f575f5490516001600160a01b039091168152602090f35b503461024f5760e036600319011261024f576102e561109c565b906102ee6110b2565b906001600160a01b0390604435828116919082900361024f576084358381169182820361024f5760a4359285841680940361024f5760c4359580871680970361024f577ff0c57e16840df040f15088dc2f81fe391c3923bec73e23a9662efc9c229c6a009889549860ff8a8d1c16159967ffffffffffffffff811680159081610537575b600114908161052d575b159081610524575b506105145767ffffffffffffffff1981166001178c556103d5929184918c6104f5575b506bffffffffffffffffffffffff60a01b998a8854161787551688600354161760035560643560025561140c565b606b54161590816104eb575b50156104725750610420905f606c5587515f81527fab40a374bc51de372200a8bc981af8c9ecdc08dfdaef0bb6e09f88f3c616ef3d60203392a2611300565b815f5416175f55600154161760015561043557005b805468ff00000000000000001916905551600181527fc7f505b2f371ae2175ee4913f4499e1f2633a7b5936321eed1cdaeb6115181d290602090a1005b60a490602089519162461bcd60e51b8352820152604760248201527f5061757361626c652e5f696e697469616c697a655061757365723a205f696e6960448201527f7469616c697a6550617573657228292063616e206f6e6c792062652063616c6c6064820152666564206f6e636560c81b6084820152fd5b905015155f6103e1565b68ffffffffffffffffff191668010000000000000001178d555f6103a7565b8c5163f92ee8a960e01b81528690fd5b9050155f610384565b303b15915061037c565b8c9150610372565b823461024f57602036600319011261024f576020906001600160a01b0361056461109c565b165f5260068252805f20335f528252805f20549051908152f35b823461024f575f36600319011261024f575f805160206114618339815191525490516001600160a01b039091168152602090f35b823461024f575f36600319011261024f57606b5490516001600160a01b039091168152602090f35b50903461024f57602036600319011261024f576003546001600160a01b03163303610606575035600255005b906020608492519162461bcd60e51b8352820152603860248201527f5265776172644d616e616765722e6f6e6c7920726577617264206d616e61676560448201527f722063616e2063616c6c20746869732066756e6374696f6e00000000000000006064820152fd5b3461024f575f36600319011261024f576106876113d4565b5f8051602061146183398151915280546001600160a01b031981169091555f906001600160a01b03167f8be0079c531659141344cd1fd0a4f28419497f9722a3daafe3b4186f6b6457e08280a3005b823461024f575f36600319011261024f57602090606c549051908152f35b503461024f57602036600319011261024f57359060ff821680920361024f5760016020921b80606c5416149051908152f35b503461024f575f36600319011261024f57606b54825163237dfb4760e11b81523392810192909252602090829060249082906001600160a01b03165afa80156107dc5761077a915f916107ad575b506112a3565b5f199081606c55519081527fab40a374bc51de372200a8bc981af8c9ecdc08dfdaef0bb6e09f88f3c616ef3d60203392a2005b6107cf915060203d6020116107d5575b6107c78183611146565b81019061128b565b5f610774565b503d6107bd565b82513d5f823e3d90fd5b823461024f57602036600319011261024f576020906001600160a01b0361080b61109c565b165f5260058252805f20549051908152f35b823461024f575f36600319011261024f5760015490516001600160a01b039091168152602090f35b823461024f575f36600319011261024f576020906002549051908152f35b503461024f575f36600319011261024f57335f526005602052815f20549081156108e9576020835f8080808761089b814710156110c8565b3382526005875281868120557ff358f13bbeaf315167e16e69fa1b06ca23f46b7fcc119b65b735a427539b332b868051338152838a820152a1335af1906108e061117c565b50519015158152f35b60a490602084519162461bcd60e51b8352820152604c60248201527f5265776172644d616e61676572206f70657261746f72436c61696d526577617260448201527f643a206f70657261746f7220636c61696d20616d6f756e74206e656564206d6f60648201526b7265207468656e207a65726f60a01b6084820152fd5b503461024f5760208060031936011261024f57606b54835163237dfb4760e11b81523381850152833593918390829060249082906001600160a01b03165afa8015610a76576109bc915f91610a5f57506112a3565b606c54838116036109f8575081927fab40a374bc51de372200a8bc981af8c9ecdc08dfdaef0bb6e09f88f3c616ef3d92606c55519283523392a2005b60849184519162461bcd60e51b8352820152603860248201527f5061757361626c652e70617573653a20696e76616c696420617474656d70742060448201527f746f20756e70617573652066756e6374696f6e616c69747900000000000000006064820152fd5b6107cf9150843d86116107d5576107c78183611146565b85513d5f823e3d90fd5b50903461024f57602036600319011261024f57610a9b61109c565b606b54825163755b36bd60e11b81526001600160a01b039492939290916020918391829088165afa918215610b01575092610ae391610020945f91610ae8575016331461122c565b611300565b610238915060203d60201161023e576102308183611146565b513d5f823e3d90fd5b823461024f575f36600319011261024f5760035490516001600160a01b039091168152602090f35b503461024f57606036600319011261024f57610b4c61109c565b610b546110b2565b825490936001600160a01b0392909183163303610efe57821693815193633a98ef3960e01b8552602090818682818a5afa958615610ef4575f96610ec5575b508490815f5416938386518094819363371e21e960e01b83521696878583015260249586915afa908115610245575f91610e98575b5087151580610e8f575b15610e1c5787610be7610bec926044356111bb565b6111e2565b96816064610bfc6002548b6111bb565b0497858b89519384809263d3301da560e01b82525afa918215610e12575f92610de3575b505f5b828110610c9c5750505050858703968711610c8b577f80531474d393ce4cf1f6eff52666de82a1d793bd3644571afcd02e839460cdc86080898989898989815f5260058152825f20610c76868254611200565b905582519586528501528301526060820152a1005b601190634e487b7160e01b5f52525ffd5b8851908c888389816328bc078d60e01b94858252868c8301525afa928315610d9157898f91928d935f96610dc4575b508a87600154169451809481938252878d8301525afa908115610dba57898b928e88935f92610d9b575b505194859384926394f649dd60e01b8452168c8301525afa908115610d91578c8f9288925f91610d59575b5091610be7610d3292600197946111bb565b915f5260068a52848c5f2091165f528952610d518b5f20918254611200565b905501610c23565b93505050508881813d8311610d8a575b610d738183611146565b8101031261024f57518d9086908d90610be7610d20565b503d610d69565b8b513d5f823e3d90fd5b610db3919250853d871161023e576102308183611146565b905f610cf5565b8c513d5f823e3d90fd5b610ddc919650823d841161023e576102308183611146565b945f610ccb565b9091508581813d8311610e0b575b610dfb8183611146565b8101031261024f5751905f610c20565b503d610df1565b88513d5f823e3d90fd5b50604360a4928487519362461bcd60e51b85528401528201527f5265776172644d616e61676572207061794665653a206f6e65206f6620746f7460448201527f616c53686172657320616e64206f70657261746f72536861726573206973207a60648201526265726f60e81b6084820152fd5b50801515610bd2565b90508381813d8311610ebe575b610eaf8183611146565b8101031261024f57515f610bc8565b503d610ea5565b9095508181813d8311610eed575b610edd8183611146565b8101031261024f57519484610b93565b503d610ed3565b84513d5f823e3d90fd5b815162461bcd60e51b8152602081860152603960248201527f5265776172644d616e616765722e6f6e6c792070617920666565206d616e616760448201527f65722063616e2063616c6c20746869732066756e6374696f6e000000000000006064820152608490fd5b50903461024f575f36600319011261024f57905490516001600160a01b039091168152602090f35b83833461024f576020928360031936011261024f576001600160a01b03610fb461109c565b1690815f5260068552835f20335f528552835f20549283156110235785855f808080897f225586d654a262de7f45c07692f8b60b054903c50fa0268ef5ce14d20a0e545760608b611007844710156110c8565b8851903382528a8201528389820152a1335af1906108e061117c565b62461bcd60e51b82528101859052604a60248201527f5265776172644d616e61676572206f70657261746f72436c61696d526577617260448201527f643a207374616b6520686f6c64657220616d6f756e74206e656564206d6f7265606482015269207468656e207a65726f60b01b608482015260a490fd5b600435906001600160a01b038216820361024f57565b602435906001600160a01b038216820361024f57565b156110cf57565b60a460405162461bcd60e51b815260206004820152604460248201527f5265776172644d616e61676572206f70657261746f72436c61696d526577617260448201527f643a2052657761726420546f6b656e2062616c616e636520696e7375666669636064820152631a595b9d60e21b6084820152fd5b90601f8019910116810190811067ffffffffffffffff82111761116857604052565b634e487b7160e01b5f52604160045260245ffd5b3d156111b6573d9067ffffffffffffffff821161116857604051916111ab601f8201601f191660200184611146565b82523d5f602084013e565b606090565b818102929181159184041417156111ce57565b634e487b7160e01b5f52601160045260245ffd5b81156111ec570490565b634e487b7160e01b5f52601260045260245ffd5b919082018092116111ce57565b9081602091031261024f57516001600160a01b038116810361024f5790565b1561123357565b60405162461bcd60e51b815260206004820152602a60248201527f6d73672e73656e646572206973206e6f74207065726d697373696f6e6564206160448201526939903ab73830bab9b2b960b11b6064820152608490fd5b9081602091031261024f5751801515810361024f5790565b156112aa57565b60405162461bcd60e51b815260206004820152602860248201527f6d73672e73656e646572206973206e6f74207065726d697373696f6e6564206160448201526739903830bab9b2b960c11b6064820152608490fd5b6001600160a01b03908116908115611357577f6e9fcd539896fca60e8b0f01dd580233e48a6b0f7df013b89ba7f565869acdb66040606b549281519084168152846020820152a16001600160a01b03191617606b55565b60405162461bcd60e51b815260206004820152604960248201527f5061757361626c652e5f73657450617573657252656769737472793a206e657760448201527f50617573657252656769737472792063616e6e6f7420626520746865207a65726064820152686f206164647265737360b81b608482015260a490fd5b5f80516020611461833981519152546001600160a01b031633036113f457565b60405163118cdaa760e01b8152336004820152602490fd5b5f8051602061146183398151915280546001600160a01b039283166001600160a01b0319821681179092559091167f8be0079c531659141344cd1fd0a4f28419497f9722a3daafe3b4186f6b6457e05f80a356fe9016d09d72d40fdae2fd8ceac6b6234c7706214fd39c1cd1e609a0528c199300a26469706673582212200fd323787d3e69abe384b8498d28f90145ba4e254d3560cfe0a0893186ddc41964736f6c63430008180033","linkReferences":{}},"methodIdentifiers":{"cpChainDepositManager()":"3ea8c24c","delegationManager()":"ea4d3c9b","getStakeHolderAmount(address)":"a46457df","initialize(address,address,address,uint256,address,address,address)":"e344b1d6","operatorClaimReward()":"2cb08272","operatorRewards(address)":"41a2b8d6","owner()":"8da5cb5b","pause(uint256)":"136439dd","pauseAll()":"595c6a67","paused()":"5c975abb","paused(uint8)":"5ac86ab7","pauserRegistry()":"886f1195","payFee(address,address,uint256)":"0adfcd81","payFeeManager()":"057e3f24","renounceOwnership()":"715018a6","rewardManager()":"0f4ef8a6","setPauserRegistry(address)":"10d67a2f","stakeHolderClaimReward(address)":"0058091d","stakePercent()":"34a6cdc5","transferOwnership(address)":"f2fde38b","unpause(uint256)":"fabc1cbc","updateStakePercent(uint256)":"86d48fb5"},"id":52}