{"abi":[{"type":"constructor","inputs":[{"name":"_delegationManager","type":"address","internalType":"contract IDelegationManager"},{"name":"_cpChainDepositManager","type":"address","internalType":"contract ICpChainDepositManager"}],"stateMutability":"nonpayable"},{"type":"receive","stateMutability":"payable"},{"type":"function","name":"chainBaseStakeRewards","inputs":[{"name":"","type":"address","internalType":"address"}],"outputs":[{"name":"","type":"uint256","internalType":"uint256"}],"stateMutability":"view"},{"type":"function","name":"cpChainDepositManager","inputs":[],"outputs":[{"name":"","type":"address","internalType":"contract ICpChainDepositManager"}],"stateMutability":"view"},{"type":"function","name":"delegationManager","inputs":[],"outputs":[{"name":"","type":"address","internalType":"contract IDelegationManager"}],"stateMutability":"view"},{"type":"function","name":"getStakeHolderAmount","inputs":[{"name":"chainBase","type":"address","internalType":"address"}],"outputs":[{"name":"","type":"uint256","internalType":"uint256"}],"stateMutability":"view"},{"type":"function","name":"initialize","inputs":[{"name":"initialOwner","type":"address","internalType":"address"},{"name":"_rewardManager","type":"address","internalType":"address"},{"name":"_payFeeManager","type":"address","internalType":"address"},{"name":"_stakePercent","type":"uint256","internalType":"uint256"},{"name":"_pauserRegistry","type":"address","internalType":"contract IPauserRegistry"}],"outputs":[],"stateMutability":"nonpayable"},{"type":"function","name":"operatorClaimReward","inputs":[],"outputs":[{"name":"","type":"bool","internalType":"bool"}],"stateMutability":"nonpayable"},{"type":"function","name":"operatorRewards","inputs":[{"name":"","type":"address","internalType":"address"}],"outputs":[{"name":"","type":"uint256","internalType":"uint256"}],"stateMutability":"view"},{"type":"function","name":"owner","inputs":[],"outputs":[{"name":"","type":"address","internalType":"address"}],"stateMutability":"view"},{"type":"function","name":"pause","inputs":[{"name":"newPausedStatus","type":"uint256","internalType":"uint256"}],"outputs":[],"stateMutability":"nonpayable"},{"type":"function","name":"pauseAll","inputs":[],"outputs":[],"stateMutability":"nonpayable"},{"type":"function","name":"paused","inputs":[{"name":"index","type":"uint8","internalType":"uint8"}],"outputs":[{"name":"","type":"bool","internalType":"bool"}],"stateMutability":"view"},{"type":"function","name":"paused","inputs":[],"outputs":[{"name":"","type":"uint256","internalType":"uint256"}],"stateMutability":"view"},{"type":"function","name":"pauserRegistry","inputs":[],"outputs":[{"name":"","type":"address","internalType":"contract IPauserRegistry"}],"stateMutability":"view"},{"type":"function","name":"payFee","inputs":[{"name":"chainBase","type":"address","internalType":"address"},{"name":"operator","type":"address","internalType":"address"},{"name":"baseFee","type":"uint256","internalType":"uint256"}],"outputs":[],"stateMutability":"nonpayable"},{"type":"function","name":"payFeeManager","inputs":[],"outputs":[{"name":"","type":"address","internalType":"address"}],"stateMutability":"view"},{"type":"function","name":"renounceOwnership","inputs":[],"outputs":[],"stateMutability":"nonpayable"},{"type":"function","name":"rewardManager","inputs":[],"outputs":[{"name":"","type":"address","internalType":"address"}],"stateMutability":"view"},{"type":"function","name":"setPauserRegistry","inputs":[{"name":"newPauserRegistry","type":"address","internalType":"contract IPauserRegistry"}],"outputs":[],"stateMutability":"nonpayable"},{"type":"function","name":"stakeHolderClaimReward","inputs":[{"name":"chainBase","type":"address","internalType":"address"}],"outputs":[{"name":"","type":"bool","internalType":"bool"}],"stateMutability":"nonpayable"},{"type":"function","name":"stakePercent","inputs":[],"outputs":[{"name":"","type":"uint256","internalType":"uint256"}],"stateMutability":"view"},{"type":"function","name":"transferOwnership","inputs":[{"name":"newOwner","type":"address","internalType":"address"}],"outputs":[],"stateMutability":"nonpayable"},{"type":"function","name":"unpause","inputs":[{"name":"newPausedStatus","type":"uint256","internalType":"uint256"}],"outputs":[],"stateMutability":"nonpayable"},{"type":"function","name":"updateStakePercent","inputs":[{"name":"_stakePercent","type":"uint256","internalType":"uint256"}],"outputs":[],"stateMutability":"nonpayable"},{"type":"event","name":"Initialized","inputs":[{"name":"version","type":"uint64","indexed":false,"internalType":"uint64"}],"anonymous":false},{"type":"event","name":"OperatorAndStakeReward","inputs":[{"name":"chainBase","type":"address","indexed":false,"internalType":"address"},{"name":"operator","type":"address","indexed":false,"internalType":"address"},{"name":"stakerFee","type":"uint256","indexed":false,"internalType":"uint256"},{"name":"operatorFee","type":"uint256","indexed":false,"internalType":"uint256"}],"anonymous":false},{"type":"event","name":"OperatorClaimReward","inputs":[{"name":"operator","type":"address","indexed":false,"internalType":"address"},{"name":"amount","type":"uint256","indexed":false,"internalType":"uint256"}],"anonymous":false},{"type":"event","name":"OwnershipTransferred","inputs":[{"name":"previousOwner","type":"address","indexed":true,"internalType":"address"},{"name":"newOwner","type":"address","indexed":true,"internalType":"address"}],"anonymous":false},{"type":"event","name":"Paused","inputs":[{"name":"account","type":"address","indexed":true,"internalType":"address"},{"name":"newPausedStatus","type":"uint256","indexed":false,"internalType":"uint256"}],"anonymous":false},{"type":"event","name":"PauserRegistrySet","inputs":[{"name":"pauserRegistry","type":"address","indexed":false,"internalType":"contract IPauserRegistry"},{"name":"newPauserRegistry","type":"address","indexed":false,"internalType":"contract IPauserRegistry"}],"anonymous":false},{"type":"event","name":"StakeHolderClaimReward","inputs":[{"name":"stakeHolder","type":"address","indexed":false,"internalType":"address"},{"name":"chainBase","type":"address","indexed":false,"internalType":"address"},{"name":"amount","type":"uint256","indexed":false,"internalType":"uint256"}],"anonymous":false},{"type":"event","name":"Unpaused","inputs":[{"name":"account","type":"address","indexed":true,"internalType":"address"},{"name":"newPausedStatus","type":"uint256","indexed":false,"internalType":"uint256"}],"anonymous":false},{"type":"error","name":"InvalidInitialization","inputs":[]},{"type":"error","name":"NotInitializing","inputs":[]},{"type":"error","name":"OwnableInvalidOwner","inputs":[{"name":"owner","type":"address","internalType":"address"}]},{"type":"error","name":"OwnableUnauthorizedAccount","inputs":[{"name":"account","type":"address","internalType":"address"}]},{"type":"error","name":"ReentrancyGuardReentrantCall","inputs":[]}],"bytecode":{"object":"0x60c034610125576115ad906001600160401b0390601f38849003908101601f19168201908382118383101761012957808391604096879485528339810103126101255780516001600160a01b03918282168203610125576020015191821682036101255760805260a0527ff0c57e16840df040f15088dc2f81fe391c3923bec73e23a9662efc9c229c6a009081549060ff82851c166101145780808316036100d0575b835161146f908161013e82396080518181816102b70152610bde015260a05181818161080d01526111c00152f35b6001600160401b0319909116811790915581519081527fc7f505b2f371ae2175ee4913f4499e1f2633a7b5936321eed1cdaeb6115181d290602090a15f80806100a2565b835163f92ee8a960e01b8152600490fd5b5f80fd5b634e487b7160e01b5f52604160045260245ffdfe60406080815260048036101561001e575b5050361561001c575f80fd5b005b5f3560e01c806258091d14610e15578063057e3f2414610ded5780630adfcd8114610b5c5780630f4ef8a614610b3457806310d67a2f14610aaa578063136439dd146109915780631fe62e391461095a5780632cb082721461085957806334a6cdc51461083c5780633ea8c24c146107f957806341a2b8d6146107c3578063530b97a41461057a578063595c6a67146104ba5780635ac86ab7146104885780635c975abb1461046a578063715018a61461040357806386d48fb51461036f578063886f1195146103475780638da5cb5b14610313578063a46457df146102e6578063ea4d3c9b146102a3578063f2fde38b146102525763fabc1cbc03610010573461024e5760208060031936011261024e57606954835163755b36bd60e11b8152833593916001600160a01b0390849083908590829085165afa801561024457610172925f91610217575b501633146110c2565b606a541983198116036101b0575081927f3582d1828e26bf56bd801502bc021ac0bc8afb57c826e4986b45593c8fad389c92606a55519283523392a2005b60849184519162461bcd60e51b8352820152603860248201527f5061757361626c652e756e70617573653a20696e76616c696420617474656d7060448201527f7420746f2070617573652066756e6374696f6e616c69747900000000000000006064820152fd5b6102379150853d871161023d575b61022f8183610ffd565b8101906110a3565b5f610169565b503d610225565b86513d5f823e3d90fd5b5f80fd5b503461024e57602036600319011261024e5761026c610f32565b916102756113e1565b6001600160a01b0383161561028d5761001c8361138d565b905f6024925191631e4fbdf760e01b8352820152fd5b823461024e575f36600319011261024e57517f00000000000000000000000000000000000000000000000000000000000000006001600160a01b03168152602090f35b823461024e57602036600319011261024e5760209061030c610306610f32565b33611196565b9051908152f35b823461024e575f36600319011261024e575f8051602061141a8339815191525490516001600160a01b039091168152602090f35b823461024e575f36600319011261024e5760695490516001600160a01b039091168152602090f35b50903461024e57602036600319011261024e576001546001600160a01b0316330361039a5750355f55005b906020608492519162461bcd60e51b8352820152603860248201527f5265776172644d616e616765722e6f6e6c7920726577617264206d616e61676560448201527f722063616e2063616c6c20746869732066756e6374696f6e00000000000000006064820152fd5b3461024e575f36600319011261024e5761041b6113e1565b5f8051602061141a83398151915280546001600160a01b031981169091555f906001600160a01b03167f8be0079c531659141344cd1fd0a4f28419497f9722a3daafe3b4186f6b6457e08280a3005b823461024e575f36600319011261024e57602090606a549051908152f35b503461024e57602036600319011261024e57359060ff821680920361024e5760016020921b80606a5416149051908152f35b503461024e575f36600319011261024e57606954825163237dfb4760e11b81523392810192909252602090829060249082906001600160a01b03165afa80156105705761050e915f91610541575b50611139565b5f199081606a55519081527fab40a374bc51de372200a8bc981af8c9ecdc08dfdaef0bb6e09f88f3c616ef3d60203392a2005b610563915060203d602011610569575b61055b8183610ffd565b810190611121565b5f610508565b503d610551565b82513d5f823e3d90fd5b503461024e5760a036600319011261024e57610594610f32565b61059c610f48565b906044359260018060a01b039182851680950361024e57608435928084169182850361024e577ff0c57e16840df040f15088dc2f81fe391c3923bec73e23a9662efc9c229c6a009687549660ff888b1c16159767ffffffffffffffff8116801590816107bb575b60011490816107b1575b1590816107a8575b506107985767ffffffffffffffff1981166001178a5561066893929185918a610779575b506bffffffffffffffffffffffff60a01b92836002541617600255169060015416176001556064355f5561138d565b6069541615908161076f575b50156106f657506106b3905f606a5584515f81527fab40a374bc51de372200a8bc981af8c9ecdc08dfdaef0bb6e09f88f3c616ef3d60203392a26112b9565b6106b957005b805468ff00000000000000001916905551600181527fc7f505b2f371ae2175ee4913f4499e1f2633a7b5936321eed1cdaeb6115181d290602090a1005b60a490602086519162461bcd60e51b8352820152604760248201527f5061757361626c652e5f696e697469616c697a655061757365723a205f696e6960448201527f7469616c697a6550617573657228292063616e206f6e6c792062652063616c6c6064820152666564206f6e636560c81b6084820152fd5b905015155f610674565b68ffffffffffffffffff191668010000000000000001178b555f610639565b8a5163f92ee8a960e01b81528790fd5b9050155f610615565b303b15915061060d565b8a9150610603565b50903461024e57602036600319011261024e576020916001600160a01b036107e9610f32565b165f528252805f20549051908152f35b823461024e575f36600319011261024e57517f00000000000000000000000000000000000000000000000000000000000000006001600160a01b03168152602090f35b823461024e575f36600319011261024e576020905f549051908152f35b50903461024e575f36600319011261024e57335f5281602052805f205480156108dc575f8080836020966108908396471015610f5e565b338352875281868120557ff358f13bbeaf315167e16e69fa1b06ca23f46b7fcc119b65b735a427539b332b868051338152838a820152a1335af1906108d3611033565b50519015158152f35b815162461bcd60e51b8152602081850152604c60248201527f5265776172644d616e61676572206f70657261746f72436c61696d526577617260448201527f643a206f70657261746f7220636c61696d20616d6f756e74206e656564206d6f60648201526b7265207468656e207a65726f60a01b608482015260a490fd5b823461024e57602036600319011261024e576020906001600160a01b0361097f610f32565b165f5260038252805f20549051908152f35b503461024e5760208060031936011261024e57606954835163237dfb4760e11b81523381850152833593918390829060249082906001600160a01b03165afa8015610aa0576109e6915f91610a895750611139565b606a5483811603610a22575081927fab40a374bc51de372200a8bc981af8c9ecdc08dfdaef0bb6e09f88f3c616ef3d92606a55519283523392a2005b60849184519162461bcd60e51b8352820152603860248201527f5061757361626c652e70617573653a20696e76616c696420617474656d70742060448201527f746f20756e70617573652066756e6374696f6e616c69747900000000000000006064820152fd5b6105639150843d86116105695761055b8183610ffd565b85513d5f823e3d90fd5b50903461024e57602036600319011261024e57610ac5610f32565b606954825163755b36bd60e11b81526001600160a01b039492939290916020918391829088165afa918215610b2b575092610b0d9161001c945f91610b1257501633146110c2565b6112b9565b610237915060203d60201161023d5761022f8183610ffd565b513d5f823e3d90fd5b823461024e575f36600319011261024e5760015490516001600160a01b039091168152602090f35b503461024e57606036600319011261024e57610b76610f32565b91610b7f610f48565b6002546001600160a01b03949192919085163303610d84578416938151633a98ef3960e01b8152602093848287818a5afa918215610d4857839186915f94610d52575b50602486518094819363371e21e960e01b83521696878b8301527f0000000000000000000000000000000000000000000000000000000000000000165afa908115610d48575f91610d1b575b5081151580610d12575b15610c9d5791610c5a6080969492610c557f80531474d393ce4cf1f6eff52666de82a1d793bd3644571afcd02e839460cdc8999795604435611072565b611085565b92610c7f6064610c6b5f5487611072565b048095885f526003845281865f2055610fdc565b94825f52815284835f205582519586528501528301526060820152a1005b835162461bcd60e51b8152808701869052604360248201527f5265776172644d616e61676572207061794665653a206f6e65206f6620746f7460448201527f616c53686172657320616e64206f70657261746f72536861726573206973207a60648201526265726f60e81b608482015260a490fd5b50801515610c18565b90508481813d8311610d41575b610d328183610ffd565b8101031261024e57515f610c0e565b503d610d28565b84513d5f823e3d90fd5b9250925081813d8311610d7d575b610d6a8183610ffd565b8101031261024e5784839151925f610bc2565b503d610d60565b815162461bcd60e51b8152602081860152603960248201527f5265776172644d616e616765722e6f6e6c792070617920666565206d616e616760448201527f65722063616e2063616c6c20746869732066756e6374696f6e000000000000006064820152608490fd5b823461024e575f36600319011261024e5760025490516001600160a01b039091168152602090f35b503461024e57602036600319011261024e57610e2f610f32565b610e398133611196565b918215610eb6576020845f808080887f225586d654a262de7f45c07692f8b60b054903c50fa0268ef5ce14d20a0e545760608a610e7884471015610f5e565b6001600160a01b031680855260038a528885208054610e98908690610fdc565b90558851903382528a8201528389820152a1335af1906108d3611033565b60a490602085519162461bcd60e51b8352820152604a60248201527f5265776172644d616e61676572206f70657261746f72436c61696d526577617260448201527f643a207374616b6520686f6c64657220616d6f756e74206e656564206d6f7265606482015269207468656e207a65726f60b01b6084820152fd5b600435906001600160a01b038216820361024e57565b602435906001600160a01b038216820361024e57565b15610f6557565b60a460405162461bcd60e51b815260206004820152604460248201527f5265776172644d616e61676572206f70657261746f72436c61696d526577617260448201527f643a2052657761726420546f6b656e2062616c616e636520696e7375666669636064820152631a595b9d60e21b6084820152fd5b91908203918211610fe957565b634e487b7160e01b5f52601160045260245ffd5b90601f8019910116810190811067ffffffffffffffff82111761101f57604052565b634e487b7160e01b5f52604160045260245ffd5b3d1561106d573d9067ffffffffffffffff821161101f5760405191611062601f8201601f191660200184610ffd565b82523d5f602084013e565b606090565b81810292918115918404141715610fe957565b811561108f570490565b634e487b7160e01b5f52601260045260245ffd5b9081602091031261024e57516001600160a01b038116810361024e5790565b156110c957565b60405162461bcd60e51b815260206004820152602a60248201527f6d73672e73656e646572206973206e6f74207065726d697373696f6e6564206160448201526939903ab73830bab9b2b960b11b6064820152608490fd5b9081602091031261024e5751801515810361024e5790565b1561114057565b60405162461bcd60e51b815260206004820152602860248201527f6d73672e73656e646572206973206e6f74207065726d697373696f6e6564206160448201526739903830bab9b2b960c11b6064820152608490fd5b604051636aab395560e01b81526001600160a01b03918216600482015260209290919083836024817f000000000000000000000000000000000000000000000000000000000000000086165afa92831561127f575f9361128a575b50169160405191633a98ef3960e01b83528183600481875afa92831561127f575f93611250575b5080158015611248575b611240576003610c559261123d955f525260405f2054611072565b90565b505050505f90565b508215611222565b9092508181813d8311611278575b6112688183610ffd565b8101031261024e5751915f611218565b503d61125e565b6040513d5f823e3d90fd5b9092508381813d83116112b2575b6112a28183610ffd565b8101031261024e5751915f6111f1565b503d611298565b6001600160a01b03908116908115611310577f6e9fcd539896fca60e8b0f01dd580233e48a6b0f7df013b89ba7f565869acdb660406069549281519084168152846020820152a16001600160a01b03191617606955565b60405162461bcd60e51b815260206004820152604960248201527f5061757361626c652e5f73657450617573657252656769737472793a206e657760448201527f50617573657252656769737472792063616e6e6f7420626520746865207a65726064820152686f206164647265737360b81b608482015260a490fd5b5f8051602061141a83398151915280546001600160a01b039283166001600160a01b0319821681179092559091167f8be0079c531659141344cd1fd0a4f28419497f9722a3daafe3b4186f6b6457e05f80a3565b5f8051602061141a833981519152546001600160a01b0316330361140157565b60405163118cdaa760e01b8152336004820152602490fdfe9016d09d72d40fdae2fd8ceac6b6234c7706214fd39c1cd1e609a0528c199300a26469706673582212207658d2143edb9a641138646066cb60ddaac8dfc5f246fd2a69dc4ed327c9c1cf64736f6c63430008180033","linkReferences":{}},"methodIdentifiers":{"chainBaseStakeRewards(address)":"1fe62e39","cpChainDepositManager()":"3ea8c24c","delegationManager()":"ea4d3c9b","getStakeHolderAmount(address)":"a46457df","initialize(address,address,address,uint256,address)":"530b97a4","operatorClaimReward()":"2cb08272","operatorRewards(address)":"41a2b8d6","owner()":"8da5cb5b","pause(uint256)":"136439dd","pauseAll()":"595c6a67","paused()":"5c975abb","paused(uint8)":"5ac86ab7","pauserRegistry()":"886f1195","payFee(address,address,uint256)":"0adfcd81","payFeeManager()":"057e3f24","renounceOwnership()":"715018a6","rewardManager()":"0f4ef8a6","setPauserRegistry(address)":"10d67a2f","stakeHolderClaimReward(address)":"0058091d","stakePercent()":"34a6cdc5","transferOwnership(address)":"f2fde38b","unpause(uint256)":"fabc1cbc","updateStakePercent(uint256)":"86d48fb5"},"id":58}