{"abi":[{"type":"constructor","inputs":[{"name":"_delegationManager","type":"address","internalType":"contract IDelegationManager"},{"name":"_cpChainDepositManager","type":"address","internalType":"contract ICpChainDepositManager"}],"stateMutability":"nonpayable"},{"type":"receive","stateMutability":"payable"},{"type":"function","name":"chainBaseStakeRewards","inputs":[{"name":"","type":"address","internalType":"address"}],"outputs":[{"name":"","type":"uint256","internalType":"uint256"}],"stateMutability":"view"},{"type":"function","name":"cpChainDepositManager","inputs":[],"outputs":[{"name":"","type":"address","internalType":"contract ICpChainDepositManager"}],"stateMutability":"view"},{"type":"function","name":"delegationManager","inputs":[],"outputs":[{"name":"","type":"address","internalType":"contract IDelegationManager"}],"stateMutability":"view"},{"type":"function","name":"getStakeHolderAmount","inputs":[{"name":"chainBase","type":"address","internalType":"address"}],"outputs":[{"name":"","type":"uint256","internalType":"uint256"}],"stateMutability":"view"},{"type":"function","name":"initialize","inputs":[{"name":"initialOwner","type":"address","internalType":"address"},{"name":"_rewardManager","type":"address","internalType":"address"},{"name":"_payFeeManager","type":"address","internalType":"address"},{"name":"_stakePercent","type":"uint256","internalType":"uint256"}],"outputs":[],"stateMutability":"nonpayable"},{"type":"function","name":"operatorClaimReward","inputs":[],"outputs":[{"name":"","type":"bool","internalType":"bool"}],"stateMutability":"nonpayable"},{"type":"function","name":"operatorRewards","inputs":[{"name":"","type":"address","internalType":"address"}],"outputs":[{"name":"","type":"uint256","internalType":"uint256"}],"stateMutability":"view"},{"type":"function","name":"owner","inputs":[],"outputs":[{"name":"","type":"address","internalType":"address"}],"stateMutability":"view"},{"type":"function","name":"payFee","inputs":[{"name":"chainBase","type":"address","internalType":"address"},{"name":"operator","type":"address","internalType":"address"},{"name":"baseFee","type":"uint256","internalType":"uint256"}],"outputs":[],"stateMutability":"nonpayable"},{"type":"function","name":"payFeeManager","inputs":[],"outputs":[{"name":"","type":"address","internalType":"address"}],"stateMutability":"view"},{"type":"function","name":"renounceOwnership","inputs":[],"outputs":[],"stateMutability":"nonpayable"},{"type":"function","name":"rewardManager","inputs":[],"outputs":[{"name":"","type":"address","internalType":"address"}],"stateMutability":"view"},{"type":"function","name":"stakeHolderClaimReward","inputs":[{"name":"chainBase","type":"address","internalType":"address"}],"outputs":[{"name":"","type":"bool","internalType":"bool"}],"stateMutability":"nonpayable"},{"type":"function","name":"stakePercent","inputs":[],"outputs":[{"name":"","type":"uint256","internalType":"uint256"}],"stateMutability":"view"},{"type":"function","name":"transferOwnership","inputs":[{"name":"newOwner","type":"address","internalType":"address"}],"outputs":[],"stateMutability":"nonpayable"},{"type":"function","name":"updateStakePercent","inputs":[{"name":"_stakePercent","type":"uint256","internalType":"uint256"}],"outputs":[],"stateMutability":"nonpayable"},{"type":"event","name":"Initialized","inputs":[{"name":"version","type":"uint64","indexed":false,"internalType":"uint64"}],"anonymous":false},{"type":"event","name":"OperatorAndStakeReward","inputs":[{"name":"chainBase","type":"address","indexed":false,"internalType":"address"},{"name":"operator","type":"address","indexed":false,"internalType":"address"},{"name":"stakerFee","type":"uint256","indexed":false,"internalType":"uint256"},{"name":"operatorFee","type":"uint256","indexed":false,"internalType":"uint256"}],"anonymous":false},{"type":"event","name":"OperatorClaimReward","inputs":[{"name":"operator","type":"address","indexed":false,"internalType":"address"},{"name":"amount","type":"uint256","indexed":false,"internalType":"uint256"}],"anonymous":false},{"type":"event","name":"OwnershipTransferred","inputs":[{"name":"previousOwner","type":"address","indexed":true,"internalType":"address"},{"name":"newOwner","type":"address","indexed":true,"internalType":"address"}],"anonymous":false},{"type":"event","name":"StakeHolderClaimReward","inputs":[{"name":"stakeHolder","type":"address","indexed":false,"internalType":"address"},{"name":"chainBase","type":"address","indexed":false,"internalType":"address"},{"name":"amount","type":"uint256","indexed":false,"internalType":"uint256"}],"anonymous":false},{"type":"error","name":"InvalidInitialization","inputs":[]},{"type":"error","name":"NotInitializing","inputs":[]},{"type":"error","name":"OwnableInvalidOwner","inputs":[{"name":"owner","type":"address","internalType":"address"}]},{"type":"error","name":"OwnableUnauthorizedAccount","inputs":[{"name":"account","type":"address","internalType":"address"}]},{"type":"error","name":"ReentrancyGuardReentrantCall","inputs":[]}],"bytecode":{"object":"0x60c03461012557610eb1906001600160401b0390601f38849003908101601f19168201908382118383101761012957808391604096879485528339810103126101255780516001600160a01b03918282168203610125576020015191821682036101255760805260a0527ff0c57e16840df040f15088dc2f81fe391c3923bec73e23a9662efc9c229c6a009081549060ff82851c166101145780808316036100d0575b8351610d73908161013e823960805181818161013901526106a9015260a05181818161047b0152610b980152f35b6001600160401b0319909116811790915581519081527fc7f505b2f371ae2175ee4913f4499e1f2633a7b5936321eed1cdaeb6115181d290602090a15f80806100a2565b835163f92ee8a960e01b8152600490fd5b5f80fd5b634e487b7160e01b5f52604160045260245ffdfe60406080815260048036101561001e575b5050361561001c575f80fd5b005b5f3560e01c806258091d146108e0578063057e3f24146108b85780630adfcd81146106275780630f4ef8a6146105ff5780631fe62e39146105c85780632cb08272146104c757806334a6cdc5146104aa5780633ea8c24c1461046757806341a2b8d614610431578063715018a6146103ca57806386d48fb5146103365780638da5cb5b14610302578063a46457df146102d5578063cf756fdf14610168578063ea4d3c9b146101255763f2fde38b036100105734610121576020366003190112610121576100ea6109fd565b916100f3610c91565b6001600160a01b0383161561010b5761001c83610cc9565b905f6024925191631e4fbdf760e01b8352820152fd5b5f80fd5b8234610121575f36600319011261012157517f00000000000000000000000000000000000000000000000000000000000000006001600160a01b03168152602090f35b509034610121576080366003190112610121576101836109fd565b61018b610a13565b6001600160a01b039160443583811690819003610121577ff0c57e16840df040f15088dc2f81fe391c3923bec73e23a9662efc9c229c6a009384549360ff85881c16159467ffffffffffffffff8116801590816102cd575b60011490816102c3575b1590816102ba575b506102aa57856102489697989950600167ffffffffffffffff19831617895561028b575b506bffffffffffffffffffffffff60a01b92836002541617600255169060015416176001556064355f55610cc9565b61024e57005b805468ff00000000000000001916905551600181527fc7f505b2f371ae2175ee4913f4499e1f2633a7b5936321eed1cdaeb6115181d290602090a1005b68ffffffffffffffffff1916680100000000000000011787555f610219565b875163f92ee8a960e01b81528990fd5b9050155f6101f5565b303b1591506101ed565b8791506101e3565b8234610121576020366003190112610121576020906102fb6102f56109fd565b33610b6e565b9051908152f35b8234610121575f366003190112610121575f80516020610d1e8339815191525490516001600160a01b039091168152602090f35b509034610121576020366003190112610121576001546001600160a01b031633036103615750355f55005b906020608492519162461bcd60e51b8352820152603860248201527f5265776172644d616e616765722e6f6e6c7920726577617264206d616e61676560448201527f722063616e2063616c6c20746869732066756e6374696f6e00000000000000006064820152fd5b34610121575f366003190112610121576103e2610c91565b5f80516020610d1e83398151915280546001600160a01b031981169091555f906001600160a01b03167f8be0079c531659141344cd1fd0a4f28419497f9722a3daafe3b4186f6b6457e08280a3005b509034610121576020366003190112610121576020916001600160a01b036104576109fd565b165f528252805f20549051908152f35b8234610121575f36600319011261012157517f00000000000000000000000000000000000000000000000000000000000000006001600160a01b03168152602090f35b8234610121575f366003190112610121576020905f549051908152f35b509034610121575f36600319011261012157335f5281602052805f2054801561054a575f8080836020966104fe8396471015610a29565b338352875281868120557ff358f13bbeaf315167e16e69fa1b06ca23f46b7fcc119b65b735a427539b332b868051338152838a820152a1335af190610541610afe565b50519015158152f35b815162461bcd60e51b8152602081850152604c60248201527f5265776172644d616e61676572206f70657261746f72436c61696d526577617260448201527f643a206f70657261746f7220636c61696d20616d6f756e74206e656564206d6f60648201526b7265207468656e207a65726f60a01b608482015260a490fd5b8234610121576020366003190112610121576020906001600160a01b036105ed6109fd565b165f5260038252805f20549051908152f35b8234610121575f3660031901126101215760015490516001600160a01b039091168152602090f35b5034610121576060366003190112610121576106416109fd565b9161064a610a13565b6002546001600160a01b0394919291908516330361084f578416938151633a98ef3960e01b8152602093848287818a5afa91821561081357839186915f9461081d575b50602486518094819363371e21e960e01b83521696878b8301527f0000000000000000000000000000000000000000000000000000000000000000165afa908115610813575f916107e6575b50811515806107dd575b15610768579161072560809694926107207f80531474d393ce4cf1f6eff52666de82a1d793bd3644571afcd02e839460cdc8999795604435610b3d565b610b50565b9261074a60646107365f5487610b3d565b048095885f526003845281865f2055610aa7565b94825f52815284835f205582519586528501528301526060820152a1005b835162461bcd60e51b8152808701869052604360248201527f5265776172644d616e61676572207061794665653a206f6e65206f6620746f7460448201527f616c53686172657320616e64206f70657261746f72536861726573206973207a60648201526265726f60e81b608482015260a490fd5b508015156106e3565b90508481813d831161080c575b6107fd8183610ac8565b8101031261012157515f6106d9565b503d6107f3565b84513d5f823e3d90fd5b9250925081813d8311610848575b6108358183610ac8565b810103126101215784839151925f61068d565b503d61082b565b815162461bcd60e51b8152602081860152603960248201527f5265776172644d616e616765722e6f6e6c792070617920666565206d616e616760448201527f65722063616e2063616c6c20746869732066756e6374696f6e000000000000006064820152608490fd5b8234610121575f3660031901126101215760025490516001600160a01b039091168152602090f35b5034610121576020366003190112610121576108fa6109fd565b6109048133610b6e565b918215610981576020845f808080887f225586d654a262de7f45c07692f8b60b054903c50fa0268ef5ce14d20a0e545760608a61094384471015610a29565b6001600160a01b031680855260038a528885208054610963908690610aa7565b90558851903382528a8201528389820152a1335af190610541610afe565b60a490602085519162461bcd60e51b8352820152604a60248201527f5265776172644d616e61676572206f70657261746f72436c61696d526577617260448201527f643a207374616b6520686f6c64657220616d6f756e74206e656564206d6f7265606482015269207468656e207a65726f60b01b6084820152fd5b600435906001600160a01b038216820361012157565b602435906001600160a01b038216820361012157565b15610a3057565b60a460405162461bcd60e51b815260206004820152604460248201527f5265776172644d616e61676572206f70657261746f72436c61696d526577617260448201527f643a2052657761726420546f6b656e2062616c616e636520696e7375666669636064820152631a595b9d60e21b6084820152fd5b91908203918211610ab457565b634e487b7160e01b5f52601160045260245ffd5b90601f8019910116810190811067ffffffffffffffff821117610aea57604052565b634e487b7160e01b5f52604160045260245ffd5b3d15610b38573d9067ffffffffffffffff8211610aea5760405191610b2d601f8201601f191660200184610ac8565b82523d5f602084013e565b606090565b81810292918115918404141715610ab457565b8115610b5a570490565b634e487b7160e01b5f52601260045260245ffd5b604051636aab395560e01b81526001600160a01b03918216600482015260209290919083836024817f000000000000000000000000000000000000000000000000000000000000000086165afa928315610c57575f93610c62575b50169160405191633a98ef3960e01b83528183600481875afa928315610c57575f93610c28575b5080158015610c20575b610c1857600361072092610c15955f525260405f2054610b3d565b90565b505050505f90565b508215610bfa565b9092508181813d8311610c50575b610c408183610ac8565b810103126101215751915f610bf0565b503d610c36565b6040513d5f823e3d90fd5b9092508381813d8311610c8a575b610c7a8183610ac8565b810103126101215751915f610bc9565b503d610c70565b5f80516020610d1e833981519152546001600160a01b03163303610cb157565b60405163118cdaa760e01b8152336004820152602490fd5b5f80516020610d1e83398151915280546001600160a01b039283166001600160a01b0319821681179092559091167f8be0079c531659141344cd1fd0a4f28419497f9722a3daafe3b4186f6b6457e05f80a356fe9016d09d72d40fdae2fd8ceac6b6234c7706214fd39c1cd1e609a0528c199300a2646970667358221220f14629ffac3406e9e146b75c78427837a8564996d38a5a1c8d333b5d014e5bd164736f6c63430008180033","linkReferences":{}},"methodIdentifiers":{"chainBaseStakeRewards(address)":"1fe62e39","cpChainDepositManager()":"3ea8c24c","delegationManager()":"ea4d3c9b","getStakeHolderAmount(address)":"a46457df","initialize(address,address,address,uint256)":"cf756fdf","operatorClaimReward()":"2cb08272","operatorRewards(address)":"41a2b8d6","owner()":"8da5cb5b","payFee(address,address,uint256)":"0adfcd81","payFeeManager()":"057e3f24","renounceOwnership()":"715018a6","rewardManager()":"0f4ef8a6","stakeHolderClaimReward(address)":"0058091d","stakePercent()":"34a6cdc5","transferOwnership(address)":"f2fde38b","updateStakePercent(uint256)":"86d48fb5"},"id":60}