{"abi":[{"type":"constructor","inputs":[],"stateMutability":"nonpayable"},{"type":"receive","stateMutability":"payable"},{"type":"function","name":"MIN_WITHDRAWAL_AMOUNT","inputs":[],"outputs":[{"name":"","type":"uint256","internalType":"uint256"}],"stateMutability":"view"},{"type":"function","name":"delegationManager","inputs":[],"outputs":[{"name":"","type":"address","internalType":"contract IDelegationManager"}],"stateMutability":"view"},{"type":"function","name":"freezeAndSlashingShares","inputs":[{"name":"operator","type":"address","internalType":"address"},{"name":"slashShare","type":"uint256","internalType":"uint256"}],"outputs":[{"name":"","type":"uint256","internalType":"uint256"}],"stateMutability":"nonpayable"},{"type":"function","name":"initialize","inputs":[{"name":"initialOwner","type":"address","internalType":"address"},{"name":"_delegationAddress","type":"address","internalType":"contract IDelegationManager"},{"name":"_slasherAddress","type":"address","internalType":"address"},{"name":"_minWithdrawalAmount","type":"uint256","internalType":"uint256"},{"name":"_slashingRecipient","type":"address","internalType":"address"}],"outputs":[],"stateMutability":"nonpayable"},{"type":"function","name":"isOperatorJail","inputs":[{"name":"","type":"address","internalType":"address"}],"outputs":[{"name":"","type":"bool","internalType":"bool"}],"stateMutability":"view"},{"type":"function","name":"jail","inputs":[{"name":"operator","type":"address","internalType":"address"}],"outputs":[],"stateMutability":"nonpayable"},{"type":"function","name":"owner","inputs":[],"outputs":[{"name":"","type":"address","internalType":"address"}],"stateMutability":"view"},{"type":"function","name":"renounceOwnership","inputs":[],"outputs":[],"stateMutability":"nonpayable"},{"type":"function","name":"slasherAddress","inputs":[],"outputs":[{"name":"","type":"address","internalType":"address"}],"stateMutability":"view"},{"type":"function","name":"slashingOperatorShares","inputs":[{"name":"","type":"address","internalType":"address"}],"outputs":[{"name":"","type":"uint256","internalType":"uint256"}],"stateMutability":"view"},{"type":"function","name":"slashingRecipient","inputs":[],"outputs":[{"name":"","type":"address","internalType":"address"}],"stateMutability":"view"},{"type":"function","name":"slashingStakerShares","inputs":[{"name":"","type":"address","internalType":"address"}],"outputs":[{"name":"","type":"uint256","internalType":"uint256"}],"stateMutability":"view"},{"type":"function","name":"totalProcessedSlashingAmount","inputs":[],"outputs":[{"name":"","type":"uint256","internalType":"uint256"}],"stateMutability":"view"},{"type":"function","name":"transferOwnership","inputs":[{"name":"newOwner","type":"address","internalType":"address"}],"outputs":[],"stateMutability":"nonpayable"},{"type":"function","name":"unJail","inputs":[{"name":"operator","type":"address","internalType":"address"}],"outputs":[],"stateMutability":"nonpayable"},{"type":"function","name":"updateSlashingRecipient","inputs":[{"name":"_slashingRecipient","type":"address","internalType":"address"}],"outputs":[],"stateMutability":"nonpayable"},{"type":"function","name":"withdraw","inputs":[],"outputs":[],"stateMutability":"nonpayable"},{"type":"event","name":"Initialized","inputs":[{"name":"version","type":"uint64","indexed":false,"internalType":"uint64"}],"anonymous":false},{"type":"event","name":"IsJail","inputs":[{"name":"operator","type":"address","indexed":true,"internalType":"address"},{"name":"isJail","type":"bool","indexed":false,"internalType":"bool"}],"anonymous":false},{"type":"event","name":"OwnershipTransferred","inputs":[{"name":"previousOwner","type":"address","indexed":true,"internalType":"address"},{"name":"newOwner","type":"address","indexed":true,"internalType":"address"}],"anonymous":false},{"type":"event","name":"SlashedShareDistributed","inputs":[{"name":"operator","type":"address","indexed":true,"internalType":"address"},{"name":"staker","type":"address","indexed":true,"internalType":"address"},{"name":"amount","type":"uint256","indexed":false,"internalType":"uint256"}],"anonymous":false},{"type":"event","name":"SlashingOperatorStakingShares","inputs":[{"name":"operator","type":"address","indexed":true,"internalType":"address"},{"name":"shares","type":"uint256","indexed":false,"internalType":"uint256"}],"anonymous":false},{"type":"event","name":"Withdrawal","inputs":[{"name":"value","type":"uint256","indexed":false,"internalType":"uint256"},{"name":"to","type":"address","indexed":false,"internalType":"address"},{"name":"from","type":"address","indexed":false,"internalType":"address"}],"anonymous":false},{"type":"error","name":"InvalidInitialization","inputs":[]},{"type":"error","name":"NotInitializing","inputs":[]},{"type":"error","name":"OwnableInvalidOwner","inputs":[{"name":"owner","type":"address","internalType":"address"}]},{"type":"error","name":"OwnableUnauthorizedAccount","inputs":[{"name":"account","type":"address","internalType":"address"}]},{"type":"error","name":"ReentrancyGuardReentrantCall","inputs":[]}],"bytecode":{"object":"0x608080604052346100b8577ff0c57e16840df040f15088dc2f81fe391c3923bec73e23a9662efc9c229c6a009081549060ff8260401c166100a957506001600160401b036002600160401b031982821601610064575b604051610e0d90816100bd8239f35b6001600160401b031990911681179091556040519081527fc7f505b2f371ae2175ee4913f4499e1f2633a7b5936321eed1cdaeb6115181d290602090a15f8080610055565b63f92ee8a960e01b8152600490fd5b5f80fdfe608060409080825260049081361015610022575b5050503615610020575f80fd5b005b5f3560e01c90816305e05eb614610bd2575080630938215814610baa5780631c29b8ba14610b5a5780631e54636f146106e15780632091ef641461066f5780633ccfd60b146104ce578063530b97a414610346578063715018a6146102df5780638da5cb5b146102ab5780639bcbea5214610235578063b130649c146101fe578063b78a8bc0146101c7578063c2cfefeb146101aa578063d3e5792b1461018d578063d53c61bf14610165578063ea4d3c9b1461013d5763f2fde38b146100e95780610013565b3461013957602036600319011261013957610102610c0c565b9161010b610d7f565b6001600160a01b038316156101235761002083610d2b565b905f6024925191631e4fbdf760e01b8352820152fd5b5f80fd5b8234610139575f3660031901126101395760015490516001600160a01b039091168152602090f35b8234610139575f3660031901126101395760025490516001600160a01b039091168152602090f35b8234610139575f366003190112610139576020905f549051908152f35b509034610139575f36600319011261013957602091549051908152f35b8234610139576020366003190112610139576020906001600160a01b036101ec610c0c565b165f5260078252805f20549051908152f35b8234610139576020366003190112610139576020906001600160a01b03610223610c0c565b165f5260068252805f20549051908152f35b8234610139576020366003190112610139577f4d76be7017f8ac06354612f8488660602d4e6761ce2547e87e83fd0c6e5ade2e6020610272610c0c565b6002546001600160a01b03919061028c9083163314610c22565b1692835f5260058252805f20600160ff198254161790555160018152a2005b8234610139575f366003190112610139575f80516020610db88339815191525490516001600160a01b039091168152602090f35b34610139575f366003190112610139576102f7610d7f565b5f80516020610db883398151915280546001600160a01b031981169091555f906001600160a01b03167f8be0079c531659141344cd1fd0a4f28419497f9722a3daafe3b4186f6b6457e08280a3005b5090346101395760a036600319011261013957610361610c0c565b6001600160a01b03906024358281169190829003610139576044359280841680940361013957608435908116809103610139577ff0c57e16840df040f15088dc2f81fe391c3923bec73e23a9662efc9c229c6a009384549360ff85881c16159467ffffffffffffffff8116801590816104c6575b60011490816104bc575b1590816104b3575b506104a357856104419697989950600167ffffffffffffffff198316178955610484575b506bffffffffffffffffffffffff60a01b918260025416176002558160015416176001556064355f556003541617600355610d2b565b61044757005b805468ff00000000000000001916905551600181527fc7f505b2f371ae2175ee4913f4499e1f2633a7b5936321eed1cdaeb6115181d290602090a1005b68ffffffffffffffffff1916680100000000000000011787555f61040b565b875163f92ee8a960e01b81528990fd5b9050155f6103e7565b303b1591506103df565b8791506103d5565b5034610139575f36600319011261013957475f54116105ed575f808080476104f7818754610d0a565b865560018060a01b03600354167fc8a211cc64b6ed1b50595a9fcb1932b6d1e5a6e8ef15b60e5b1f988ea9086bba60608951848152836020820152338b820152a15af13d156105e8573d67ffffffffffffffff81116105d557835190610567601f8201601f191660200183610c94565b81525f60203d92013e5b1561057857005b6020608492519162461bcd60e51b8352820152603260248201527f4665655661756c743a20536c617368696e674d616e6167657220746f2073656e6044820152711908115512081d1bc81c9958da5c1a595b9d60721b6064820152fd5b604183634e487b7160e01b5f525260245ffd5b610571565b602060a492519162461bcd60e51b8352820152605160248201527f536c617368696e674d616e616765723a207769746864726177616c20616d6f7560448201527f6e74206d7573742062652067726561746572207468616e206d696e696d756d206064820152701dda5d1a191c985dd85b08185b5bdd5b9d607a1b6084820152fd5b8234610139576020366003190112610139577f4d76be7017f8ac06354612f8488660602d4e6761ce2547e87e83fd0c6e5ade2e60206106ac610c0c565b6002546001600160a01b0391906106c69083163314610c22565b1692835f5260058252805f2060ff198154169055515f8152a2005b50346101395781600319360112610139576106fa610c0c565b91602480359260018060a01b03809561071882600254163314610c22565b1691825f526020956006875285855f2055816001935f838654168851938480926342e75c0d60e01b82528a868301525afa8015610b50575f925f91610a4f575b5082518151036109cd575f908187805b61099b575b50508115908161091b57948994899489948e99948e995f9c5b6107bd575b8b8b8b8b7fbd94c6f12a4c880e561fe1405554cdec9e93ee00d35a10c1fe3146db0356ed7c848351858152a251908152f35b84518d1015610916576107d08d82610ce2565b516107e0575b9b87019b87610786565b6107ea8d82610ce2565b51808c02908c8204148c15171561090457826108f2578390049c8661080f8288610ce2565b51165f5260078d528d6108268c5f20918254610d0a565b905586895416876108378389610ce2565b511690803b15610139578f916044888f5f948e96869251978896879563675a35d160e01b87528601528401525af180156108e8576108bf575b50808b8e9f9b809d9e9f7f92747dbe3da3a8d39419099ab0534beca147fdc4b71399b4cdc5f8595d5f2281908d9e8c8f976108ab908e610ce2565b51169451908152a39d9c9b9a9950506107d6565b67ffffffffffffffff81116108d6578b5280610870565b88604187634e487b7160e01b5f52525ffd5b8c513d5f823e3d90fd5b87601286634e487b7160e01b5f52525ffd5b87601186634e487b7160e01b5f52525ffd5b61078b565b895162461bcd60e51b81528085018d9052604f818901527f536c617368696e674d616e616765722e667265657a654f70657261746f72537460448201527f616b696e675368617265733a204e6f2073686172657320746f2064697374726960648201526e6275746520736c617368536861726560881b608482015260a490fd5b909282518410156109c5576109bc82916109b58686610ce2565b5190610d0a565b93019080610768565b92508061076d565b875162461bcd60e51b81528083018b90526051818701527f536c617368696e674d616e616765722e667265657a654f70657261746f72537460448201527f616b696e675368617265733a207374616b65727320616e6420736861726573206064820152701b195b99dd1a081b5d5cdd08195c5d585b607a1b608482015260a490fd5b9250503d805f843e610a618184610c94565b820191878184031261013957805167ffffffffffffffff908181116101395782019184601f8401121561013957825192610a9a84610cca565b93610aa78c519586610c94565b8085528d8086019160051b83010191878311610139578e01905b828210610b38575050508b81015191821161013957019280601f8501121561013957835193610aef85610cca565b94610afc8b519687610c94565b8086528c8087019160051b830101928311610139578c809201905b838210610b295750505050915f610758565b81518152908201908201610b17565b81518981168103610139578152908e01908e01610ac1565b87513d5f823e3d90fd5b3461013957602036600319011261013957610b73610c0c565b6002546001600160a01b039190610b8d9083163314610c22565b166bffffffffffffffffffffffff60a01b60035416176003555f80f35b8234610139575f3660031901126101395760035490516001600160a01b039091168152602090f35b8390346101395760203660031901126101395760209160ff906001600160a01b03610bfb610c0c565b165f52600584525f20541615158152f35b600435906001600160a01b038216820361013957565b15610c2957565b60405162461bcd60e51b815260206004820152603f60248201527f536c617368696e674d616e616765722e6f6e6c79536c61736865723a206f6e6c60448201527f7920736c61736865722063616e20646f2074686973206f7065726174696f6e006064820152608490fd5b90601f8019910116810190811067ffffffffffffffff821117610cb657604052565b634e487b7160e01b5f52604160045260245ffd5b67ffffffffffffffff8111610cb65760051b60200190565b8051821015610cf65760209160051b010190565b634e487b7160e01b5f52603260045260245ffd5b91908201809211610d1757565b634e487b7160e01b5f52601160045260245ffd5b5f80516020610db883398151915280546001600160a01b039283166001600160a01b0319821681179092559091167f8be0079c531659141344cd1fd0a4f28419497f9722a3daafe3b4186f6b6457e05f80a3565b5f80516020610db8833981519152546001600160a01b03163303610d9f57565b60405163118cdaa760e01b8152336004820152602490fdfe9016d09d72d40fdae2fd8ceac6b6234c7706214fd39c1cd1e609a0528c199300a26469706673582212203b69f03f47971690279b96c2641ea98bb0d2e4da5569591174e48f23cc6b2b4964736f6c63430008180033","linkReferences":{}},"methodIdentifiers":{"MIN_WITHDRAWAL_AMOUNT()":"d3e5792b","delegationManager()":"ea4d3c9b","freezeAndSlashingShares(address,uint256)":"1e54636f","initialize(address,address,address,uint256,address)":"530b97a4","isOperatorJail(address)":"05e05eb6","jail(address)":"9bcbea52","owner()":"8da5cb5b","renounceOwnership()":"715018a6","slasherAddress()":"d53c61bf","slashingOperatorShares(address)":"b130649c","slashingRecipient()":"09382158","slashingStakerShares(address)":"b78a8bc0","totalProcessedSlashingAmount()":"c2cfefeb","transferOwnership(address)":"f2fde38b","unJail(address)":"2091ef64","updateSlashingRecipient(address)":"1c29b8ba","withdraw()":"3ccfd60b"},"id":61}