{"abi":[{"type":"constructor","inputs":[{"name":"implementation_","type":"address","internalType":"address"},{"name":"initialOwner","type":"address","internalType":"address"}],"stateMutability":"nonpayable"},{"type":"function","name":"implementation","inputs":[],"outputs":[{"name":"","type":"address","internalType":"address"}],"stateMutability":"view"},{"type":"function","name":"owner","inputs":[],"outputs":[{"name":"","type":"address","internalType":"address"}],"stateMutability":"view"},{"type":"function","name":"renounceOwnership","inputs":[],"outputs":[],"stateMutability":"nonpayable"},{"type":"function","name":"transferOwnership","inputs":[{"name":"newOwner","type":"address","internalType":"address"}],"outputs":[],"stateMutability":"nonpayable"},{"type":"function","name":"upgradeTo","inputs":[{"name":"newImplementation","type":"address","internalType":"address"}],"outputs":[],"stateMutability":"nonpayable"},{"type":"event","name":"OwnershipTransferred","inputs":[{"name":"previousOwner","type":"address","indexed":true,"internalType":"address"},{"name":"newOwner","type":"address","indexed":true,"internalType":"address"}],"anonymous":false},{"type":"event","name":"Upgraded","inputs":[{"name":"implementation","type":"address","indexed":true,"internalType":"address"}],"anonymous":false},{"type":"error","name":"BeaconInvalidImplementation","inputs":[{"name":"implementation","type":"address","internalType":"address"}]},{"type":"error","name":"OwnableInvalidOwner","inputs":[{"name":"owner","type":"address","internalType":"address"}]},{"type":"error","name":"OwnableUnauthorizedAccount","inputs":[{"name":"account","type":"address","internalType":"address"}]}],"bytecode":{"object":"0x60803461011857601f6103b038819003918201601f19168301916001600160401b0383118484101761011c57808492604094855283398101031261011857602061004882610130565b916001600160a01b0391829161005e9101610130565b16918215610100575f5460018060a01b03199380858316175f558360405192167f8be0079c531659141344cd1fd0a4f28419497f9722a3daafe3b4186f6b6457e05f80a3813b156100e957501680916001541617600155604051907fbc7cd75a20ee27fd9adebab32041f755214dbc6bffa90cc0225b39da2e5c2d3b5f80a261026b90816101458239f35b63211eb15960e21b81529082166004820152602490fd5b604051631e4fbdf760e01b81525f6004820152602490fd5b5f80fd5b634e487b7160e01b5f52604160045260245ffd5b51906001600160a01b03821682036101185756fe60806040526004361015610011575f80fd5b5f3560e01c80633659cfe6146101865780635c60da1b1461015e578063715018a6146101075780638da5cb5b146100e05763f2fde38b14610050575f80fd5b346100dc5760203660031901126100dc576004356001600160a01b03818116918290036100dc5761007f61020a565b81156100c4575f54826bffffffffffffffffffffffff60a01b8216175f55167f8be0079c531659141344cd1fd0a4f28419497f9722a3daafe3b4186f6b6457e05f80a3005b604051631e4fbdf760e01b81525f6004820152602490fd5b5f80fd5b346100dc575f3660031901126100dc575f546040516001600160a01b039091168152602090f35b346100dc575f3660031901126100dc5761011f61020a565b5f80546001600160a01b0319811682556001600160a01b03167f8be0079c531659141344cd1fd0a4f28419497f9722a3daafe3b4186f6b6457e08280a3005b346100dc575f3660031901126100dc576001546040516001600160a01b039091168152602090f35b346100dc5760203660031901126100dc576004356001600160a01b038116908181036100dc576101b461020a565b3b156101f257600180546001600160a01b031916821790557fbc7cd75a20ee27fd9adebab32041f755214dbc6bffa90cc0225b39da2e5c2d3b5f80a2005b6024906040519063211eb15960e21b82526004820152fd5b5f546001600160a01b0316330361021d57565b60405163118cdaa760e01b8152336004820152602490fdfea264697066735822122017e5789c292c81cb921afbf3741e05d184175cbda1d38c68a7d1ad338d295e5264736f6c63430008180033","linkReferences":{}},"methodIdentifiers":{"implementation()":"5c60da1b","owner()":"8da5cb5b","renounceOwnership()":"715018a6","transferOwnership(address)":"f2fde38b","upgradeTo(address)":"3659cfe6"},"id":34}