{"abi":[{"type":"constructor","inputs":[{"name":"_recipient","type":"address","internalType":"address"},{"name":"_minWithdrawalAmount","type":"uint256","internalType":"uint256"}],"stateMutability":"nonpayable"},{"type":"receive","stateMutability":"payable"},{"type":"function","name":"MIN_WITHDRAWAL_AMOUNT","inputs":[],"outputs":[{"name":"","type":"uint256","internalType":"uint256"}],"stateMutability":"view"},{"type":"function","name":"RECIPIENT","inputs":[],"outputs":[{"name":"","type":"address","internalType":"address"}],"stateMutability":"view"},{"type":"function","name":"feeWallet","inputs":[],"outputs":[{"name":"","type":"address","internalType":"address"}],"stateMutability":"view"},{"type":"function","name":"minWithdrawalAmount","inputs":[],"outputs":[{"name":"amount_","type":"uint256","internalType":"uint256"}],"stateMutability":"view"},{"type":"function","name":"recipient","inputs":[],"outputs":[{"name":"recipient_","type":"address","internalType":"address"}],"stateMutability":"view"},{"type":"function","name":"totalProcessed","inputs":[],"outputs":[{"name":"","type":"uint256","internalType":"uint256"}],"stateMutability":"view"},{"type":"function","name":"version","inputs":[],"outputs":[{"name":"","type":"string","internalType":"string"}],"stateMutability":"view"},{"type":"function","name":"withdraw","inputs":[],"outputs":[],"stateMutability":"nonpayable"},{"type":"event","name":"Withdrawal","inputs":[{"name":"value","type":"uint256","indexed":false,"internalType":"uint256"},{"name":"to","type":"address","indexed":false,"internalType":"address"},{"name":"from","type":"address","indexed":false,"internalType":"address"}],"anonymous":false}],"bytecode":{"object":"0x60c03461008857601f61045d38819003918201601f19168301916001600160401b0383118484101761008c578084926040948552833981010312610088578051906001600160a01b038216820361008857602001519060a0526080526040516103bc90816100a18239608051818181609e01526102c1015260a05181818160e001526101dd0152f35b5f80fd5b634e487b7160e01b5f52604160045260245ffdfe6080604052600436101561001a575b3615610018575f80fd5b005b5f3560e01c80630d9019e1146101c85780633ccfd60b1461008b57806354fd4d501461008657806366d003ac146100775780638312f1491461007c57806384411d6514610081578063d3e5792b1461007c5763f25f4b560361000e575b6101c8565b6102aa565b6102e4565b61020c565b346101c4575f3660031901126101c457477f000000000000000000000000000000000000000000000000000000000000000011610146576100185f808080476100d5818354610300565b8255604080518281527f00000000000000000000000000000000000000000000000000000000000000006001600160a01b038116602083015233928201929092527fc8a211cc64b6ed1b50595a9fcb1932b6d1e5a6e8ef15b60e5b1f988ea9086bba90606090a162033450f1610321565b60405162461bcd60e51b815260206004820152604a60248201527f4665655661756c743a207769746864726177616c20616d6f756e74206d75737460448201527f2062652067726561746572207468616e206d696e696d756d20776974686472616064820152691dd85b08185b5bdd5b9d60b21b608482015260a490fd5b5f80fd5b346101c4575f3660031901126101c4576040517f00000000000000000000000000000000000000000000000000000000000000006001600160a01b03168152602090f35b346101c4575f3660031901126101c457604080519080820182811067ffffffffffffffff82111761029657815260058252602064302e302e3160d81b60208401528151928391602083528151918260208501525f5b8381106102805750505f83830185015250601f01601f19168101030190f35b8181018301518782018701528694508201610261565b634e487b7160e01b5f52604160045260245ffd5b346101c4575f3660031901126101c45760206040517f00000000000000000000000000000000000000000000000000000000000000008152f35b346101c4575f3660031901126101c45760205f54604051908152f35b9190820180921161030d57565b634e487b7160e01b5f52601160045260245ffd5b1561032857565b60405162461bcd60e51b815260206004820152603060248201527f4665655661756c743a206661696c656420746f2073656e642045544820746f2060448201526f130c88199959481c9958da5c1a595b9d60821b6064820152608490fdfea26469706673582212206646599fad805123e1e59b626d1f0f4f9d63de5d1101d3e35c5cda8dc5d9cda564736f6c63430008180033","linkReferences":{}},"methodIdentifiers":{"MIN_WITHDRAWAL_AMOUNT()":"d3e5792b","RECIPIENT()":"0d9019e1","feeWallet()":"f25f4b56","minWithdrawalAmount()":"8312f149","recipient()":"66d003ac","totalProcessed()":"84411d65","version()":"54fd4d50","withdraw()":"3ccfd60b"},"id":54}