{"abi":[{"type":"constructor","inputs":[{"name":"_cpChainDepositManager","type":"address","internalType":"contract ICpChainDepositManager"},{"name":"_cpChainBase","type":"address","internalType":"contract ICpChainBase"},{"name":"_slashingManager","type":"address","internalType":"contract ISlashingManager"}],"stateMutability":"nonpayable"},{"type":"receive","stateMutability":"payable"},{"type":"function","name":"DELEGATION_APPROVAL_TYPEHASH","inputs":[],"outputs":[{"name":"","type":"bytes32","internalType":"bytes32"}],"stateMutability":"view"},{"type":"function","name":"DOMAIN_TYPEHASH","inputs":[],"outputs":[{"name":"","type":"bytes32","internalType":"bytes32"}],"stateMutability":"view"},{"type":"function","name":"MAX_STAKER_OPT_OUT_WINDOW_BLOCKS","inputs":[],"outputs":[{"name":"","type":"uint256","internalType":"uint256"}],"stateMutability":"view"},{"type":"function","name":"MAX_WITHDRAWAL_DELAY_BLOCKS","inputs":[],"outputs":[{"name":"","type":"uint256","internalType":"uint256"}],"stateMutability":"view"},{"type":"function","name":"STAKER_DELEGATION_TYPEHASH","inputs":[],"outputs":[{"name":"","type":"bytes32","internalType":"bytes32"}],"stateMutability":"view"},{"type":"function","name":"calculateCurrentStakerDelegationDigestHash","inputs":[{"name":"staker","type":"address","internalType":"address"},{"name":"operator","type":"address","internalType":"address"},{"name":"expiry","type":"uint256","internalType":"uint256"}],"outputs":[{"name":"","type":"bytes32","internalType":"bytes32"}],"stateMutability":"view"},{"type":"function","name":"calculateDelegationApprovalDigestHash","inputs":[{"name":"staker","type":"address","internalType":"address"},{"name":"operator","type":"address","internalType":"address"},{"name":"_delegationApprover","type":"address","internalType":"address"},{"name":"approverSalt","type":"bytes32","internalType":"bytes32"},{"name":"expiry","type":"uint256","internalType":"uint256"}],"outputs":[{"name":"","type":"bytes32","internalType":"bytes32"}],"stateMutability":"view"},{"type":"function","name":"calculateStakerDelegationDigestHash","inputs":[{"name":"staker","type":"address","internalType":"address"},{"name":"_stakerNonce","type":"uint256","internalType":"uint256"},{"name":"operator","type":"address","internalType":"address"},{"name":"expiry","type":"uint256","internalType":"uint256"}],"outputs":[{"name":"","type":"bytes32","internalType":"bytes32"}],"stateMutability":"view"},{"type":"function","name":"calculateWithdrawalRoot","inputs":[{"name":"withdrawal","type":"tuple","internalType":"struct IDelegationManager.Withdrawal","components":[{"name":"staker","type":"address","internalType":"address"},{"name":"delegatedTo","type":"address","internalType":"address"},{"name":"withdrawer","type":"address","internalType":"address"},{"name":"nonce","type":"uint256","internalType":"uint256"},{"name":"startBlock","type":"uint32","internalType":"uint32"},{"name":"shares","type":"uint256","internalType":"uint256"}]}],"outputs":[{"name":"","type":"bytes32","internalType":"bytes32"}],"stateMutability":"pure"},{"type":"function","name":"chainBaseWithdrawalDelayBlock","inputs":[],"outputs":[{"name":"","type":"uint256","internalType":"uint256"}],"stateMutability":"view"},{"type":"function","name":"completeQueuedWithdrawal","inputs":[{"name":"withdrawal","type":"tuple","internalType":"struct IDelegationManager.Withdrawal","components":[{"name":"staker","type":"address","internalType":"address"},{"name":"delegatedTo","type":"address","internalType":"address"},{"name":"withdrawer","type":"address","internalType":"address"},{"name":"nonce","type":"uint256","internalType":"uint256"},{"name":"startBlock","type":"uint32","internalType":"uint32"},{"name":"shares","type":"uint256","internalType":"uint256"}]}],"outputs":[],"stateMutability":"nonpayable"},{"type":"function","name":"completeQueuedWithdrawals","inputs":[{"name":"withdrawals","type":"tuple[]","internalType":"struct IDelegationManager.Withdrawal[]","components":[{"name":"staker","type":"address","internalType":"address"},{"name":"delegatedTo","type":"address","internalType":"address"},{"name":"withdrawer","type":"address","internalType":"address"},{"name":"nonce","type":"uint256","internalType":"uint256"},{"name":"startBlock","type":"uint32","internalType":"uint32"},{"name":"shares","type":"uint256","internalType":"uint256"}]}],"outputs":[],"stateMutability":"nonpayable"},{"type":"function","name":"cpChainBase","inputs":[],"outputs":[{"name":"","type":"address","internalType":"contract ICpChainBase"}],"stateMutability":"view"},{"type":"function","name":"cpChainDepositManager","inputs":[],"outputs":[{"name":"","type":"address","internalType":"contract ICpChainDepositManager"}],"stateMutability":"view"},{"type":"function","name":"cumulativeWithdrawalsQueued","inputs":[{"name":"","type":"address","internalType":"address"}],"outputs":[{"name":"","type":"uint256","internalType":"uint256"}],"stateMutability":"view"},{"type":"function","name":"decreaseDelegatedShares","inputs":[{"name":"staker","type":"address","internalType":"address"},{"name":"shares","type":"uint256","internalType":"uint256"}],"outputs":[],"stateMutability":"nonpayable"},{"type":"function","name":"delegateTo","inputs":[{"name":"operator","type":"address","internalType":"address"},{"name":"approverSignatureAndExpiry","type":"tuple","internalType":"struct ISignatureUtils.SignatureWithExpiry","components":[{"name":"signature","type":"bytes","internalType":"bytes"},{"name":"expiry","type":"uint256","internalType":"uint256"}]},{"name":"approverSalt","type":"bytes32","internalType":"bytes32"}],"outputs":[],"stateMutability":"nonpayable"},{"type":"function","name":"delegateToBySignature","inputs":[{"name":"staker","type":"address","internalType":"address"},{"name":"operator","type":"address","internalType":"address"},{"name":"stakerSignatureAndExpiry","type":"tuple","internalType":"struct ISignatureUtils.SignatureWithExpiry","components":[{"name":"signature","type":"bytes","internalType":"bytes"},{"name":"expiry","type":"uint256","internalType":"uint256"}]},{"name":"approverSignatureAndExpiry","type":"tuple","internalType":"struct ISignatureUtils.SignatureWithExpiry","components":[{"name":"signature","type":"bytes","internalType":"bytes"},{"name":"expiry","type":"uint256","internalType":"uint256"}]},{"name":"approverSalt","type":"bytes32","internalType":"bytes32"}],"outputs":[],"stateMutability":"nonpayable"},{"type":"function","name":"delegatedTo","inputs":[{"name":"","type":"address","internalType":"address"}],"outputs":[{"name":"","type":"address","internalType":"address"}],"stateMutability":"view"},{"type":"function","name":"delegationApprover","inputs":[{"name":"operator","type":"address","internalType":"address"}],"outputs":[{"name":"","type":"address","internalType":"address"}],"stateMutability":"view"},{"type":"function","name":"delegationApproverSaltIsSpent","inputs":[{"name":"","type":"address","internalType":"address"},{"name":"","type":"bytes32","internalType":"bytes32"}],"outputs":[{"name":"","type":"bool","internalType":"bool"}],"stateMutability":"view"},{"type":"function","name":"domainSeparator","inputs":[],"outputs":[{"name":"","type":"bytes32","internalType":"bytes32"}],"stateMutability":"view"},{"type":"function","name":"earningsReceiver","inputs":[{"name":"operator","type":"address","internalType":"address"}],"outputs":[{"name":"","type":"address","internalType":"address"}],"stateMutability":"view"},{"type":"function","name":"getOperatorShares","inputs":[{"name":"operator","type":"address","internalType":"address"}],"outputs":[{"name":"","type":"uint256","internalType":"uint256"}],"stateMutability":"view"},{"type":"function","name":"getStakerSharesOfOperator","inputs":[{"name":"operator","type":"address","internalType":"address"}],"outputs":[{"name":"","type":"address[]","internalType":"address[]"},{"name":"","type":"uint256[]","internalType":"uint256[]"}],"stateMutability":"view"},{"type":"function","name":"increaseDelegatedShares","inputs":[{"name":"staker","type":"address","internalType":"address"},{"name":"shares","type":"uint256","internalType":"uint256"}],"outputs":[],"stateMutability":"nonpayable"},{"type":"function","name":"initialize","inputs":[{"name":"initialOwner","type":"address","internalType":"address"},{"name":"_pauserRegistry","type":"address","internalType":"contract IPauserRegistry"},{"name":"initialPausedStatus","type":"uint256","internalType":"uint256"},{"name":"_withdrawalDelayBlock","type":"uint256","internalType":"uint256"}],"outputs":[],"stateMutability":"nonpayable"},{"type":"function","name":"isDelegated","inputs":[{"name":"staker","type":"address","internalType":"address"}],"outputs":[{"name":"","type":"bool","internalType":"bool"}],"stateMutability":"view"},{"type":"function","name":"isOperator","inputs":[{"name":"operator","type":"address","internalType":"address"}],"outputs":[{"name":"","type":"bool","internalType":"bool"}],"stateMutability":"view"},{"type":"function","name":"modifyOperatorDetails","inputs":[{"name":"newOperatorDetails","type":"tuple","internalType":"struct IDelegationManager.OperatorDetails","components":[{"name":"earningsReceiver","type":"address","internalType":"address"},{"name":"delegationApprover","type":"address","internalType":"address"},{"name":"stakerOptOutWindowBlocks","type":"uint32","internalType":"uint32"}]}],"outputs":[],"stateMutability":"nonpayable"},{"type":"function","name":"operatorDetails","inputs":[{"name":"operator","type":"address","internalType":"address"}],"outputs":[{"name":"","type":"tuple","internalType":"struct IDelegationManager.OperatorDetails","components":[{"name":"earningsReceiver","type":"address","internalType":"address"},{"name":"delegationApprover","type":"address","internalType":"address"},{"name":"stakerOptOutWindowBlocks","type":"uint32","internalType":"uint32"}]}],"stateMutability":"view"},{"type":"function","name":"operatorShares","inputs":[{"name":"","type":"address","internalType":"address"}],"outputs":[{"name":"","type":"uint256","internalType":"uint256"}],"stateMutability":"view"},{"type":"function","name":"owner","inputs":[],"outputs":[{"name":"","type":"address","internalType":"address"}],"stateMutability":"view"},{"type":"function","name":"pause","inputs":[{"name":"newPausedStatus","type":"uint256","internalType":"uint256"}],"outputs":[],"stateMutability":"nonpayable"},{"type":"function","name":"pauseAll","inputs":[],"outputs":[],"stateMutability":"nonpayable"},{"type":"function","name":"paused","inputs":[{"name":"index","type":"uint8","internalType":"uint8"}],"outputs":[{"name":"","type":"bool","internalType":"bool"}],"stateMutability":"view"},{"type":"function","name":"paused","inputs":[],"outputs":[{"name":"","type":"uint256","internalType":"uint256"}],"stateMutability":"view"},{"type":"function","name":"pauserRegistry","inputs":[],"outputs":[{"name":"","type":"address","internalType":"contract IPauserRegistry"}],"stateMutability":"view"},{"type":"function","name":"pendingWithdrawals","inputs":[{"name":"","type":"bytes32","internalType":"bytes32"}],"outputs":[{"name":"","type":"bool","internalType":"bool"}],"stateMutability":"view"},{"type":"function","name":"queueWithdrawals","inputs":[{"name":"queuedWithdrawalParams","type":"tuple[]","internalType":"struct IDelegationManager.QueuedWithdrawalParams[]","components":[{"name":"shares","type":"uint256","internalType":"uint256"},{"name":"withdrawer","type":"address","internalType":"address"}]}],"outputs":[{"name":"","type":"bytes32[]","internalType":"bytes32[]"}],"stateMutability":"nonpayable"},{"type":"function","name":"registerAsOperator","inputs":[{"name":"registeringOperatorDetails","type":"tuple","internalType":"struct IDelegationManager.OperatorDetails","components":[{"name":"earningsReceiver","type":"address","internalType":"address"},{"name":"delegationApprover","type":"address","internalType":"address"},{"name":"stakerOptOutWindowBlocks","type":"uint32","internalType":"uint32"}]},{"name":"nodeUrl","type":"string","internalType":"string"}],"outputs":[],"stateMutability":"nonpayable"},{"type":"function","name":"renounceOwnership","inputs":[],"outputs":[],"stateMutability":"nonpayable"},{"type":"function","name":"setCpChainBaseWithdrawalDelayBlocks","inputs":[{"name":"withdrawalDelayBlock","type":"uint256","internalType":"uint256"}],"outputs":[],"stateMutability":"nonpayable"},{"type":"function","name":"setPauserRegistry","inputs":[{"name":"newPauserRegistry","type":"address","internalType":"contract IPauserRegistry"}],"outputs":[],"stateMutability":"nonpayable"},{"type":"function","name":"slashingManager","inputs":[],"outputs":[{"name":"","type":"address","internalType":"contract ISlashingManager"}],"stateMutability":"view"},{"type":"function","name":"slashingStakingShares","inputs":[{"name":"staker","type":"address","internalType":"address"},{"name":"shares","type":"uint256","internalType":"uint256"}],"outputs":[],"stateMutability":"nonpayable"},{"type":"function","name":"stakerDelegateSharesToOperator","inputs":[{"name":"","type":"address","internalType":"address"},{"name":"","type":"address","internalType":"address"}],"outputs":[{"name":"","type":"uint256","internalType":"uint256"}],"stateMutability":"view"},{"type":"function","name":"stakerList","inputs":[{"name":"","type":"uint256","internalType":"uint256"}],"outputs":[{"name":"","type":"address","internalType":"address"}],"stateMutability":"view"},{"type":"function","name":"stakerNonce","inputs":[{"name":"","type":"address","internalType":"address"}],"outputs":[{"name":"","type":"uint256","internalType":"uint256"}],"stateMutability":"view"},{"type":"function","name":"stakerOptOutWindowBlocks","inputs":[{"name":"operator","type":"address","internalType":"address"}],"outputs":[{"name":"","type":"uint256","internalType":"uint256"}],"stateMutability":"view"},{"type":"function","name":"transferOwnership","inputs":[{"name":"newOwner","type":"address","internalType":"address"}],"outputs":[],"stateMutability":"nonpayable"},{"type":"function","name":"undelegate","inputs":[{"name":"staker","type":"address","internalType":"address"}],"outputs":[{"name":"withdrawalRoot","type":"bytes32","internalType":"bytes32"}],"stateMutability":"nonpayable"},{"type":"function","name":"unpause","inputs":[{"name":"newPausedStatus","type":"uint256","internalType":"uint256"}],"outputs":[],"stateMutability":"nonpayable"},{"type":"function","name":"updateOperatorNodeUrl","inputs":[{"name":"nodeUrl","type":"string","internalType":"string"}],"outputs":[],"stateMutability":"nonpayable"},{"type":"event","name":"Initialized","inputs":[{"name":"version","type":"uint64","indexed":false,"internalType":"uint64"}],"anonymous":false},{"type":"event","name":"MinWithdrawalDelayBlocksSet","inputs":[{"name":"previousValue","type":"uint256","indexed":false,"internalType":"uint256"},{"name":"newValue","type":"uint256","indexed":false,"internalType":"uint256"}],"anonymous":false},{"type":"event","name":"OperatorDetailsModified","inputs":[{"name":"operator","type":"address","indexed":true,"internalType":"address"},{"name":"newOperatorDetails","type":"tuple","indexed":false,"internalType":"struct IDelegationManager.OperatorDetails","components":[{"name":"earningsReceiver","type":"address","internalType":"address"},{"name":"delegationApprover","type":"address","internalType":"address"},{"name":"stakerOptOutWindowBlocks","type":"uint32","internalType":"uint32"}]}],"anonymous":false},{"type":"event","name":"OperatorNodeUrlUpdated","inputs":[{"name":"operator","type":"address","indexed":true,"internalType":"address"},{"name":"metadataURI","type":"string","indexed":false,"internalType":"string"}],"anonymous":false},{"type":"event","name":"OperatorRegistered","inputs":[{"name":"operator","type":"address","indexed":true,"internalType":"address"},{"name":"operatorDetails","type":"tuple","indexed":false,"internalType":"struct IDelegationManager.OperatorDetails","components":[{"name":"earningsReceiver","type":"address","internalType":"address"},{"name":"delegationApprover","type":"address","internalType":"address"},{"name":"stakerOptOutWindowBlocks","type":"uint32","internalType":"uint32"}]}],"anonymous":false},{"type":"event","name":"OperatorSharesDecreased","inputs":[{"name":"operator","type":"address","indexed":true,"internalType":"address"},{"name":"staker","type":"address","indexed":false,"internalType":"address"},{"name":"shares","type":"uint256","indexed":false,"internalType":"uint256"}],"anonymous":false},{"type":"event","name":"OperatorSharesIncreased","inputs":[{"name":"operator","type":"address","indexed":true,"internalType":"address"},{"name":"staker","type":"address","indexed":false,"internalType":"address"},{"name":"shares","type":"uint256","indexed":false,"internalType":"uint256"}],"anonymous":false},{"type":"event","name":"OwnershipTransferred","inputs":[{"name":"previousOwner","type":"address","indexed":true,"internalType":"address"},{"name":"newOwner","type":"address","indexed":true,"internalType":"address"}],"anonymous":false},{"type":"event","name":"Paused","inputs":[{"name":"account","type":"address","indexed":true,"internalType":"address"},{"name":"newPausedStatus","type":"uint256","indexed":false,"internalType":"uint256"}],"anonymous":false},{"type":"event","name":"PauserRegistrySet","inputs":[{"name":"pauserRegistry","type":"address","indexed":false,"internalType":"contract IPauserRegistry"},{"name":"newPauserRegistry","type":"address","indexed":false,"internalType":"contract IPauserRegistry"}],"anonymous":false},{"type":"event","name":"StakerDelegated","inputs":[{"name":"staker","type":"address","indexed":true,"internalType":"address"},{"name":"operator","type":"address","indexed":true,"internalType":"address"}],"anonymous":false},{"type":"event","name":"StakerForceUndelegated","inputs":[{"name":"staker","type":"address","indexed":true,"internalType":"address"},{"name":"operator","type":"address","indexed":true,"internalType":"address"}],"anonymous":false},{"type":"event","name":"StakerUndelegated","inputs":[{"name":"staker","type":"address","indexed":true,"internalType":"address"},{"name":"operator","type":"address","indexed":true,"internalType":"address"}],"anonymous":false},{"type":"event","name":"StrategyWithdrawalDelayBlocksSet","inputs":[{"name":"previousValue","type":"uint256","indexed":false,"internalType":"uint256"},{"name":"newValue","type":"uint256","indexed":false,"internalType":"uint256"}],"anonymous":false},{"type":"event","name":"Unpaused","inputs":[{"name":"account","type":"address","indexed":true,"internalType":"address"},{"name":"newPausedStatus","type":"uint256","indexed":false,"internalType":"uint256"}],"anonymous":false},{"type":"event","name":"WithdrawalCompleted","inputs":[{"name":"operator","type":"address","indexed":false,"internalType":"address"},{"name":"staker","type":"address","indexed":false,"internalType":"address"},{"name":"shares","type":"uint256","indexed":false,"internalType":"uint256"}],"anonymous":false},{"type":"event","name":"WithdrawalMigrated","inputs":[{"name":"oldWithdrawalRoot","type":"bytes32","indexed":false,"internalType":"bytes32"},{"name":"newWithdrawalRoot","type":"bytes32","indexed":false,"internalType":"bytes32"}],"anonymous":false},{"type":"event","name":"WithdrawalQueued","inputs":[{"name":"withdrawalRoot","type":"bytes32","indexed":false,"internalType":"bytes32"},{"name":"withdrawal","type":"tuple","indexed":false,"internalType":"struct IDelegationManager.Withdrawal","components":[{"name":"staker","type":"address","internalType":"address"},{"name":"delegatedTo","type":"address","internalType":"address"},{"name":"withdrawer","type":"address","internalType":"address"},{"name":"nonce","type":"uint256","internalType":"uint256"},{"name":"startBlock","type":"uint32","internalType":"uint32"},{"name":"shares","type":"uint256","internalType":"uint256"}]}],"anonymous":false},{"type":"error","name":"ECDSAInvalidSignature","inputs":[]},{"type":"error","name":"ECDSAInvalidSignatureLength","inputs":[{"name":"length","type":"uint256","internalType":"uint256"}]},{"type":"error","name":"ECDSAInvalidSignatureS","inputs":[{"name":"s","type":"bytes32","internalType":"bytes32"}]},{"type":"error","name":"InvalidInitialization","inputs":[]},{"type":"error","name":"NotInitializing","inputs":[]},{"type":"error","name":"OwnableInvalidOwner","inputs":[{"name":"owner","type":"address","internalType":"address"}]},{"type":"error","name":"OwnableUnauthorizedAccount","inputs":[{"name":"account","type":"address","internalType":"address"}]},{"type":"error","name":"ReentrancyGuardReentrantCall","inputs":[]}],"bytecode":{"object":"0x61010034620001a157601f620041c938819003918201601f19168301926001600160401b0392909183851183861017620001a5578160609284926040978852833981010312620001a15780516001600160a01b0391908281168103620001a1576020820151918383168303620001a1578501519283168303620001a15760805260a05260c0527ff0c57e16840df040f15088dc2f81fe391c3923bec73e23a9662efc9c229c6a009081549060ff82851c16620001905780808316036200014b575b834660e0525161400f9081620001ba823960805181818161081d01528181610cba01528181610d15015281816110f10152818161154801528181611a1301528181611cd401528181611e290152818161253501528181613311015261377e015260a0518181816115b70152611828015260c0518181816111ac015261151b015260e05181612f270152f35b6001600160401b0319909116811790915581519081527fc7f505b2f371ae2175ee4913f4499e1f2633a7b5936321eed1cdaeb6115181d290602090a15f8080620000c0565b835163f92ee8a960e01b8152600490fd5b5f80fd5b634e487b7160e01b5f52604160045260245ffdfe60808060405260048036101561001e575b5050361561001c575f80fd5b005b5f915f3560e01c90816304a4f9791461298c575080630b9f487a146129505780630f589e59146123b957806310d67a2f14612338578063136439dd1461222157806316928365146121dd5780631bbce091146121975780631c8392d71461209857806320606b701461205e578063240fe38e14611d3857806326e51dae14611cad57806329c77d4f14611c7557806332505f0c14611b34578063348e50c614611af3578063371e21e914611abb5780633cdeb5e014611a7f5780633e28391d14611a425780633ea8c24c146119fe57806342e75c0d14611891578063433773821461185757806347c0715a146118135780634fc40b61146117f6578063595c6a671461173f5780635ac86ab71461170d5780635c975abb146116f05780635f966f14146116b757806365da12641461167e578063675a35d1146114f25780636d70f7ae146114aa578063715018a6146114415780637ce823d6146113f45780637f548071146112c0578063886f1195146112995780638bef87b7146112105780638da5cb5b146111db5780638e5ce3ad14611196578063a17884841461115d578063a7dc6b18146110c9578063b7f06ebe1461109b578063bb45fef214611052578063c5e480db14610fbd578063c94b511114610f89578063ca661c0414610f6b578063ca95d82614610f47578063cd8e9cd314610f0e578063cf3c5c6214610b2a578063da8be8641461076a578063eb6aa05f1461074c578063eb990c5914610529578063eea9064b146104e0578063f16172b014610431578063f2fde38b146103da578063f698da25146103b45763fabc1cbc0361001057346103b0576020806003193601126103ac57825460405163755b36bd60e11b8152833593916001600160a01b0390849083908590829085165afa80156103a1576102cc928791610374575b50163314612cb2565b60015419831981160361030c57507f3582d1828e26bf56bd801502bc021ac0bc8afb57c826e4986b45593c8fad389c90826001556040519283523392a280f35b6084916040519162461bcd60e51b8352820152603860248201527f5061757361626c652e756e70617573653a20696e76616c696420617474656d7060448201527f7420746f2070617573652066756e6374696f6e616c69747900000000000000006064820152fd5b6103949150853d871161039a575b61038c8183612b23565b810190612c93565b5f6102c3565b503d610382565b6040513d88823e3d90fd5b8280fd5b5080fd5b82346103d757806003193601126103d75760206103cf612f24565b604051908152f35b80fd5b50346103b05760203660031901126103b0576103f46129c4565b906103fd613957565b6001600160a01b0382161561041957506104169061398f565b80f35b604051631e4fbdf760e01b8152908101839052602490fd5b50346103b05760603660031901126103b057335f908152606b60205260409020546001600160a01b03161561046a575061041633612f5c565b60a49060206040519162461bcd60e51b8352820152604360248201527f44656c65676174696f6e4d616e616765722e6d6f646966794f70657261746f7260448201527f44657461696c733a2063616c6c6572206d75737420626520616e206f706572616064820152623a37b960e91b6084820152fd5b50346103b05760603660031901126103b0576104fa6129c4565b6024356001600160401b038111610525576104169261051b91369101612b44565b60443591336131f5565b8380fd5b50346103b05760803660031901126103b0576105436129c4565b9061054c6129da565b91604435927ff0c57e16840df040f15088dc2f81fe391c3923bec73e23a9662efc9c229c6a009384549360ff8560401c1615946001600160401b03811680159081610744575b600114908161073a575b159081610731575b506107215767ffffffffffffffff198116600117875585610702575b5086546001600160a01b039081161590816106f6575b501561067c575061062b92918161061b926001556040519081527fab40a374bc51de372200a8bc981af8c9ecdc08dfdaef0bb6e09f88f3c616ef3d60203392a2613596565b610623613d96565b60665561398f565b610636606435613ca2565b61063e575080f35b68ff00000000000000001981541690557fc7f505b2f371ae2175ee4913f4499e1f2633a7b5936321eed1cdaeb6115181d2602060405160018152a180f35b60a49060206040519162461bcd60e51b8352820152604760248201527f5061757361626c652e5f696e697469616c697a655061757365723a205f696e6960448201527f7469616c697a6550617573657228292063616e206f6e6c792062652063616c6c6064820152666564206f6e636560c81b6084820152fd5b9050831615155f6105d6565b68ffffffffffffffffff1916680100000000000000011786555f6105c0565b5060405163f92ee8a960e01b8152fd5b9050155f6105a4565b303b15915061059c565b879150610592565b82346103d757806003193601126103d7576020606754604051908152f35b5090346103d757602091826003193601126103b0576107876129c4565b6001600160a01b038082165f908152606c60205260409020549194911615610ab4576001600160a01b038085165f908152606b602052604090205416610a4b576001600160a01b038481169490929085156109e257858552606c83528360408620541694863314801590816109d9575b80156109c0575b15610956576040516394f649dd60e01b815293840188905284846024817f00000000000000000000000000000000000000000000000000000000000000008a165afa93841561094b578294610918575b506108ed575b85877ffee30966a256b71e14bc0ebfc94315e28ef4a97a7131a9e2b7a310a73af446768380a3868152606c84526040812080546001600160a01b03191690555b6068548110156108e057808580896108ad600195612a47565b929054600393841b1c16146108c5575b505001610894565b6108ce83612a47565b81939154921b1b19169055855f6108bd565b50906103cf918581613754565b85877ff0eddf07e6ea14f388b47e1e94a0f464ecbd9eed4171130e0fc0e99fb4030a8a8380a3610854565b9093508481813d8311610944575b6109308183612b23565b810103126109405751925f61084e565b5f80fd5b503d610926565b6040513d84823e3d90fd5b60405162461bcd60e51b8152808501869052603d60248201527f44656c65676174696f6e4d616e616765722e756e64656c65676174653a20636160448201527f6c6c65722063616e6e6f7420756e64656c6567617465207374616b65720000006064820152608490fd5b50868252606b85528560016040842001541633146107fe565b508633146107f7565b506084916040519162461bcd60e51b8352820152603c60248201527f44656c65676174696f6e4d616e616765722e756e64656c65676174653a20636160448201527f6e6e6f7420756e64656c6567617465207a65726f2061646472657373000000006064820152fd5b60405162461bcd60e51b815291820152603d60248201527f44656c65676174696f6e4d616e616765722e756e64656c65676174653a206f7060448201527f657261746f72732063616e6e6f7420626520756e64656c656761746564000000606482015260849150fd5b60a492506040519162461bcd60e51b8352820152604460248201527f44656c65676174696f6e4d616e616765722e756e64656c65676174653a20737460448201527f616b6572206d7573742062652064656c65676174656420746f20756e64656c656064820152636761746560e01b6084820152fd5b50346103b05760203660031901126103b0576001600160401b03808235116103ac5736602383350112156103ac5781358201359081116103ac57602436602460c08402853501011161052557600192610b8560015415612d86565b610b8d613668565b845b838110610bbe578560017f9b779b17422d0df92223018b32b4d1fa46e071723d6817e2486d003becc55f005580f35b60c081028235019060c060231983360301126109405760405191610be183612aed565b610bec858201612a06565b8352610bfa60448201612a06565b6020840152610c0b60648201612a06565b60408401526084810135606084015260a48101359263ffffffff841684036109405780846080610c4693015260c483013560a0820152612eab565b805f52606f60205260ff60405f20541615610eac576001600160a01b03610c6f60648401612e3b565b163303610e3d575f52606f60205260405f2060ff198154169055335f52606c60205260018060a01b0360405f20541692610cb3439163ffffffff60675491166136aa565b11610da9577f00000000000000000000000000000000000000000000000000000000000000006001600160a01b03163b1561094057604080516325e02e5960e21b81523386820190815260c4840135602082015290915f9183918291010381837f00000000000000000000000000000000000000000000000000000000000000006001600160a01b03165af1938415610d9e5760c47fb00382203b46c3b6ad0a2d7af0268e334bd9406256a7c7ba8f7fc8bc47f8cde9936060938b97610d8f575b5060405192835233602084015201356040820152a101610b8f565b610d9890612abf565b5f610d74565b6040513d5f823e3d90fd5b60405162461bcd60e51b8152602081860152606f818701525f80516020613f9a83398151915260448201527f645769746864726177616c3a207769746864726177616c44656c6179426c6f6360648201527f6b7320706572696f6420686173206e6f74207965742070617373656420666f7260848201526e207468697320636861696e4261736560881b60a482015260c490fd5b60405162461bcd60e51b81526020818701526050818801525f80516020613f9a83398151915260448201527f645769746864726177616c3a206f6e6c7920776974686472617765722063616e60648201526f1031b7b6b83632ba329030b1ba34b7b760811b608482015260a490fd5b60405162461bcd60e51b81526020818701526043818801525f80516020613f9a83398151915260448201527f645769746864726177616c3a20616374696f6e206973206e6f7420696e20717560648201526265756560e81b608482015260a490fd5b82346103d75760203660031901126103d7576020906040906001600160a01b03610f366129c4565b168152606983522054604051908152f35b50346103b05760203660031901126103b05761041690610f65613957565b35613ca2565b82346103d757806003193601126103d757602060405162034bc08152f35b82346103d75760803660031901126103d75760206103cf610fa86129c4565b610fb06129f0565b6064359160243590612ec9565b82346103d75760203660031901126103d757606090604080610fdd6129c4565b9280828051610feb81612ad2565b828152826020820152015260018060a01b038094168152606b602052209181519061101582612ad2565b600181855416948584520154916020810190828416825263ffffffff948591019360a01c1683526040519485525116602084015251166040820152f35b82346103d75760403660031901126103d75760209060ff906040906001600160a01b0361107d6129c4565b168152606e8452818120602435825284522054166040519015158152f35b50346103b05760203660031901126103b057604060209260ff92358152606f84522054166040519015158152f35b82346103d75760403660031901126103d7576110e36129c4565b6001600160a01b03611118337f0000000000000000000000000000000000000000000000000000000000000000831614612dd2565b6001600160a01b038083165f908152606c60205260409020541661113a578280f35b818161115793168452606c60205260243591604085205416613c38565b81808280f35b82346103d75760203660031901126103d7576020906040906001600160a01b036111856129c4565b168152607083522054604051908152f35b82346103d757806003193601126103d7576040517f00000000000000000000000000000000000000000000000000000000000000006001600160a01b03168152602090f35b82346103d757806003193601126103d7575f80516020613f7a833981519152546040516001600160a01b039091168152602090f35b5090346103d75760c03660031901126103d757506040519061123182612aed565b6001600160a01b039035818116810361094057825260243581811681036109405760208301526044359081168103610940576040820152606435606082015260843563ffffffff8116810361094057816103cf916080602094015260a43560a0820152612eab565b82346103d757806003193601126103d757546040516001600160a01b039091168152602090f35b5090346103d75760a03660031901126103d7576112db6129c4565b6112e36129da565b6001600160401b03906044358281116113f0576113039036908701612b44565b916064359081116113f05761131b9036908701612b44565b9160208101958651421161137c57506001600160a01b038416808652606d60205260408620549651959661041696611373939160019161135d9087838b612ec9565b938a52606d6020520160408920555190856139e3565b608435926131f5565b60a49060206040519162461bcd60e51b8352820152604160248201527f44656c65676174696f6e4d616e616765722e64656c6567617465546f4279536960448201527f676e61747572653a207374616b6572207369676e6174757265206578706972656064820152601960fa1b6084820152fd5b8480fd5b82346103d75760403660031901126103d75761140e6129c4565b60406114186129da565b9260018060a01b038093168152606a6020522091165f52602052602060405f2054604051908152f35b82346103d757806003193601126103d75761145a613957565b5f80516020613f7a83398151915280546001600160a01b031981169091555f906001600160a01b03167f8be0079c531659141344cd1fd0a4f28419497f9722a3daafe3b4186f6b6457e08280a380f35b82346103d75760203660031901126103d75760206114e86114c96129c4565b6001600160a01b039081165f908152606b602052604090205416151590565b6040519015158152f35b5090346109405760403660031901126109405761150d6129c4565b602435926001600160a01b037f00000000000000000000000000000000000000000000000000000000000000008116923384900361164457817f000000000000000000000000000000000000000000000000000000000000000016803b15610940576040805163beffbb8960e01b81526001600160a01b03909316858401908152602081018990525f92849290918391859183910103925af18015610d9e57611631575b509383947f000000000000000000000000000000000000000000000000000000000000000016803b156113f0576040805163f3fef3a360e01b81526001600160a01b039095169385019384526020840192909252849284928391859183910103925af1801561094b576116215750f35b61162a90612abf565b6103d75780f35b61163c919450612abf565b5f925f6115b1565b60405162461bcd60e51b8152602081850152601360248201527237b7363ca9b630b9b434b733a6b0b730b3b2b960691b6044820152606490fd5b346109405760203660031901126109405760206001600160a01b03806116a26129c4565b165f52606c825260405f205416604051908152f35b346109405760203660031901126109405760206001600160a01b03806116db6129c4565b165f52606b825260405f205416604051908152f35b34610940575f366003190112610940576020600154604051908152f35b5034610940576020366003190112610940573560ff81168091036109405760016020911b806001541614604051908152f35b5034610940575f366003190112610940575f5460405163237dfb4760e11b81523392810192909252602090829060249082906001600160a01b03165afa8015610d9e57611793915f916117c7575b50612d29565b5f19806001556040519081527fab40a374bc51de372200a8bc981af8c9ecdc08dfdaef0bb6e09f88f3c616ef3d60203392a2005b6117e9915060203d6020116117ef575b6117e18183612b23565b810190612d11565b8261178d565b503d6117d7565b34610940575f3660031901126109405760206040516213c6808152f35b34610940575f366003190112610940576040517f00000000000000000000000000000000000000000000000000000000000000006001600160a01b03168152602090f35b34610940575f3660031901126109405760206040517f39111bc4a4d688e1f685123d7497d4615370152a8ee4a0593e647bd06ad8bb0b8152f35b3461094057602080600319360112610940576118ab6129c4565b906068546118b881612e14565b916118c66040519384612b23565b8183526118d282612e14565b601f19928483019184013683376118e881612e14565b906118f66040519283612b23565b80825261190281612e14565b82850195013686376001600160a01b039687165f5b82811061199d57505050604051958695604087019060408852518091526060870193915f905b8282106119805750505050848203858401525180825290820192915f5b82811061196957505050500390f35b83518552869550938101939281019260010161195a565b83518116865289985094860194928601926001919091019061193d565b8089806119b06001949b97989a9b612a47565b919054600392831b1c166119c48489612e4f565b526119ce83612a47565b9054911b1c165f52606a875260405f20835f52875260405f20546119f28288612e4f565b52019695939296611917565b34610940575f366003190112610940576040517f00000000000000000000000000000000000000000000000000000000000000006001600160a01b03168152602090f35b346109405760203660031901126109405760206114e8611a606129c4565b6001600160a01b039081165f908152606c602052604090205416151590565b346109405760203660031901126109405760206001600160a01b0380611aa36129c4565b165f52606b8252600160405f20015416604051908152f35b34610940576020366003190112610940576001600160a01b03611adc6129c4565b165f526069602052602060405f2054604051908152f35b5034610940576020366003190112610940573560685481101561094057611b1b602091612a47565b905460405160039290921b1c6001600160a01b03168152f35b5034610940576020806003193601126109405781356001600160401b0392838211610940573660238301121561094057810135928311610940576024810190602436918560061b010111610940579190600190611b9360015415612d86565b611b9c83612e14565b92611baa6040519485612b23565b808452611bb681612e14565b8483019590601f1901368737335f908152606c845260408120546001600160a01b0316905b838110611c1d57505050506040519281840190828552518091526040840194915f5b828110611c0a5785870386f35b8351875295810195928101928401611bfd565b9485611c5e611c3c87611c36859c9a89899d9b9d612e2b565b01612e3b565b611c4b8a611c36858a8a612e2b565b85611c57858a8a612e2b565b3592613754565b611c688288612e4f565b5201969496959395611bdb565b34610940576020366003190112610940576001600160a01b03611c966129c4565b165f52606d602052602060405f2054604051908152f35b3461094057604036600319011261094057611cc66129c4565b6001600160a01b03611cfb337f0000000000000000000000000000000000000000000000000000000000000000831614612dd2565b6001600160a01b038083165f908152606c602052604090205416611d1b57005b818161001c93165f52606c6020526024359160405f2054166136cb565b50346109405760c036600319011261094057611d5660015415612d86565b611d5e613668565b604051611d6a81612aed565b6001600160a01b03823581811681036109405782526024359181831683036109405760209283820152604435918083169283810361094057604083015260643560608301526084359263ffffffff841693848103610940576080840152611dd960a435938460a0820152612eab565b90815f52606f865260ff60405f20541615611ffb573303611f8b575f52606f845260405f2060ff198154169055335f52606c8452611e218160405f20541693606754906136aa565b4310611ef6577f000000000000000000000000000000000000000000000000000000000000000016803b1561094057604080516325e02e5960e21b81523396810196875260208701849052955f92879290918391859183910103925af1928315610d9e577fb00382203b46c3b6ad0a2d7af0268e334bd9406256a7c7ba8f7fc8bc47f8cde994606094611ee7575b5060405192835233908301526040820152a160017f9b779b17422d0df92223018b32b4d1fa46e071723d6817e2486d003becc55f0055005b611ef090612abf565b85611eaf565b60405162461bcd60e51b8152808601859052606f60248201525f80516020613f9a83398151915260448201527f645769746864726177616c3a207769746864726177616c44656c6179426c6f6360648201527f6b7320706572696f6420686173206e6f74207965742070617373656420666f7260848201526e207468697320636861696e4261736560881b60a482015260c490fd5b60405162461bcd60e51b8152808701869052605060248201525f80516020613f9a83398151915260448201527f645769746864726177616c3a206f6e6c7920776974686472617765722063616e60648201526f1031b7b6b83632ba329030b1ba34b7b760811b608482015260a490fd5b60405162461bcd60e51b8152808801879052604360248201525f80516020613f9a83398151915260448201527f645769746864726177616c3a20616374696f6e206973206e6f7420696e20717560648201526265756560e81b608482015260a490fd5b34610940575f3660031901126109405760206040517f8cad95687ba82c2ce50e74f7b754645e5117c3a5bec8151c0726d5857980a8668152f35b50346109405760203660031901126109405780356001600160401b038111610940576120c79036908301612a1a565b335f908152606b6020526040902054919290916001600160a01b031615612121575061211c7f826d13513a58153c5878cd93af2008d3f8dfc32049e748b380b1b385645e280b91604051918291339583612c6c565b0390a2005b60a49060206040519162461bcd60e51b8352820152604360248201527f44656c65676174696f6e4d616e616765722e7570646174654f70657261746f7260448201527f4e6f646555726c3a2063616c6c6572206d75737420626520616e206f706572616064820152623a37b960e91b6084820152fd5b346109405760603660031901126109405760206103cf6121b56129c4565b6121bd6129da565b6001600160a01b0382165f908152606d8552604090205460443592612ec9565b34610940576020366003190112610940576001600160a01b036121fe6129c4565b165f52606b602052602063ffffffff600160405f20015460a01c16604051908152f35b503461094057602080600319360112610940575f5460405163237dfb4760e11b81523381850152833593918390829060249082906001600160a01b03165afa8015610d9e57612276915f9161231b5750612d29565b600154838116036122b357507fab40a374bc51de372200a8bc981af8c9ecdc08dfdaef0bb6e09f88f3c616ef3d90826001556040519283523392a2005b6084916040519162461bcd60e51b8352820152603860248201527f5061757361626c652e70617573653a20696e76616c696420617474656d70742060448201527f746f20756e70617573652066756e6374696f6e616c69747900000000000000006064820152fd5b6123329150843d86116117ef576117e18183612b23565b8561178d565b5034610940576020366003190112610940576123526129c4565b5f5460405163755b36bd60e11b81526001600160a01b039390916020918391829087165afa928315610d9e5761001c93612395925f9161239a5750163314612cb2565b613596565b6123b3915060203d60201161039a5761038c8183612b23565b856102c3565b503461094057366003190160808112610940576060136109405760649081356001600160401b038111610940576123f39036908301612a1a565b9092335f526020606b815260018060a01b03918260405f2054166128da5761241a33612f5c565b6040519061242782612a90565b606082525f838301818152338252606c6020526040909120546001600160a01b031661286757335f908152606b60205260409020546001600160a01b0316156127ee57335f52606b845284600160405f2001541691821515806127e4575b806127dd575b612645575b50505050335f52606c815260405f20336bffffffffffffffffffffffff60a01b825416179055606854600160401b811015612632576124d88160016124f69301606855612a47565b81546001600160a01b0360039290921b91821b19163390911b179055565b60405133337fc3ee9f2e5fda98e8066a1f745b2df9285f416fe98cf2559cd21484b3d87433045f80a36394f649dd60e01b8152338582015281816024817f000000000000000000000000000000000000000000000000000000000000000087165afa8015610d9e575f90612603575b612571915033336136cb565b6040519335828116809103610940578452602435918216809203610940578301526044359063ffffffff8216809203610940578261211c9260407f826d13513a58153c5878cd93af2008d3f8dfc32049e748b380b1b385645e280b9501527f8e8485583a2310d41f7c82b9427d0bd49bad74bb9cff9d3402a29d8f9b28a0e260603392a2604051918291339583612c6c565b508181813d831161262b575b6126198183612b23565b81010312610940576125719051612565565b503d61260f565b604185634e487b7160e01b5f525260245ffd5b8151421161278e57825f52606e855260405f205f8052855260ff60405f20541661273f5750906127369291815f52606e855260405f205f8052855260405f20600160ff198254161790555160405190858201927f6d1fdcc5430bb8f0c2b78c3d153f848b370260144c36d3b8b064f06b5a04568e845233604084015233606084015260808301525f60a083015260c082015260c081526126e481612b08565b51902061271c61272a6126f5612f24565b926040519283918883019586909160429261190160f01b8352600283015260228201520190565b03601f198101835282612b23565b519020905190336139e3565b85808080612490565b87761c9bdd995c94d85b1d08185b1c9958591e481cdc195b9d604a1b608492876040519362461bcd60e51b8552840152603760248401525f80516020613fba8339815191526044840152820152fd5b87761c9bdd995c881cda59db985d1d5c9948195e1c1a5c9959604a1b608492876040519362461bcd60e51b8552840152603760248401525f80516020613fba8339815191526044840152820152fd5b505f61248b565b5082331415612485565b60405162461bcd60e51b8152808801859052604760248201527f44656c65676174696f6e4d616e616765722e5f64656c65676174653a206f706560448201527f7261746f72206973206e6f74207265676973746572656420696e204370436861818401526634b72630bcb2b960c91b608482015260a490fd5b60405162461bcd60e51b8152808801859052604160248201527f44656c65676174696f6e4d616e616765722e5f64656c65676174653a2073746160448201527f6b657220697320616c7265616479206163746976656c792064656c656761746581840152601960fa1b608482015260a490fd5b7f61746f723a206f70657261746f722068617320616c7265616479207265676973859160a4936040519362461bcd60e51b8552840152604560248401527f44656c65676174696f6e4d616e616765722e726567697374657241734f7065726044840152820152641d195c995960da1b6084820152fd5b346109405760a03660031901126109405760206103cf61296e6129c4565b6129766129da565b9061297f6129f0565b6084359260643592612bc9565b34610940575f36600319011261094057807f6d1fdcc5430bb8f0c2b78c3d153f848b370260144c36d3b8b064f06b5a04568e60209252f35b600435906001600160a01b038216820361094057565b602435906001600160a01b038216820361094057565b604435906001600160a01b038216820361094057565b35906001600160a01b038216820361094057565b9181601f84011215610940578235916001600160401b038311610940576020838186019501011161094057565b606854811015612a7c5760685f527fa2153420d844928b4421650203c77babc8b33d7f2e7b450e2966db0c2209775301905f90565b634e487b7160e01b5f52603260045260245ffd5b604081019081106001600160401b03821117612aab57604052565b634e487b7160e01b5f52604160045260245ffd5b6001600160401b038111612aab57604052565b606081019081106001600160401b03821117612aab57604052565b60c081019081106001600160401b03821117612aab57604052565b60e081019081106001600160401b03821117612aab57604052565b90601f801991011681019081106001600160401b03821117612aab57604052565b9190916040818403126109405760405190612b5e82612a90565b81938135916001600160401b03928381116109405781019180601f840112156109405782356020948111612aab5760405191612ba3601f8301601f1916870184612b23565b8183528582860101116109405784815f9282809701838601378301015284520135910152565b939192906040519360208501957f6d1fdcc5430bb8f0c2b78c3d153f848b370260144c36d3b8b064f06b5a04568e875260018060a01b039283809216604088015216606086015216608084015260a083015260c082015260c08152612c2d81612b08565b51902061271c612c66612c3e612f24565b92604051928391602083019586909160429261190160f01b8352600283015260228201520190565b51902090565b90918060409360208452816020850152848401375f828201840152601f01601f1916010190565b9081602091031261094057516001600160a01b03811681036109405790565b15612cb957565b60405162461bcd60e51b815260206004820152602a60248201527f6d73672e73656e646572206973206e6f74207065726d697373696f6e6564206160448201526939903ab73830bab9b2b960b11b6064820152608490fd5b90816020910312610940575180151581036109405790565b15612d3057565b60405162461bcd60e51b815260206004820152602860248201527f6d73672e73656e646572206973206e6f74207065726d697373696f6e6564206160448201526739903830bab9b2b960c11b6064820152608490fd5b15612d8d57565b60405162461bcd60e51b815260206004820152601c60248201527f5061757361626c653a20636f6e747261637420697320706175736564000000006044820152606490fd5b15612dd957565b60405162461bcd60e51b815260206004820152601360248201527237b7363ca9ba3930ba32b3bca6b0b730b3b2b960691b6044820152606490fd5b6001600160401b038111612aab5760051b60200190565b9190811015612a7c5760061b0190565b356001600160a01b03811681036109405790565b8051821015612a7c5760209160051b010190565b60a08091600180831b0380825116855280602083015116602086015260408201511660408501526060810151606085015263ffffffff60808201511660808501520151910152565b604051612ebc602082018093612e63565b60c08152612c6681612b08565b9192906040519260208401947f39111bc4a4d688e1f685123d7497d4615370152a8ee4a0593e647bd06ad8bb0b865260018060a01b038092166040860152166060840152608083015260a082015260a08152612c2d81612aed565b467f000000000000000000000000000000000000000000000000000000000000000003612f515760665490565b612f59613d96565b90565b6004356001600160a01b03818116929183900361094057821561316d5760443563ffffffff80821693848303610940576213c68085116130c757831690815f52606b602052600160405f20015460a01c168410613040575f52606b602052600160405f20856bffffffffffffffffffffffff60a01b8254161781550190602435928316809303610940578282549163ffffffff60a01b9060a01b16916001600160401b0360c01b1617179055604051928352602083015260408201527ffebe5cd24b2cbc7b065b9d0fdeb904461e4afcff57dd57acda1e7832031ba7ac60603392a2565b60405162461bcd60e51b815260206004820152605360248201527f44656c65676174696f6e4d616e616765722e5f7365744f70657261746f72446560448201527f7461696c733a207374616b65724f70744f757457696e646f77426c6f636b732060648201527218d85b9b9bdd08189948191958dc99585cd959606a1b608482015260a490fd5b60405162461bcd60e51b815260206004820152606c60248201527f44656c65676174696f6e4d616e616765722e5f7365744f70657261746f72446560448201527f7461696c733a207374616b65724f70744f757457696e646f77426c6f636b732060648201527f63616e6e6f74206265203e204d41585f5354414b45525f4f50545f4f55545f5760848201526b494e444f575f424c4f434b5360a01b60a482015260c490fd5b60405162461bcd60e51b815260206004820152605460248201527f44656c65676174696f6e4d616e616765722e5f7365744f70657261746f72446560448201527f7461696c733a2063616e6e6f742073657420606561726e696e677352656365696064820152737665726020746f207a65726f206164647265737360601b608482015260a490fd5b6001600160a01b038082165f908152606c602052604090205493949391929116613521576001600160a01b038082165f908152606b602052604090205416156134a65760018060a01b0393848216805f52602091606b8352604095876001885f20015416908115158061349c575b80613492575b61338a575b5050508386165f818152606c845286902080546001600160a01b03191683179055606854600160401b811015612aab5783926132d4876132b684600160249601606855612a47565b90919060018060a01b038084549260031b9316831b921b1916179055565b87519889938492817fc3ee9f2e5fda98e8066a1f745b2df9285f416fe98cf2559cd21484b3d87433045f80a36394f649dd60e01b835260048301527f0000000000000000000000000000000000000000000000000000000000000000165afa93841561338157505f9361334f575b5061334d93506136cb565b565b90925083813d831161337a575b6133668183612b23565b810103126109405761334d9251915f613342565b503d61335c565b513d5f823e3d90fd5b8483018051421161344157825f52606e8652885f20825f52865260ff895f2054166133f0575f838152606e87528981208382528752899020805460ff19166001179055516133e893926133df9290888a612bc9565b905190866139e3565b5f808061326e565b885162461bcd60e51b815260048101879052603760248201525f80516020613fba8339815191526044820152761c9bdd995c94d85b1d08185b1c9958591e481cdc195b9d604a1b6064820152608490fd5b885162461bcd60e51b815260048101879052603760248201525f80516020613fba8339815191526044820152761c9bdd995c881cda59db985d1d5c9948195e1c1a5c9959604a1b6064820152608490fd5b5083331415613269565b5081331415613263565b60405162461bcd60e51b815260206004820152604760248201527f44656c65676174696f6e4d616e616765722e5f64656c65676174653a206f706560448201527f7261746f72206973206e6f74207265676973746572656420696e20437043686160648201526634b72630bcb2b960c91b608482015260a490fd5b60405162461bcd60e51b815260206004820152604160248201527f44656c65676174696f6e4d616e616765722e5f64656c65676174653a2073746160448201527f6b657220697320616c7265616479206163746976656c792064656c65676174656064820152601960fa1b608482015260a490fd5b6001600160a01b039081169081156135eb577f6e9fcd539896fca60e8b0f01dd580233e48a6b0f7df013b89ba7f565869acdb660405f549281519084168152846020820152a16001600160a01b031916175f55565b60405162461bcd60e51b815260206004820152604960248201527f5061757361626c652e5f73657450617573657252656769737472793a206e657760448201527f50617573657252656769737472792063616e6e6f7420626520746865207a65726064820152686f206164647265737360b81b608482015260a490fd5b7f9b779b17422d0df92223018b32b4d1fa46e071723d6817e2486d003becc55f0060028154146136985760029055565b604051633ee5aeb560e01b8152600490fd5b919082018092116136b757565b634e487b7160e01b5f52601160045260245ffd5b917f9a61813b471b5a3bad7bf5dd4feba4df891a682ae28e7114f45e482c5900b72e9160018060a01b0380941693845f52606960205260405f206137108482546136aa565b9055845f52606a60205260405f209082165f5260205260405f206137358382546136aa565b9055604080516001600160a01b039290921682526020820192909252a2565b5f936001600160a01b03808316949293919285156138d357818316928486856138c2575b505050817f000000000000000000000000000000000000000000000000000000000000000016803b15610940576040805163beffbb8960e01b81526001600160a01b039790971660048801526024870186905295905f908290604490829084905af180156138b8576138a5575b508587526070602052848720805493905f19851461389157927f729e18845ad6e11aca72d9186f0964b995424b62fbacad242ee7c0122ed73717979592859260e09895600161388d9801905585519761383d89612aed565b885260208801521683860152606085015263ffffffff4316608085015260a08401528061386984612eab565b96878152606f60205220600160ff1982541617905551918583526020830190612e63565ba190565b634e487b7160e01b89526011600452602489fd5b6138b0919750612abf565b5f955f6137e5565b86513d5f823e3d90fd5b6138cb92613c38565b5f8486613778565b60405162461bcd60e51b815260206004820152605060248201527f44656c65676174696f6e4d616e616765722e5f72656d6f76655368617265734160448201527f6e6451756575655769746864726177616c3a207374616b65722063616e6e6f7460648201526f206265207a65726f206164647265737360801b608482015260a490fd5b5f80516020613f7a833981519152546001600160a01b0316330361397757565b60405163118cdaa760e01b8152336004820152602490fd5b5f80516020613f7a83398151915280546001600160a01b039283166001600160a01b0319821681179092559091167f8be0079c531659141344cd1fd0a4f28419497f9722a3daafe3b4186f6b6457e05f80a3565b909190803b15613b45576040518092630b135d3f60e11b948583526004830152604060248301528051908160448401525f5b828110613b2d5750509181606481855f8360209884010152601f8019910116810103019160018060a01b03165afa908115610d9e575f91613aea575b506001600160e01b03191603613a6357565b60405162461bcd60e51b815260206004820152605360248201527f454950313237315369676e61747572655574696c732e636865636b5369676e6160448201527f747572655f454950313237313a2045524331323731207369676e6174757265206064820152721d995c9a599a58d85d1a5bdb8819985a5b1959606a1b608482015260a490fd5b90506020813d602011613b25575b81613b0560209383612b23565b8101031261094057516001600160e01b031981168103610940575f613a51565b3d9150613af8565b60208282018101516064888401015286945001613a15565b90613b9390613b9c9360405160208101917f19457468657265756d205369676e6564204d6573736167653a0a3332000000008352603c820152603c8152613b8b81612ad2565b519020613e3a565b90939193613e74565b6001600160a01b03908116911603613bb057565b60405162461bcd60e51b815260206004820152604760248201527f454950313237315369676e61747572655574696c732e636865636b5369676e6160448201527f747572655f454950313237313a207369676e6174757265206e6f742066726f6d6064820152661039b4b3b732b960c91b608482015260a490fd5b919082039182116136b757565b917f37d3e849079809fe10f0b9db0efe433e86af66f8e95978b12b8d5468f32057499160018060a01b0380941693845f52606960205260405f20613c7d848254613c2b565b9055845f52606a60205260405f209082165f5260205260405f20613735838254613c2b565b6067549062034bc08111613ce6577f1b6158e161a32a2f215ef568645e0193089aa98de51e3f84ff1bedb2b1b7a847918160409260675582519182526020820152a1565b60405162461bcd60e51b815260206004820152607660248201527f44656c65676174696f6e4d616e616765722e5f7365744370436861696e42617360448201527f655769746864726177616c44656c6179426c6f636b733a205f7769746864726160648201527f77616c44656c6179426c6f636b732063616e6e6f74206265203e204d41585f5760848201527549544844524157414c5f44454c41595f424c4f434b5360501b60a482015260c490fd5b6b21b821b430b4b72630bcb2b960a11b6020604051613db481612a90565b600c8152015260405160208101907f8cad95687ba82c2ce50e74f7b754645e5117c3a5bec8151c0726d5857980a86682527fdb9781486a2a80a40f2a84bb9833326cb40ad55e3f92aed07afc487c21dd6aa660408201524660608201523060808201526080815260a081018181106001600160401b03821117612aab5760405251902090565b8151919060418303613e6a57613e639250602082015190606060408401519301515f1a90613ef7565b9192909190565b50505f9160029190565b6004811015613ee35780613e86575050565b60018103613ea05760405163f645eedf60e01b8152600490fd5b60028103613ec15760405163fce698f760e01b815260048101839052602490fd5b600314613ecb5750565b602490604051906335e2f38360e21b82526004820152fd5b634e487b7160e01b5f52602160045260245ffd5b91907f7fffffffffffffffffffffffffffffff5d576e7357a4501ddfe92f46681b20a08411613f6e579160209360809260ff5f9560405194855216868401526040830152606082015282805260015afa15610d9e575f516001600160a01b03811615613f6457905f905f90565b505f906001905f90565b5050505f916003919056fe9016d09d72d40fdae2fd8ceac6b6234c7706214fd39c1cd1e609a0528c19930044656c65676174696f6e4d616e616765722e5f636f6d706c657465517565756544656c65676174696f6e4d616e616765722e5f64656c65676174653a20617070a26469706673582212202eef05441458760587a76110893f8c6a6ac5e0bd911d8bce0108663441bc315864736f6c63430008180033","linkReferences":{}},"methodIdentifiers":{"DELEGATION_APPROVAL_TYPEHASH()":"04a4f979","DOMAIN_TYPEHASH()":"20606b70","MAX_STAKER_OPT_OUT_WINDOW_BLOCKS()":"4fc40b61","MAX_WITHDRAWAL_DELAY_BLOCKS()":"ca661c04","STAKER_DELEGATION_TYPEHASH()":"43377382","calculateCurrentStakerDelegationDigestHash(address,address,uint256)":"1bbce091","calculateDelegationApprovalDigestHash(address,address,address,bytes32,uint256)":"0b9f487a","calculateStakerDelegationDigestHash(address,uint256,address,uint256)":"c94b5111","calculateWithdrawalRoot((address,address,address,uint256,uint32,uint256))":"8bef87b7","chainBaseWithdrawalDelayBlock()":"eb6aa05f","completeQueuedWithdrawal((address,address,address,uint256,uint32,uint256))":"240fe38e","completeQueuedWithdrawals((address,address,address,uint256,uint32,uint256)[])":"cf3c5c62","cpChainBase()":"47c0715a","cpChainDepositManager()":"3ea8c24c","cumulativeWithdrawalsQueued(address)":"a1788484","decreaseDelegatedShares(address,uint256)":"a7dc6b18","delegateTo(address,(bytes,uint256),bytes32)":"eea9064b","delegateToBySignature(address,address,(bytes,uint256),(bytes,uint256),bytes32)":"7f548071","delegatedTo(address)":"65da1264","delegationApprover(address)":"3cdeb5e0","delegationApproverSaltIsSpent(address,bytes32)":"bb45fef2","domainSeparator()":"f698da25","earningsReceiver(address)":"5f966f14","getOperatorShares(address)":"cd8e9cd3","getStakerSharesOfOperator(address)":"42e75c0d","increaseDelegatedShares(address,uint256)":"26e51dae","initialize(address,address,uint256,uint256)":"eb990c59","isDelegated(address)":"3e28391d","isOperator(address)":"6d70f7ae","modifyOperatorDetails((address,address,uint32))":"f16172b0","operatorDetails(address)":"c5e480db","operatorShares(address)":"371e21e9","owner()":"8da5cb5b","pause(uint256)":"136439dd","pauseAll()":"595c6a67","paused()":"5c975abb","paused(uint8)":"5ac86ab7","pauserRegistry()":"886f1195","pendingWithdrawals(bytes32)":"b7f06ebe","queueWithdrawals((uint256,address)[])":"32505f0c","registerAsOperator((address,address,uint32),string)":"0f589e59","renounceOwnership()":"715018a6","setCpChainBaseWithdrawalDelayBlocks(uint256)":"ca95d826","setPauserRegistry(address)":"10d67a2f","slashingManager()":"8e5ce3ad","slashingStakingShares(address,uint256)":"675a35d1","stakerDelegateSharesToOperator(address,address)":"7ce823d6","stakerList(uint256)":"348e50c6","stakerNonce(address)":"29c77d4f","stakerOptOutWindowBlocks(address)":"16928365","transferOwnership(address)":"f2fde38b","undelegate(address)":"da8be864","unpause(uint256)":"fabc1cbc","updateOperatorNodeUrl(string)":"1c8392d7"},"id":56}