{"abi":[{"type":"constructor","inputs":[{"name":"_cpChainDepositManager","type":"address","internalType":"contract ICpChainDepositManager"},{"name":"_cpChainBase","type":"address","internalType":"contract ICpChainBase"},{"name":"_slashingManager","type":"address","internalType":"contract ISlashingManager"}],"stateMutability":"nonpayable"},{"type":"receive","stateMutability":"payable"},{"type":"function","name":"DELEGATION_APPROVAL_TYPEHASH","inputs":[],"outputs":[{"name":"","type":"bytes32","internalType":"bytes32"}],"stateMutability":"view"},{"type":"function","name":"DOMAIN_TYPEHASH","inputs":[],"outputs":[{"name":"","type":"bytes32","internalType":"bytes32"}],"stateMutability":"view"},{"type":"function","name":"MAX_STAKER_OPT_OUT_WINDOW_BLOCKS","inputs":[],"outputs":[{"name":"","type":"uint256","internalType":"uint256"}],"stateMutability":"view"},{"type":"function","name":"MAX_WITHDRAWAL_DELAY_BLOCKS","inputs":[],"outputs":[{"name":"","type":"uint256","internalType":"uint256"}],"stateMutability":"view"},{"type":"function","name":"STAKER_DELEGATION_TYPEHASH","inputs":[],"outputs":[{"name":"","type":"bytes32","internalType":"bytes32"}],"stateMutability":"view"},{"type":"function","name":"calculateCurrentStakerDelegationDigestHash","inputs":[{"name":"staker","type":"address","internalType":"address"},{"name":"operator","type":"address","internalType":"address"},{"name":"expiry","type":"uint256","internalType":"uint256"}],"outputs":[{"name":"","type":"bytes32","internalType":"bytes32"}],"stateMutability":"view"},{"type":"function","name":"calculateDelegationApprovalDigestHash","inputs":[{"name":"staker","type":"address","internalType":"address"},{"name":"operator","type":"address","internalType":"address"},{"name":"_delegationApprover","type":"address","internalType":"address"},{"name":"approverSalt","type":"bytes32","internalType":"bytes32"},{"name":"expiry","type":"uint256","internalType":"uint256"}],"outputs":[{"name":"","type":"bytes32","internalType":"bytes32"}],"stateMutability":"view"},{"type":"function","name":"calculateStakerDelegationDigestHash","inputs":[{"name":"staker","type":"address","internalType":"address"},{"name":"_stakerNonce","type":"uint256","internalType":"uint256"},{"name":"operator","type":"address","internalType":"address"},{"name":"expiry","type":"uint256","internalType":"uint256"}],"outputs":[{"name":"","type":"bytes32","internalType":"bytes32"}],"stateMutability":"view"},{"type":"function","name":"calculateWithdrawalRoot","inputs":[{"name":"withdrawal","type":"tuple","internalType":"struct IDelegationManager.Withdrawal","components":[{"name":"staker","type":"address","internalType":"address"},{"name":"delegatedTo","type":"address","internalType":"address"},{"name":"withdrawer","type":"address","internalType":"address"},{"name":"nonce","type":"uint256","internalType":"uint256"},{"name":"startBlock","type":"uint32","internalType":"uint32"},{"name":"shares","type":"uint256","internalType":"uint256"}]}],"outputs":[{"name":"","type":"bytes32","internalType":"bytes32"}],"stateMutability":"pure"},{"type":"function","name":"chainBaseWithdrawalDelayBlock","inputs":[],"outputs":[{"name":"","type":"uint256","internalType":"uint256"}],"stateMutability":"view"},{"type":"function","name":"completeQueuedWithdrawal","inputs":[{"name":"withdrawal","type":"tuple","internalType":"struct IDelegationManager.Withdrawal","components":[{"name":"staker","type":"address","internalType":"address"},{"name":"delegatedTo","type":"address","internalType":"address"},{"name":"withdrawer","type":"address","internalType":"address"},{"name":"nonce","type":"uint256","internalType":"uint256"},{"name":"startBlock","type":"uint32","internalType":"uint32"},{"name":"shares","type":"uint256","internalType":"uint256"}]}],"outputs":[],"stateMutability":"nonpayable"},{"type":"function","name":"completeQueuedWithdrawals","inputs":[{"name":"withdrawals","type":"tuple[]","internalType":"struct IDelegationManager.Withdrawal[]","components":[{"name":"staker","type":"address","internalType":"address"},{"name":"delegatedTo","type":"address","internalType":"address"},{"name":"withdrawer","type":"address","internalType":"address"},{"name":"nonce","type":"uint256","internalType":"uint256"},{"name":"startBlock","type":"uint32","internalType":"uint32"},{"name":"shares","type":"uint256","internalType":"uint256"}]}],"outputs":[],"stateMutability":"nonpayable"},{"type":"function","name":"cpChainBase","inputs":[],"outputs":[{"name":"","type":"address","internalType":"contract ICpChainBase"}],"stateMutability":"view"},{"type":"function","name":"cpChainDepositManager","inputs":[],"outputs":[{"name":"","type":"address","internalType":"contract ICpChainDepositManager"}],"stateMutability":"view"},{"type":"function","name":"cumulativeWithdrawalsQueued","inputs":[{"name":"","type":"address","internalType":"address"}],"outputs":[{"name":"","type":"uint256","internalType":"uint256"}],"stateMutability":"view"},{"type":"function","name":"decreaseDelegatedShares","inputs":[{"name":"staker","type":"address","internalType":"address"},{"name":"shares","type":"uint256","internalType":"uint256"}],"outputs":[],"stateMutability":"nonpayable"},{"type":"function","name":"delegateTo","inputs":[{"name":"operator","type":"address","internalType":"address"},{"name":"approverSignatureAndExpiry","type":"tuple","internalType":"struct ISignatureUtils.SignatureWithExpiry","components":[{"name":"signature","type":"bytes","internalType":"bytes"},{"name":"expiry","type":"uint256","internalType":"uint256"}]},{"name":"approverSalt","type":"bytes32","internalType":"bytes32"}],"outputs":[],"stateMutability":"nonpayable"},{"type":"function","name":"delegateToBySignature","inputs":[{"name":"staker","type":"address","internalType":"address"},{"name":"operator","type":"address","internalType":"address"},{"name":"stakerSignatureAndExpiry","type":"tuple","internalType":"struct ISignatureUtils.SignatureWithExpiry","components":[{"name":"signature","type":"bytes","internalType":"bytes"},{"name":"expiry","type":"uint256","internalType":"uint256"}]},{"name":"approverSignatureAndExpiry","type":"tuple","internalType":"struct ISignatureUtils.SignatureWithExpiry","components":[{"name":"signature","type":"bytes","internalType":"bytes"},{"name":"expiry","type":"uint256","internalType":"uint256"}]},{"name":"approverSalt","type":"bytes32","internalType":"bytes32"}],"outputs":[],"stateMutability":"nonpayable"},{"type":"function","name":"delegatedTo","inputs":[{"name":"","type":"address","internalType":"address"}],"outputs":[{"name":"","type":"address","internalType":"address"}],"stateMutability":"view"},{"type":"function","name":"delegationApprover","inputs":[{"name":"operator","type":"address","internalType":"address"}],"outputs":[{"name":"","type":"address","internalType":"address"}],"stateMutability":"view"},{"type":"function","name":"delegationApproverSaltIsSpent","inputs":[{"name":"","type":"address","internalType":"address"},{"name":"","type":"bytes32","internalType":"bytes32"}],"outputs":[{"name":"","type":"bool","internalType":"bool"}],"stateMutability":"view"},{"type":"function","name":"domainSeparator","inputs":[],"outputs":[{"name":"","type":"bytes32","internalType":"bytes32"}],"stateMutability":"view"},{"type":"function","name":"earningsReceiver","inputs":[{"name":"operator","type":"address","internalType":"address"}],"outputs":[{"name":"","type":"address","internalType":"address"}],"stateMutability":"view"},{"type":"function","name":"getOperatorShares","inputs":[{"name":"operator","type":"address","internalType":"address"}],"outputs":[{"name":"","type":"uint256","internalType":"uint256"}],"stateMutability":"view"},{"type":"function","name":"getStakerSharesOfOperator","inputs":[{"name":"operator","type":"address","internalType":"address"}],"outputs":[{"name":"","type":"address[]","internalType":"address[]"},{"name":"","type":"uint256[]","internalType":"uint256[]"}],"stateMutability":"view"},{"type":"function","name":"increaseDelegatedShares","inputs":[{"name":"staker","type":"address","internalType":"address"},{"name":"shares","type":"uint256","internalType":"uint256"}],"outputs":[],"stateMutability":"nonpayable"},{"type":"function","name":"initialize","inputs":[{"name":"initialOwner","type":"address","internalType":"address"},{"name":"_pauserRegistry","type":"address","internalType":"contract IPauserRegistry"},{"name":"initialPausedStatus","type":"uint256","internalType":"uint256"},{"name":"_withdrawalDelayBlock","type":"uint256","internalType":"uint256"}],"outputs":[],"stateMutability":"nonpayable"},{"type":"function","name":"isDelegated","inputs":[{"name":"staker","type":"address","internalType":"address"}],"outputs":[{"name":"","type":"bool","internalType":"bool"}],"stateMutability":"view"},{"type":"function","name":"isOperator","inputs":[{"name":"operator","type":"address","internalType":"address"}],"outputs":[{"name":"","type":"bool","internalType":"bool"}],"stateMutability":"view"},{"type":"function","name":"modifyOperatorDetails","inputs":[{"name":"newOperatorDetails","type":"tuple","internalType":"struct IDelegationManager.OperatorDetails","components":[{"name":"earningsReceiver","type":"address","internalType":"address"},{"name":"delegationApprover","type":"address","internalType":"address"},{"name":"stakerOptOutWindowBlocks","type":"uint32","internalType":"uint32"}]}],"outputs":[],"stateMutability":"nonpayable"},{"type":"function","name":"operatorDetails","inputs":[{"name":"operator","type":"address","internalType":"address"}],"outputs":[{"name":"","type":"tuple","internalType":"struct IDelegationManager.OperatorDetails","components":[{"name":"earningsReceiver","type":"address","internalType":"address"},{"name":"delegationApprover","type":"address","internalType":"address"},{"name":"stakerOptOutWindowBlocks","type":"uint32","internalType":"uint32"}]}],"stateMutability":"view"},{"type":"function","name":"operatorShares","inputs":[{"name":"","type":"address","internalType":"address"}],"outputs":[{"name":"","type":"uint256","internalType":"uint256"}],"stateMutability":"view"},{"type":"function","name":"owner","inputs":[],"outputs":[{"name":"","type":"address","internalType":"address"}],"stateMutability":"view"},{"type":"function","name":"pause","inputs":[{"name":"newPausedStatus","type":"uint256","internalType":"uint256"}],"outputs":[],"stateMutability":"nonpayable"},{"type":"function","name":"pauseAll","inputs":[],"outputs":[],"stateMutability":"nonpayable"},{"type":"function","name":"paused","inputs":[{"name":"index","type":"uint8","internalType":"uint8"}],"outputs":[{"name":"","type":"bool","internalType":"bool"}],"stateMutability":"view"},{"type":"function","name":"paused","inputs":[],"outputs":[{"name":"","type":"uint256","internalType":"uint256"}],"stateMutability":"view"},{"type":"function","name":"pauserRegistry","inputs":[],"outputs":[{"name":"","type":"address","internalType":"contract IPauserRegistry"}],"stateMutability":"view"},{"type":"function","name":"pendingWithdrawals","inputs":[{"name":"","type":"bytes32","internalType":"bytes32"}],"outputs":[{"name":"","type":"bool","internalType":"bool"}],"stateMutability":"view"},{"type":"function","name":"queueWithdrawals","inputs":[{"name":"queuedWithdrawalParams","type":"tuple[]","internalType":"struct IDelegationManager.QueuedWithdrawalParams[]","components":[{"name":"shares","type":"uint256","internalType":"uint256"},{"name":"withdrawer","type":"address","internalType":"address"}]}],"outputs":[{"name":"","type":"bytes32[]","internalType":"bytes32[]"}],"stateMutability":"nonpayable"},{"type":"function","name":"registerAsOperator","inputs":[{"name":"registeringOperatorDetails","type":"tuple","internalType":"struct IDelegationManager.OperatorDetails","components":[{"name":"earningsReceiver","type":"address","internalType":"address"},{"name":"delegationApprover","type":"address","internalType":"address"},{"name":"stakerOptOutWindowBlocks","type":"uint32","internalType":"uint32"}]},{"name":"nodeUrl","type":"string","internalType":"string"}],"outputs":[],"stateMutability":"nonpayable"},{"type":"function","name":"renounceOwnership","inputs":[],"outputs":[],"stateMutability":"nonpayable"},{"type":"function","name":"setPauserRegistry","inputs":[{"name":"newPauserRegistry","type":"address","internalType":"contract IPauserRegistry"}],"outputs":[],"stateMutability":"nonpayable"},{"type":"function","name":"setStrategyWithdrawalDelayBlocks","inputs":[{"name":"withdrawalDelayBlock","type":"uint256","internalType":"uint256"}],"outputs":[],"stateMutability":"nonpayable"},{"type":"function","name":"slashingManager","inputs":[],"outputs":[{"name":"","type":"address","internalType":"contract ISlashingManager"}],"stateMutability":"view"},{"type":"function","name":"slashingStakingShares","inputs":[{"name":"staker","type":"address","internalType":"address"},{"name":"shares","type":"uint256","internalType":"uint256"}],"outputs":[],"stateMutability":"nonpayable"},{"type":"function","name":"stakerDelegateSharesToOperator","inputs":[{"name":"","type":"address","internalType":"address"},{"name":"","type":"address","internalType":"address"}],"outputs":[{"name":"","type":"uint256","internalType":"uint256"}],"stateMutability":"view"},{"type":"function","name":"stakerList","inputs":[{"name":"","type":"uint256","internalType":"uint256"}],"outputs":[{"name":"","type":"address","internalType":"address"}],"stateMutability":"view"},{"type":"function","name":"stakerNonce","inputs":[{"name":"","type":"address","internalType":"address"}],"outputs":[{"name":"","type":"uint256","internalType":"uint256"}],"stateMutability":"view"},{"type":"function","name":"stakerOptOutWindowBlocks","inputs":[{"name":"operator","type":"address","internalType":"address"}],"outputs":[{"name":"","type":"uint256","internalType":"uint256"}],"stateMutability":"view"},{"type":"function","name":"transferOwnership","inputs":[{"name":"newOwner","type":"address","internalType":"address"}],"outputs":[],"stateMutability":"nonpayable"},{"type":"function","name":"undelegate","inputs":[{"name":"staker","type":"address","internalType":"address"}],"outputs":[{"name":"withdrawalRoot","type":"bytes32","internalType":"bytes32"}],"stateMutability":"nonpayable"},{"type":"function","name":"unpause","inputs":[{"name":"newPausedStatus","type":"uint256","internalType":"uint256"}],"outputs":[],"stateMutability":"nonpayable"},{"type":"function","name":"updateOperatorNodeUrl","inputs":[{"name":"nodeUrl","type":"string","internalType":"string"}],"outputs":[],"stateMutability":"nonpayable"},{"type":"event","name":"Initialized","inputs":[{"name":"version","type":"uint64","indexed":false,"internalType":"uint64"}],"anonymous":false},{"type":"event","name":"MinWithdrawalDelayBlocksSet","inputs":[{"name":"previousValue","type":"uint256","indexed":false,"internalType":"uint256"},{"name":"newValue","type":"uint256","indexed":false,"internalType":"uint256"}],"anonymous":false},{"type":"event","name":"OperatorDetailsModified","inputs":[{"name":"operator","type":"address","indexed":true,"internalType":"address"},{"name":"newOperatorDetails","type":"tuple","indexed":false,"internalType":"struct IDelegationManager.OperatorDetails","components":[{"name":"earningsReceiver","type":"address","internalType":"address"},{"name":"delegationApprover","type":"address","internalType":"address"},{"name":"stakerOptOutWindowBlocks","type":"uint32","internalType":"uint32"}]}],"anonymous":false},{"type":"event","name":"OperatorNodeUrlUpdated","inputs":[{"name":"operator","type":"address","indexed":true,"internalType":"address"},{"name":"metadataURI","type":"string","indexed":false,"internalType":"string"}],"anonymous":false},{"type":"event","name":"OperatorRegistered","inputs":[{"name":"operator","type":"address","indexed":true,"internalType":"address"},{"name":"operatorDetails","type":"tuple","indexed":false,"internalType":"struct IDelegationManager.OperatorDetails","components":[{"name":"earningsReceiver","type":"address","internalType":"address"},{"name":"delegationApprover","type":"address","internalType":"address"},{"name":"stakerOptOutWindowBlocks","type":"uint32","internalType":"uint32"}]}],"anonymous":false},{"type":"event","name":"OperatorSharesDecreased","inputs":[{"name":"operator","type":"address","indexed":true,"internalType":"address"},{"name":"staker","type":"address","indexed":false,"internalType":"address"},{"name":"shares","type":"uint256","indexed":false,"internalType":"uint256"}],"anonymous":false},{"type":"event","name":"OperatorSharesIncreased","inputs":[{"name":"operator","type":"address","indexed":true,"internalType":"address"},{"name":"staker","type":"address","indexed":false,"internalType":"address"},{"name":"shares","type":"uint256","indexed":false,"internalType":"uint256"}],"anonymous":false},{"type":"event","name":"OwnershipTransferred","inputs":[{"name":"previousOwner","type":"address","indexed":true,"internalType":"address"},{"name":"newOwner","type":"address","indexed":true,"internalType":"address"}],"anonymous":false},{"type":"event","name":"Paused","inputs":[{"name":"account","type":"address","indexed":true,"internalType":"address"},{"name":"newPausedStatus","type":"uint256","indexed":false,"internalType":"uint256"}],"anonymous":false},{"type":"event","name":"PauserRegistrySet","inputs":[{"name":"pauserRegistry","type":"address","indexed":false,"internalType":"contract IPauserRegistry"},{"name":"newPauserRegistry","type":"address","indexed":false,"internalType":"contract IPauserRegistry"}],"anonymous":false},{"type":"event","name":"StakerDelegated","inputs":[{"name":"staker","type":"address","indexed":true,"internalType":"address"},{"name":"operator","type":"address","indexed":true,"internalType":"address"}],"anonymous":false},{"type":"event","name":"StakerForceUndelegated","inputs":[{"name":"staker","type":"address","indexed":true,"internalType":"address"},{"name":"operator","type":"address","indexed":true,"internalType":"address"}],"anonymous":false},{"type":"event","name":"StakerUndelegated","inputs":[{"name":"staker","type":"address","indexed":true,"internalType":"address"},{"name":"operator","type":"address","indexed":true,"internalType":"address"}],"anonymous":false},{"type":"event","name":"StrategyWithdrawalDelayBlocksSet","inputs":[{"name":"previousValue","type":"uint256","indexed":false,"internalType":"uint256"},{"name":"newValue","type":"uint256","indexed":false,"internalType":"uint256"}],"anonymous":false},{"type":"event","name":"Unpaused","inputs":[{"name":"account","type":"address","indexed":true,"internalType":"address"},{"name":"newPausedStatus","type":"uint256","indexed":false,"internalType":"uint256"}],"anonymous":false},{"type":"event","name":"WithdrawalCompleted","inputs":[{"name":"operator","type":"address","indexed":false,"internalType":"address"},{"name":"staker","type":"address","indexed":false,"internalType":"address"},{"name":"shares","type":"uint256","indexed":false,"internalType":"uint256"}],"anonymous":false},{"type":"event","name":"WithdrawalMigrated","inputs":[{"name":"oldWithdrawalRoot","type":"bytes32","indexed":false,"internalType":"bytes32"},{"name":"newWithdrawalRoot","type":"bytes32","indexed":false,"internalType":"bytes32"}],"anonymous":false},{"type":"event","name":"WithdrawalQueued","inputs":[{"name":"withdrawalRoot","type":"bytes32","indexed":false,"internalType":"bytes32"},{"name":"withdrawal","type":"tuple","indexed":false,"internalType":"struct IDelegationManager.Withdrawal","components":[{"name":"staker","type":"address","internalType":"address"},{"name":"delegatedTo","type":"address","internalType":"address"},{"name":"withdrawer","type":"address","internalType":"address"},{"name":"nonce","type":"uint256","internalType":"uint256"},{"name":"startBlock","type":"uint32","internalType":"uint32"},{"name":"shares","type":"uint256","internalType":"uint256"}]}],"anonymous":false},{"type":"error","name":"ECDSAInvalidSignature","inputs":[]},{"type":"error","name":"ECDSAInvalidSignatureLength","inputs":[{"name":"length","type":"uint256","internalType":"uint256"}]},{"type":"error","name":"ECDSAInvalidSignatureS","inputs":[{"name":"s","type":"bytes32","internalType":"bytes32"}]},{"type":"error","name":"InvalidInitialization","inputs":[]},{"type":"error","name":"NotInitializing","inputs":[]},{"type":"error","name":"OwnableInvalidOwner","inputs":[{"name":"owner","type":"address","internalType":"address"}]},{"type":"error","name":"OwnableUnauthorizedAccount","inputs":[{"name":"account","type":"address","internalType":"address"}]},{"type":"error","name":"ReentrancyGuardReentrantCall","inputs":[]}],"bytecode":{"object":"0x61010034620001a157601f6200413c38819003918201601f19168301926001600160401b0392909183851183861017620001a5578160609284926040978852833981010312620001a15780516001600160a01b0391908281168103620001a1576020820151918383168303620001a1578501519283168303620001a15760805260a05260c0527ff0c57e16840df040f15088dc2f81fe391c3923bec73e23a9662efc9c229c6a009081549060ff82851c16620001905780808316036200014b575b834660e05251613f829081620001ba823960805181818161081a01528181610cb201528181610d0d015281816110c501528181611518015281816119df01528181611c8e01528181611dd70152818161250301528181613287015261381d015260a05181818161158201526117f4015260c05181818161118001526114ed015260e05181612e9d0152f35b6001600160401b0319909116811790915581519081527fc7f505b2f371ae2175ee4913f4499e1f2633a7b5936321eed1cdaeb6115181d290602090a15f8080620000c0565b835163f92ee8a960e01b8152600490fd5b5f80fd5b634e487b7160e01b5f52604160045260245ffdfe608080604052600436101561001c575b50361561001a575f80fd5b005b5f905f3560e01c90816304a4f97914612962575080630b9f487a146129265780630f589e591461238557806310d67a2f14612303578063136439dd146121ee57806316928365146121aa5780631bbce091146121645780631c8392d714612068578063204f09671461204457806320606b701461200a578063240fe38e14611cf257806326e51dae14611c6757806329c77d4f14611c2f57806332505f0c14611b01578063348e50c614611abf578063371e21e914611a875780633cdeb5e014611a4b5780633e28391d14611a0e5780633ea8c24c146119ca57806342e75c0d1461185d578063433773821461182357806347c0715a146117df5780634fc40b61146117c2578063595c6a671461170d5780635ac86ab7146116da5780635c975abb146116bd5780635f966f141461168457806365da12641461164b578063675a35d1146114c55780636d70f7ae1461147d578063715018a6146114145780637ce823d6146113c75780637f54807114611292578063886f11951461126b5780638bef87b7146111e45780638da5cb5b146111af5780638e5ce3ad1461116a578063a178848414611131578063a7dc6b181461109d578063b7f06ebe1461106e578063bb45fef214611025578063c5e480db14610f90578063c94b511114610f5c578063ca661c0414610f3e578063cd8e9cd314610f05578063cf3c5c6214610b2c578063da8be86414610766578063eb6aa05f14610748578063eb990c5914610526578063eea9064b146104db578063f16172b01461042c578063f2fde38b146103d6578063f698da25146103b35763fabc1cbc0361000f57346103b0576020806003193601126103ac57815460405163755b36bd60e11b81526004803593926001600160a01b03918491849190829085165afa80156103a1576102cb928691610374575b50163314612c74565b60015419821981160361030a577f3582d1828e26bf56bd801502bc021ac0bc8afb57c826e4986b45593c8fad389c90826001556040519283523392a280f35b6084906040519062461bcd60e51b82526004820152603860248201527f5061757361626c652e756e70617573653a20696e76616c696420617474656d7060448201527f7420746f2070617573652066756e6374696f6e616c69747900000000000000006064820152fd5b6103949150843d861161039a575b61038c8183612ae5565b810190612c55565b5f6102c2565b503d610382565b6040513d87823e3d90fd5b5080fd5b80fd5b50346103b057806003193601126103b05760206103ce612e9a565b604051908152f35b50346103b05760203660031901126103b0576103f061299a565b6103f86135de565b6001600160a01b0381161561041357610410906139f6565b80f35b604051631e4fbdf760e01b815260048101839052602490fd5b50346103b05760603660031901126103b057335f908152606b60205260409020546001600160a01b0316156104645761041033612ed2565b60405162461bcd60e51b815260206004820152604360248201527f44656c65676174696f6e4d616e616765722e6d6f646966794f70657261746f7260448201527f44657461696c733a2063616c6c6572206d75737420626520616e206f706572616064820152623a37b960e91b608482015260a490fd5b50346103b05760603660031901126103b0576104f561299a565b602435906001600160401b03821161052257610518610410923690600401612b06565b604435913361316b565b8280fd5b50346103b05760803660031901126103b05761054061299a565b6105486129b0565b604435907ff0c57e16840df040f15088dc2f81fe391c3923bec73e23a9662efc9c229c6a009283549260ff8460401c1615936001600160401b03811680159081610740575b6001149081610736575b15908161072d575b5061071b5767ffffffffffffffff1981166001178655846106fc575b5085546001600160a01b039081161590816106f0575b5015610675576106249281610614926001556040519081527fab40a374bc51de372200a8bc981af8c9ecdc08dfdaef0bb6e09f88f3c616ef3d60203392a261350c565b61061c613d09565b6066556139f6565b61062f606435613616565b610637575080f35b68ff00000000000000001981541690557fc7f505b2f371ae2175ee4913f4499e1f2633a7b5936321eed1cdaeb6115181d2602060405160018152a180f35b60405162461bcd60e51b815260206004820152604760248201527f5061757361626c652e5f696e697469616c697a655061757365723a205f696e6960448201527f7469616c697a6550617573657228292063616e206f6e6c792062652063616c6c6064820152666564206f6e636560c81b608482015260a490fd5b9050831615155f6105d1565b68ffffffffffffffffff1916680100000000000000011785555f6105bb565b60405163f92ee8a960e01b8152600490fd5b9050155f61059f565b303b159150610597565b86915061058d565b50346103b057806003193601126103b0576020606754604051908152f35b50346103b0576020806003193601126103ac5761078161299a565b6001600160a01b038082165f908152606c60205260409020549192911615610ab5576001600160a01b038083165f908152606b602052604090205416610a4b576001600160a01b038281169390919084156109e057848152606c8252826040822054169385331491821592836109d7575b80156109be575b15610953576040516394f649dd60e01b8152600481018890529284846024817f00000000000000000000000000000000000000000000000000000000000000008a165afa938415610948578294610915575b506108ea575b85877ffee30966a256b71e14bc0ebfc94315e28ef4a97a7131a9e2b7a310a73af446768380a3868152606c84526040812080546001600160a01b03191690555b6068548110156108dd57808580896108aa600195612a1d565b929054600393841b1c16146108c2575b505001610891565b6108cb83612a1d565b81939154921b1b19169055855f6108ba565b50906103ce9185816137f3565b85877ff0eddf07e6ea14f388b47e1e94a0f464ecbd9eed4171130e0fc0e99fb4030a8a8380a3610851565b9093508481813d8311610941575b61092d8183612ae5565b8101031261093d5751925f61084b565b5f80fd5b503d610923565b6040513d84823e3d90fd5b60405162461bcd60e51b815260048101859052603d60248201527f44656c65676174696f6e4d616e616765722e756e64656c65676174653a20636160448201527f6c6c65722063616e6e6f7420756e64656c6567617465207374616b65720000006064820152608490fd5b50858152606b84528460016040832001541633146107f9565b508533146107f2565b60405162461bcd60e51b815260048101839052603c60248201527f44656c65676174696f6e4d616e616765722e756e64656c65676174653a20636160448201527f6e6e6f7420756e64656c6567617465207a65726f2061646472657373000000006064820152608490fd5b6084906040519062461bcd60e51b82526004820152603d60248201527f44656c65676174696f6e4d616e616765722e756e64656c65676174653a206f7060448201527f657261746f72732063616e6e6f7420626520756e64656c6567617465640000006064820152fd5b60a4906040519062461bcd60e51b82526004820152604460248201527f44656c65676174696f6e4d616e616765722e756e64656c65676174653a20737460448201527f616b6572206d7573742062652064656c65676174656420746f20756e64656c656064820152636761746560e01b6084820152fd5b50346103b05760203660031901126103b0576001600160401b0380600435116103ac573660236004350112156103ac57600435600401359081116103ac5736602460c083026004350101116103ac57610b83613707565b815b818110610bb4578260017f9b779b17422d0df92223018b32b4d1fa46e071723d6817e2486d003becc55f005580f35b60c08102600435019060c0602319833603011261093d5760405191610bd883612aaf565b610be4602482016129dc565b8352610bf2604482016129dc565b602084015260648101610c04816129dc565b60408501526084820135606085015260a48201359363ffffffff8516850361093d5780856080610c3f93015260c484013560a0820152612e21565b90815f52606f60205260ff60405f20541615610ea1576001600160a01b0390610c6790612db1565b163303610e30575f52606f60205260405f2060ff198154169055335f52606c60205260018060a01b0360405f20541692610cab439163ffffffff6067549116613749565b11610d9a577f00000000000000000000000000000000000000000000000000000000000000006001600160a01b03163b1561093d576040516325e02e5960e21b815233600482015260c482013560248201525f81604481836001600160a01b037f0000000000000000000000000000000000000000000000000000000000000000165af1938415610d8f5760c47fb00382203b46c3b6ad0a2d7af0268e334bd9406256a7c7ba8f7fc8bc47f8cde993606093600197610d80575b5060405192835233602084015201356040820152a101610b85565b610d8990612a81565b5f610d65565b6040513d5f823e3d90fd5b60405162461bcd60e51b815260206004820152606f60248201525f80516020613f0d83398151915260448201527f645769746864726177616c3a207769746864726177616c44656c6179426c6f6360648201527f6b7320706572696f6420686173206e6f74207965742070617373656420666f7260848201526e207468697320636861696e4261736560881b60a482015260c490fd5b60405162461bcd60e51b815260206004820152605060248201525f80516020613f0d83398151915260448201527f645769746864726177616c3a206f6e6c7920776974686472617765722063616e60648201526f1031b7b6b83632ba329030b1ba34b7b760811b608482015260a490fd5b60405162461bcd60e51b815260206004820152604360248201525f80516020613f0d83398151915260448201527f645769746864726177616c3a20616374696f6e206973206e6f7420696e20717560648201526265756560e81b608482015260a490fd5b50346103b05760203660031901126103b0576020906040906001600160a01b03610f2d61299a565b168152606983522054604051908152f35b50346103b057806003193601126103b057602060405162034bc08152f35b50346103b05760803660031901126103b05760206103ce610f7b61299a565b610f836129c6565b6064359160243590612e3f565b50346103b05760203660031901126103b057606090604080610fb061299a565b9280828051610fbe81612a94565b828152826020820152015260018060a01b038094168152606b6020522091815190610fe882612a94565b600181855416948584520154916020810190828416825263ffffffff948591019360a01c1683526040519485525116602084015251166040820152f35b50346103b05760403660031901126103b05760209060ff906040906001600160a01b0361105061299a565b168152606e8452818120602435825284522054166040519015158152f35b50346103b05760203660031901126103b05760ff60406020926004358152606f84522054166040519015158152f35b50346103b05760403660031901126103b0576110b761299a565b6001600160a01b036110ec337f0000000000000000000000000000000000000000000000000000000000000000831614612d48565b6001600160a01b038083165f908152606c60205260409020541661110e578280f35b818161112b93168452606c60205260243591604085205416613c9f565b5f808280f35b50346103b05760203660031901126103b0576020906040906001600160a01b0361115961299a565b168152607083522054604051908152f35b50346103b057806003193601126103b0576040517f00000000000000000000000000000000000000000000000000000000000000006001600160a01b03168152602090f35b50346103b057806003193601126103b0575f80516020613eed833981519152546040516001600160a01b039091168152602090f35b50346103b05760c03660031901126103b05760405161120281612aaf565b6001600160a01b03600435818116810361093d578252602435818116810361093d576020830152604435908116810361093d576040820152606435606082015260843563ffffffff8116810361093d57816103ce916080602094015260a43560a0820152612e21565b50346103b057806003193601126103b057546040516001600160a01b039091168152602090f35b50346103b05760a03660031901126103b0576112ac61299a565b6112b46129b0565b6001600160401b0391906044358381116113c3576112d6903690600401612b06565b926064359081116113c3576112ef903690600401612b06565b9060208401938451421161134e576001600160a01b038416808752606d602052604087205495516104109661134593916001919061132f9087838b612e3f565b938a52606d602052016040892055519085613a4a565b6084359261316b565b60405162461bcd60e51b815260206004820152604160248201527f44656c65676174696f6e4d616e616765722e64656c6567617465546f4279536960448201527f676e61747572653a207374616b6572207369676e6174757265206578706972656064820152601960fa1b608482015260a490fd5b8480fd5b50346103b05760403660031901126103b0576113e161299a565b60406113eb6129b0565b9260018060a01b038093168152606a6020522091165f52602052602060405f2054604051908152f35b50346103b057806003193601126103b05761142d6135de565b5f80516020613eed83398151915280546001600160a01b031981169091555f906001600160a01b03167f8be0079c531659141344cd1fd0a4f28419497f9722a3daafe3b4186f6b6457e08280a380f35b50346103b05760203660031901126103b05760206114bb61149c61299a565b6001600160a01b039081165f908152606b602052604090205416151590565b6040519015158152f35b503461093d57604036600319011261093d576114df61299a565b9060243560018060a01b03807f0000000000000000000000000000000000000000000000000000000000000000169384330361161057817f000000000000000000000000000000000000000000000000000000000000000016803b1561093d5760405163beffbb8960e01b81526001600160a01b03929092166004830152602482018490525f908290604490829084905af18015610d8f576115fd575b509282937f00000000000000000000000000000000000000000000000000000000000000001691823b156115f85760405163f3fef3a360e01b81526001600160a01b0392909216600483015260248201529082908290604490829084905af18015610948576115e85750f35b6115f190612a81565b6103b05780f35b505050fd5b611608919350612a81565b5f915f61157c565b60405162461bcd60e51b815260206004820152601360248201527237b7363ca9b630b9b434b733a6b0b730b3b2b960691b6044820152606490fd5b3461093d57602036600319011261093d5760206001600160a01b038061166f61299a565b165f52606c825260405f205416604051908152f35b3461093d57602036600319011261093d5760206001600160a01b03806116a861299a565b165f52606b825260405f205416604051908152f35b3461093d575f36600319011261093d576020600154604051908152f35b3461093d57602036600319011261093d5760043560ff811680910361093d5760016020911b806001541614604051908152f35b3461093d575f36600319011261093d575f5460405163237dfb4760e11b815233600482015290602090829060249082906001600160a01b03165afa8015610d8f5761175f915f91611793575b50612ceb565b5f19806001556040519081527fab40a374bc51de372200a8bc981af8c9ecdc08dfdaef0bb6e09f88f3c616ef3d60203392a2005b6117b5915060203d6020116117bb575b6117ad8183612ae5565b810190612cd3565b82611759565b503d6117a3565b3461093d575f36600319011261093d5760206040516213c6808152f35b3461093d575f36600319011261093d576040517f00000000000000000000000000000000000000000000000000000000000000006001600160a01b03168152602090f35b3461093d575f36600319011261093d5760206040517f39111bc4a4d688e1f685123d7497d4615370152a8ee4a0593e647bd06ad8bb0b8152f35b3461093d5760208060031936011261093d5761187761299a565b9060685461188481612d8a565b916118926040519384612ae5565b81835261189e82612d8a565b601f19928483019184013683376118b481612d8a565b906118c26040519283612ae5565b8082526118ce81612d8a565b82850195013686376001600160a01b039687165f5b82811061196957505050604051958695604087019060408852518091526060870193915f905b82821061194c5750505050848203858401525180825290820192915f5b82811061193557505050500390f35b835185528695509381019392810192600101611926565b835181168652899850948601949286019260019190910190611909565b80898061197c6001949b97989a9b612a1d565b919054600392831b1c166119908489612dc5565b5261199a83612a1d565b9054911b1c165f52606a875260405f20835f52875260405f20546119be8288612dc5565b520196959392966118e3565b3461093d575f36600319011261093d576040517f00000000000000000000000000000000000000000000000000000000000000006001600160a01b03168152602090f35b3461093d57602036600319011261093d5760206114bb611a2c61299a565b6001600160a01b039081165f908152606c602052604090205416151590565b3461093d57602036600319011261093d5760206001600160a01b0380611a6f61299a565b165f52606b8252600160405f20015416604051908152f35b3461093d57602036600319011261093d576001600160a01b03611aa861299a565b165f526069602052602060405f2054604051908152f35b3461093d57602036600319011261093d5760043560685481101561093d57611ae8602091612a1d565b905460405160039290921b1c6001600160a01b03168152f35b3461093d5760208060031936011261093d576004356001600160401b0380821161093d573660238301121561093d57816004013590811161093d576024820191602436918360061b01011161093d57611b5981612d8a565b90611b676040519283612ae5565b808252611b7381612d8a565b8285019390601f1901368537335f908152606c865260408120546001600160a01b0316905b838110611be15786858760405192839281840190828552518091526040840192915f5b828110611bca57505050500390f35b835185528695509381019392810192600101611bbb565b80611c1e611bfc89611bf66001958989612da1565b01612db1565b611c0b8a611bf6858a8a612da1565b85611c17858a8a612da1565b35926137f3565b611c288288612dc5565b5201611b98565b3461093d57602036600319011261093d576001600160a01b03611c5061299a565b165f52606d602052602060405f2054604051908152f35b3461093d57604036600319011261093d57611c8061299a565b6001600160a01b03611cb5337f0000000000000000000000000000000000000000000000000000000000000000831614612d48565b6001600160a01b038083165f908152606c602052604090205416611cd557005b818161001a93165f52606c6020526024359160405f20541661376a565b3461093d5760c036600319011261093d57611d0b613707565b604051611d1781612aaf565b6001600160a01b03600435818116810361093d57825260243590808216820361093d5760209182840152604435908082169182810361093d57604085015260643560608501526084359163ffffffff83169283810361093d576080860152611d8760a435958660a0820152612e21565b90815f52606f855260ff60405f20541615611fa6573303611f35575f52606f835260405f2060ff198154169055335f52606c8352611dcf8160405f2054169260675490613749565b4310611e9f577f00000000000000000000000000000000000000000000000000000000000000001692833b1561093d576040516325e02e5960e21b815233600482015260248101829052935f908590604490829084905af1928315610d8f577fb00382203b46c3b6ad0a2d7af0268e334bd9406256a7c7ba8f7fc8bc47f8cde994606094611e90575b5060405192835233908301526040820152a160017f9b779b17422d0df92223018b32b4d1fa46e071723d6817e2486d003becc55f0055005b611e9990612a81565b85611e58565b60405162461bcd60e51b815260048101849052606f60248201525f80516020613f0d83398151915260448201527f645769746864726177616c3a207769746864726177616c44656c6179426c6f6360648201527f6b7320706572696f6420686173206e6f74207965742070617373656420666f7260848201526e207468697320636861696e4261736560881b60a482015260c490fd5b60405162461bcd60e51b815260048101859052605060248201525f80516020613f0d83398151915260448201527f645769746864726177616c3a206f6e6c7920776974686472617765722063616e60648201526f1031b7b6b83632ba329030b1ba34b7b760811b608482015260a490fd5b60405162461bcd60e51b815260048101869052604360248201525f80516020613f0d83398151915260448201527f645769746864726177616c3a20616374696f6e206973206e6f7420696e20717560648201526265756560e81b608482015260a490fd5b3461093d575f36600319011261093d5760206040517f8cad95687ba82c2ce50e74f7b754645e5117c3a5bec8151c0726d5857980a8668152f35b3461093d57602036600319011261093d5761205d6135de565b61001a600435613616565b3461093d57602036600319011261093d576004356001600160401b03811161093d576120989036906004016129f0565b335f908152606b60205260409020546001600160a01b0316156120ed576120e87f826d13513a58153c5878cd93af2008d3f8dfc32049e748b380b1b385645e280b91604051918291339583612c2e565b0390a2005b60405162461bcd60e51b815260206004820152604360248201527f44656c65676174696f6e4d616e616765722e7570646174654f70657261746f7260448201527f4e6f646555726c3a2063616c6c6572206d75737420626520616e206f706572616064820152623a37b960e91b608482015260a490fd5b3461093d57606036600319011261093d5760206103ce61218261299a565b61218a6129b0565b6001600160a01b0382165f908152606d8552604090205460443592612e3f565b3461093d57602036600319011261093d576001600160a01b036121cb61299a565b165f52606b602052602063ffffffff600160405f20015460a01c16604051908152f35b3461093d5760208060031936011261093d576004359060248160018060a01b035f54166040519283809263237dfb4760e11b82523360048301525afa8015610d8f57612240915f916122e65750612ceb565b6001548281160361227c577fab40a374bc51de372200a8bc981af8c9ecdc08dfdaef0bb6e09f88f3c616ef3d90826001556040519283523392a2005b6084906040519062461bcd60e51b82526004820152603860248201527f5061757361626c652e70617573653a20696e76616c696420617474656d70742060448201527f746f20756e70617573652066756e6374696f6e616c69747900000000000000006064820152fd5b6122fd9150833d85116117bb576117ad8183612ae5565b84611759565b3461093d57602036600319011261093d5761231c61299a565b5f5460405163755b36bd60e11b81526001600160a01b0392916020908290600490829087165afa928315610d8f5761001a93612361925f916123665750163314612c74565b61350c565b61237f915060203d60201161039a5761038c8183612ae5565b856102c2565b3461093d5736600319016080811261093d5760601361093d57606480356001600160401b03811161093d576123be9036906004016129f0565b919091335f52602091606b835260018060a01b03908160405f2054166128af576123e733612ed2565b604051906123f482612a66565b606082525f858301818152338252606c6020526040909120546001600160a01b031661283b57335f908152606b60205260409020546001600160a01b0316156127c157335f52606b865283600160405f2001541691821515806127b7575b806127b0575b612616575b50505050335f52606c835260405f20336bffffffffffffffffffffffff60a01b825416179055606854600160401b811015612602576124a58160016124c39301606855612a1d565b81546001600160a01b0360039290921b91821b19163390911b179055565b60405133337fc3ee9f2e5fda98e8066a1f745b2df9285f416fe98cf2559cd21484b3d87433045f80a36394f649dd60e01b815233600482015283816024817f000000000000000000000000000000000000000000000000000000000000000086165afa8015610d8f575f906125d3575b61253f9150333361376a565b6040519260043582811680910361093d57845260243591821680920361093d578301526044359063ffffffff821680920361093d57826120e89260407f826d13513a58153c5878cd93af2008d3f8dfc32049e748b380b1b385645e280b9501527f8e8485583a2310d41f7c82b9427d0bd49bad74bb9cff9d3402a29d8f9b28a0e260603392a2604051918291339583612c2e565b508381813d83116125fb575b6125e98183612ae5565b8101031261093d5761253f9051612533565b503d6125df565b634e487b7160e01b5f52604160045260245ffd5b8151421161276057825f52606e875260405f205f8052875260ff60405f2054166127105750906127079291815f52606e875260405f205f8052875260405f20600160ff198254161790555160405190878201927f6d1fdcc5430bb8f0c2b78c3d153f848b370260144c36d3b8b064f06b5a04568e845233604084015233606084015260808301525f60a083015260c082015260c081526126b581612aca565b5190206126ed6126fb6126c6612e9a565b926040519283918a83019586909160429261190160f01b8352600283015260228201520190565b03601f198101835282612ae5565b51902090519033613a4a565b8480808061245d565b86761c9bdd995c94d85b1d08185b1c9958591e481cdc195b9d604a1b6084926040519262461bcd60e51b84526004840152603760248401525f80516020613f2d8339815191526044840152820152fd5b86761c9bdd995c881cda59db985d1d5c9948195e1c1a5c9959604a1b6084926040519262461bcd60e51b84526004840152603760248401525f80516020613f2d8339815191526044840152820152fd5b505f612458565b5082331415612452565b60405162461bcd60e51b815260048101879052604760248201527f44656c65676174696f6e4d616e616765722e5f64656c65676174653a206f706560448201527f7261746f72206973206e6f74207265676973746572656420696e204370436861818401526634b72630bcb2b960c91b608482015260a490fd5b60405162461bcd60e51b815260048101879052604160248201527f44656c65676174696f6e4d616e616765722e5f64656c65676174653a2073746160448201527f6b657220697320616c7265616479206163746976656c792064656c656761746581840152601960fa1b608482015260a490fd5b837f61746f723a206f70657261746f722068617320616c726561647920726567697360a4926040519262461bcd60e51b84526004840152604560248401527f44656c65676174696f6e4d616e616765722e726567697374657241734f7065726044840152820152641d195c995960da1b6084820152fd5b3461093d5760a036600319011261093d5760206103ce61294461299a565b61294c6129b0565b906129556129c6565b6084359260643592612b8b565b3461093d575f36600319011261093d57807f6d1fdcc5430bb8f0c2b78c3d153f848b370260144c36d3b8b064f06b5a04568e60209252f35b600435906001600160a01b038216820361093d57565b602435906001600160a01b038216820361093d57565b604435906001600160a01b038216820361093d57565b35906001600160a01b038216820361093d57565b9181601f8401121561093d578235916001600160401b03831161093d576020838186019501011161093d57565b606854811015612a525760685f527fa2153420d844928b4421650203c77babc8b33d7f2e7b450e2966db0c2209775301905f90565b634e487b7160e01b5f52603260045260245ffd5b604081019081106001600160401b0382111761260257604052565b6001600160401b03811161260257604052565b606081019081106001600160401b0382111761260257604052565b60c081019081106001600160401b0382111761260257604052565b60e081019081106001600160401b0382111761260257604052565b90601f801991011681019081106001600160401b0382111761260257604052565b91909160408184031261093d5760405190612b2082612a66565b81938135916001600160401b039283811161093d5781019180601f8401121561093d57823560209481116126025760405191612b65601f8301601f1916870184612ae5565b81835285828601011161093d5784815f9282809701838601378301015284520135910152565b939192906040519360208501957f6d1fdcc5430bb8f0c2b78c3d153f848b370260144c36d3b8b064f06b5a04568e875260018060a01b039283809216604088015216606086015216608084015260a083015260c082015260c08152612bef81612aca565b5190206126ed612c28612c00612e9a565b92604051928391602083019586909160429261190160f01b8352600283015260228201520190565b51902090565b90918060409360208452816020850152848401375f828201840152601f01601f1916010190565b9081602091031261093d57516001600160a01b038116810361093d5790565b15612c7b57565b60405162461bcd60e51b815260206004820152602a60248201527f6d73672e73656e646572206973206e6f74207065726d697373696f6e6564206160448201526939903ab73830bab9b2b960b11b6064820152608490fd5b9081602091031261093d5751801515810361093d5790565b15612cf257565b60405162461bcd60e51b815260206004820152602860248201527f6d73672e73656e646572206973206e6f74207065726d697373696f6e6564206160448201526739903830bab9b2b960c11b6064820152608490fd5b15612d4f57565b60405162461bcd60e51b815260206004820152601360248201527237b7363ca9ba3930ba32b3bca6b0b730b3b2b960691b6044820152606490fd5b6001600160401b0381116126025760051b60200190565b9190811015612a525760061b0190565b356001600160a01b038116810361093d5790565b8051821015612a525760209160051b010190565b60a08091600180831b0380825116855280602083015116602086015260408201511660408501526060810151606085015263ffffffff60808201511660808501520151910152565b604051612e32602082018093612dd9565b60c08152612c2881612aca565b9192906040519260208401947f39111bc4a4d688e1f685123d7497d4615370152a8ee4a0593e647bd06ad8bb0b865260018060a01b038092166040860152166060840152608083015260a082015260a08152612bef81612aaf565b467f000000000000000000000000000000000000000000000000000000000000000003612ec75760665490565b612ecf613d09565b90565b6004356001600160a01b03818116929183900361093d5782156130e35760443563ffffffff8082169384830361093d576213c680851161303d57831690815f52606b602052600160405f20015460a01c168410612fb6575f52606b602052600160405f20856bffffffffffffffffffffffff60a01b825416178155019060243592831680930361093d578282549163ffffffff60a01b9060a01b16916001600160401b0360c01b1617179055604051928352602083015260408201527ffebe5cd24b2cbc7b065b9d0fdeb904461e4afcff57dd57acda1e7832031ba7ac60603392a2565b60405162461bcd60e51b815260206004820152605360248201527f44656c65676174696f6e4d616e616765722e5f7365744f70657261746f72446560448201527f7461696c733a207374616b65724f70744f757457696e646f77426c6f636b732060648201527218d85b9b9bdd08189948191958dc99585cd959606a1b608482015260a490fd5b60405162461bcd60e51b815260206004820152606c60248201527f44656c65676174696f6e4d616e616765722e5f7365744f70657261746f72446560448201527f7461696c733a207374616b65724f70744f757457696e646f77426c6f636b732060648201527f63616e6e6f74206265203e204d41585f5354414b45525f4f50545f4f55545f5760848201526b494e444f575f424c4f434b5360a01b60a482015260c490fd5b60405162461bcd60e51b815260206004820152605460248201527f44656c65676174696f6e4d616e616765722e5f7365744f70657261746f72446560448201527f7461696c733a2063616e6e6f742073657420606561726e696e677352656365696064820152737665726020746f207a65726f206164647265737360601b608482015260a490fd5b6001600160a01b038082165f908152606c602052604090205493949391929116613497576001600160a01b038082165f908152606b6020526040902054161561341c5760018060a01b0393848216805f52602091606b8352604095876001885f200154169081151580613412575b80613408575b613300575b5050508386165f818152606c845286902080546001600160a01b03191683179055606854600160401b81101561260257839261324a8761322c84600160249601606855612a1d565b90919060018060a01b038084549260031b9316831b921b1916179055565b87519889938492817fc3ee9f2e5fda98e8066a1f745b2df9285f416fe98cf2559cd21484b3d87433045f80a36394f649dd60e01b835260048301527f0000000000000000000000000000000000000000000000000000000000000000165afa9384156132f757505f936132c5575b506132c3935061376a565b565b90925083813d83116132f0575b6132dc8183612ae5565b8101031261093d576132c39251915f6132b8565b503d6132d2565b513d5f823e3d90fd5b848301805142116133b757825f52606e8652885f20825f52865260ff895f205416613366575f838152606e87528981208382528752899020805460ff191660011790555161335e93926133559290888a612b8b565b90519086613a4a565b5f80806131e4565b885162461bcd60e51b815260048101879052603760248201525f80516020613f2d8339815191526044820152761c9bdd995c94d85b1d08185b1c9958591e481cdc195b9d604a1b6064820152608490fd5b885162461bcd60e51b815260048101879052603760248201525f80516020613f2d8339815191526044820152761c9bdd995c881cda59db985d1d5c9948195e1c1a5c9959604a1b6064820152608490fd5b50833314156131df565b50813314156131d9565b60405162461bcd60e51b815260206004820152604760248201527f44656c65676174696f6e4d616e616765722e5f64656c65676174653a206f706560448201527f7261746f72206973206e6f74207265676973746572656420696e20437043686160648201526634b72630bcb2b960c91b608482015260a490fd5b60405162461bcd60e51b815260206004820152604160248201527f44656c65676174696f6e4d616e616765722e5f64656c65676174653a2073746160448201527f6b657220697320616c7265616479206163746976656c792064656c65676174656064820152601960fa1b608482015260a490fd5b6001600160a01b03908116908115613561577f6e9fcd539896fca60e8b0f01dd580233e48a6b0f7df013b89ba7f565869acdb660405f549281519084168152846020820152a16001600160a01b031916175f55565b60405162461bcd60e51b815260206004820152604960248201527f5061757361626c652e5f73657450617573657252656769737472793a206e657760448201527f50617573657252656769737472792063616e6e6f7420626520746865207a65726064820152686f206164647265737360b81b608482015260a490fd5b5f80516020613eed833981519152546001600160a01b031633036135fe57565b60405163118cdaa760e01b8152336004820152602490fd5b6067549062034bc0811161365a577f1b6158e161a32a2f215ef568645e0193089aa98de51e3f84ff1bedb2b1b7a847918160409260675582519182526020820152a1565b60405162461bcd60e51b815260206004820152607360248201527f44656c65676174696f6e4d616e616765722e5f7365745374726174656779576960448201527f746864726177616c44656c6179426c6f636b733a205f7769746864726177616c60648201527f44656c6179426c6f636b732063616e6e6f74206265203e204d41585f5749544860848201527244524157414c5f44454c41595f424c4f434b5360681b60a482015260c490fd5b7f9b779b17422d0df92223018b32b4d1fa46e071723d6817e2486d003becc55f0060028154146137375760029055565b604051633ee5aeb560e01b8152600490fd5b9190820180921161375657565b634e487b7160e01b5f52601160045260245ffd5b917f9a61813b471b5a3bad7bf5dd4feba4df891a682ae28e7114f45e482c5900b72e9160018060a01b0380941693845f52606960205260405f206137af848254613749565b9055845f52606a60205260405f209082165f5260205260405f206137d4838254613749565b9055604080516001600160a01b039290921682526020820192909252a2565b5f936001600160a01b03808316949293919285156139725781831692848685613961575b505050817f000000000000000000000000000000000000000000000000000000000000000016803b1561093d576040805163beffbb8960e01b81526001600160a01b039790971660048801526024870186905295905f908290604490829084905af1801561395757613944575b508587526070602052848720805493905f19851461393057927f729e18845ad6e11aca72d9186f0964b995424b62fbacad242ee7c0122ed73717979592859260e09895600161392c980190558551976138dc89612aaf565b885260208801521683860152606085015263ffffffff4316608085015260a08401528061390884612e21565b96878152606f60205220600160ff1982541617905551918583526020830190612dd9565ba190565b634e487b7160e01b89526011600452602489fd5b61394f919750612a81565b5f955f613884565b86513d5f823e3d90fd5b61396a92613c9f565b5f8486613817565b60405162461bcd60e51b815260206004820152605060248201527f44656c65676174696f6e4d616e616765722e5f72656d6f76655368617265734160448201527f6e6451756575655769746864726177616c3a207374616b65722063616e6e6f7460648201526f206265207a65726f206164647265737360801b608482015260a490fd5b5f80516020613eed83398151915280546001600160a01b039283166001600160a01b0319821681179092559091167f8be0079c531659141344cd1fd0a4f28419497f9722a3daafe3b4186f6b6457e05f80a3565b909190803b15613bac576040518092630b135d3f60e11b948583526004830152604060248301528051908160448401525f5b828110613b945750509181606481855f8360209884010152601f8019910116810103019160018060a01b03165afa908115610d8f575f91613b51575b506001600160e01b03191603613aca57565b60405162461bcd60e51b815260206004820152605360248201527f454950313237315369676e61747572655574696c732e636865636b5369676e6160448201527f747572655f454950313237313a2045524331323731207369676e6174757265206064820152721d995c9a599a58d85d1a5bdb8819985a5b1959606a1b608482015260a490fd5b90506020813d602011613b8c575b81613b6c60209383612ae5565b8101031261093d57516001600160e01b03198116810361093d575f613ab8565b3d9150613b5f565b60208282018101516064888401015286945001613a7c565b90613bfa90613c039360405160208101917f19457468657265756d205369676e6564204d6573736167653a0a3332000000008352603c820152603c8152613bf281612a94565b519020613dad565b90939193613de7565b6001600160a01b03908116911603613c1757565b60405162461bcd60e51b815260206004820152604760248201527f454950313237315369676e61747572655574696c732e636865636b5369676e6160448201527f747572655f454950313237313a207369676e6174757265206e6f742066726f6d6064820152661039b4b3b732b960c91b608482015260a490fd5b9190820391821161375657565b917f37d3e849079809fe10f0b9db0efe433e86af66f8e95978b12b8d5468f32057499160018060a01b0380941693845f52606960205260405f20613ce4848254613c92565b9055845f52606a60205260405f209082165f5260205260405f206137d4838254613c92565b6b21b821b430b4b72630bcb2b960a11b6020604051613d2781612a66565b600c8152015260405160208101907f8cad95687ba82c2ce50e74f7b754645e5117c3a5bec8151c0726d5857980a86682527fdb9781486a2a80a40f2a84bb9833326cb40ad55e3f92aed07afc487c21dd6aa660408201524660608201523060808201526080815260a081018181106001600160401b038211176126025760405251902090565b8151919060418303613ddd57613dd69250602082015190606060408401519301515f1a90613e6a565b9192909190565b50505f9160029190565b6004811015613e565780613df9575050565b60018103613e135760405163f645eedf60e01b8152600490fd5b60028103613e345760405163fce698f760e01b815260048101839052602490fd5b600314613e3e5750565b602490604051906335e2f38360e21b82526004820152fd5b634e487b7160e01b5f52602160045260245ffd5b91907f7fffffffffffffffffffffffffffffff5d576e7357a4501ddfe92f46681b20a08411613ee1579160209360809260ff5f9560405194855216868401526040830152606082015282805260015afa15610d8f575f516001600160a01b03811615613ed757905f905f90565b505f906001905f90565b5050505f916003919056fe9016d09d72d40fdae2fd8ceac6b6234c7706214fd39c1cd1e609a0528c19930044656c65676174696f6e4d616e616765722e5f636f6d706c657465517565756544656c65676174696f6e4d616e616765722e5f64656c65676174653a20617070a2646970667358221220148f6fe9e7c5d0dcc673021cde07e2bf781238c752792170958ea69bdc9f15d764736f6c63430008180033","linkReferences":{}},"methodIdentifiers":{"DELEGATION_APPROVAL_TYPEHASH()":"04a4f979","DOMAIN_TYPEHASH()":"20606b70","MAX_STAKER_OPT_OUT_WINDOW_BLOCKS()":"4fc40b61","MAX_WITHDRAWAL_DELAY_BLOCKS()":"ca661c04","STAKER_DELEGATION_TYPEHASH()":"43377382","calculateCurrentStakerDelegationDigestHash(address,address,uint256)":"1bbce091","calculateDelegationApprovalDigestHash(address,address,address,bytes32,uint256)":"0b9f487a","calculateStakerDelegationDigestHash(address,uint256,address,uint256)":"c94b5111","calculateWithdrawalRoot((address,address,address,uint256,uint32,uint256))":"8bef87b7","chainBaseWithdrawalDelayBlock()":"eb6aa05f","completeQueuedWithdrawal((address,address,address,uint256,uint32,uint256))":"240fe38e","completeQueuedWithdrawals((address,address,address,uint256,uint32,uint256)[])":"cf3c5c62","cpChainBase()":"47c0715a","cpChainDepositManager()":"3ea8c24c","cumulativeWithdrawalsQueued(address)":"a1788484","decreaseDelegatedShares(address,uint256)":"a7dc6b18","delegateTo(address,(bytes,uint256),bytes32)":"eea9064b","delegateToBySignature(address,address,(bytes,uint256),(bytes,uint256),bytes32)":"7f548071","delegatedTo(address)":"65da1264","delegationApprover(address)":"3cdeb5e0","delegationApproverSaltIsSpent(address,bytes32)":"bb45fef2","domainSeparator()":"f698da25","earningsReceiver(address)":"5f966f14","getOperatorShares(address)":"cd8e9cd3","getStakerSharesOfOperator(address)":"42e75c0d","increaseDelegatedShares(address,uint256)":"26e51dae","initialize(address,address,uint256,uint256)":"eb990c59","isDelegated(address)":"3e28391d","isOperator(address)":"6d70f7ae","modifyOperatorDetails((address,address,uint32))":"f16172b0","operatorDetails(address)":"c5e480db","operatorShares(address)":"371e21e9","owner()":"8da5cb5b","pause(uint256)":"136439dd","pauseAll()":"595c6a67","paused()":"5c975abb","paused(uint8)":"5ac86ab7","pauserRegistry()":"886f1195","pendingWithdrawals(bytes32)":"b7f06ebe","queueWithdrawals((uint256,address)[])":"32505f0c","registerAsOperator((address,address,uint32),string)":"0f589e59","renounceOwnership()":"715018a6","setPauserRegistry(address)":"10d67a2f","setStrategyWithdrawalDelayBlocks(uint256)":"204f0967","slashingManager()":"8e5ce3ad","slashingStakingShares(address,uint256)":"675a35d1","stakerDelegateSharesToOperator(address,address)":"7ce823d6","stakerList(uint256)":"348e50c6","stakerNonce(address)":"29c77d4f","stakerOptOutWindowBlocks(address)":"16928365","transferOwnership(address)":"f2fde38b","undelegate(address)":"da8be864","unpause(uint256)":"fabc1cbc","updateOperatorNodeUrl(string)":"1c8392d7"},"id":58}