{"abi":[{"type":"constructor","inputs":[],"stateMutability":"nonpayable"},{"type":"receive","stateMutability":"payable"},{"type":"function","name":"DELEGATION_APPROVAL_TYPEHASH","inputs":[],"outputs":[{"name":"","type":"bytes32","internalType":"bytes32"}],"stateMutability":"view"},{"type":"function","name":"DOMAIN_TYPEHASH","inputs":[],"outputs":[{"name":"","type":"bytes32","internalType":"bytes32"}],"stateMutability":"view"},{"type":"function","name":"MAX_STAKER_OPT_OUT_WINDOW_BLOCKS","inputs":[],"outputs":[{"name":"","type":"uint256","internalType":"uint256"}],"stateMutability":"view"},{"type":"function","name":"MAX_WITHDRAWAL_DELAY_BLOCKS","inputs":[],"outputs":[{"name":"","type":"uint256","internalType":"uint256"}],"stateMutability":"view"},{"type":"function","name":"STAKER_DELEGATION_TYPEHASH","inputs":[],"outputs":[{"name":"","type":"bytes32","internalType":"bytes32"}],"stateMutability":"view"},{"type":"function","name":"calculateCurrentStakerDelegationDigestHash","inputs":[{"name":"staker","type":"address","internalType":"address"},{"name":"operator","type":"address","internalType":"address"},{"name":"expiry","type":"uint256","internalType":"uint256"}],"outputs":[{"name":"","type":"bytes32","internalType":"bytes32"}],"stateMutability":"view"},{"type":"function","name":"calculateDelegationApprovalDigestHash","inputs":[{"name":"staker","type":"address","internalType":"address"},{"name":"operator","type":"address","internalType":"address"},{"name":"_delegationApprover","type":"address","internalType":"address"},{"name":"approverSalt","type":"bytes32","internalType":"bytes32"},{"name":"expiry","type":"uint256","internalType":"uint256"}],"outputs":[{"name":"","type":"bytes32","internalType":"bytes32"}],"stateMutability":"view"},{"type":"function","name":"calculateStakerDelegationDigestHash","inputs":[{"name":"staker","type":"address","internalType":"address"},{"name":"_stakerNonce","type":"uint256","internalType":"uint256"},{"name":"operator","type":"address","internalType":"address"},{"name":"expiry","type":"uint256","internalType":"uint256"}],"outputs":[{"name":"","type":"bytes32","internalType":"bytes32"}],"stateMutability":"view"},{"type":"function","name":"calculateWithdrawalRoot","inputs":[{"name":"withdrawal","type":"tuple","internalType":"struct IDelegationManager.Withdrawal","components":[{"name":"staker","type":"address","internalType":"address"},{"name":"delegatedTo","type":"address","internalType":"address"},{"name":"withdrawer","type":"address","internalType":"address"},{"name":"nonce","type":"uint256","internalType":"uint256"},{"name":"startBlock","type":"uint32","internalType":"uint32"},{"name":"shares","type":"uint256","internalType":"uint256"}]}],"outputs":[{"name":"","type":"bytes32","internalType":"bytes32"}],"stateMutability":"pure"},{"type":"function","name":"chainBaseWithdrawalDelayBlock","inputs":[],"outputs":[{"name":"","type":"uint256","internalType":"uint256"}],"stateMutability":"view"},{"type":"function","name":"completeQueuedWithdrawal","inputs":[{"name":"withdrawal","type":"tuple","internalType":"struct IDelegationManager.Withdrawal","components":[{"name":"staker","type":"address","internalType":"address"},{"name":"delegatedTo","type":"address","internalType":"address"},{"name":"withdrawer","type":"address","internalType":"address"},{"name":"nonce","type":"uint256","internalType":"uint256"},{"name":"startBlock","type":"uint32","internalType":"uint32"},{"name":"shares","type":"uint256","internalType":"uint256"}]}],"outputs":[],"stateMutability":"nonpayable"},{"type":"function","name":"completeQueuedWithdrawals","inputs":[{"name":"withdrawals","type":"tuple[]","internalType":"struct IDelegationManager.Withdrawal[]","components":[{"name":"staker","type":"address","internalType":"address"},{"name":"delegatedTo","type":"address","internalType":"address"},{"name":"withdrawer","type":"address","internalType":"address"},{"name":"nonce","type":"uint256","internalType":"uint256"},{"name":"startBlock","type":"uint32","internalType":"uint32"},{"name":"shares","type":"uint256","internalType":"uint256"}]}],"outputs":[],"stateMutability":"nonpayable"},{"type":"function","name":"cpChainBase","inputs":[],"outputs":[{"name":"","type":"address","internalType":"contract ICpChainBase"}],"stateMutability":"view"},{"type":"function","name":"cpChainDepositManager","inputs":[],"outputs":[{"name":"","type":"address","internalType":"contract ICpChainDepositManager"}],"stateMutability":"view"},{"type":"function","name":"cumulativeWithdrawalsQueued","inputs":[{"name":"","type":"address","internalType":"address"}],"outputs":[{"name":"","type":"uint256","internalType":"uint256"}],"stateMutability":"view"},{"type":"function","name":"decreaseDelegatedShares","inputs":[{"name":"staker","type":"address","internalType":"address"},{"name":"shares","type":"uint256","internalType":"uint256"}],"outputs":[],"stateMutability":"nonpayable"},{"type":"function","name":"delegateTo","inputs":[{"name":"operator","type":"address","internalType":"address"},{"name":"approverSignatureAndExpiry","type":"tuple","internalType":"struct ISignatureUtils.SignatureWithExpiry","components":[{"name":"signature","type":"bytes","internalType":"bytes"},{"name":"expiry","type":"uint256","internalType":"uint256"}]},{"name":"approverSalt","type":"bytes32","internalType":"bytes32"}],"outputs":[],"stateMutability":"nonpayable"},{"type":"function","name":"delegateToBySignature","inputs":[{"name":"staker","type":"address","internalType":"address"},{"name":"operator","type":"address","internalType":"address"},{"name":"stakerSignatureAndExpiry","type":"tuple","internalType":"struct ISignatureUtils.SignatureWithExpiry","components":[{"name":"signature","type":"bytes","internalType":"bytes"},{"name":"expiry","type":"uint256","internalType":"uint256"}]},{"name":"approverSignatureAndExpiry","type":"tuple","internalType":"struct ISignatureUtils.SignatureWithExpiry","components":[{"name":"signature","type":"bytes","internalType":"bytes"},{"name":"expiry","type":"uint256","internalType":"uint256"}]},{"name":"approverSalt","type":"bytes32","internalType":"bytes32"}],"outputs":[],"stateMutability":"nonpayable"},{"type":"function","name":"delegatedTo","inputs":[{"name":"","type":"address","internalType":"address"}],"outputs":[{"name":"","type":"address","internalType":"address"}],"stateMutability":"view"},{"type":"function","name":"delegationApprover","inputs":[{"name":"operator","type":"address","internalType":"address"}],"outputs":[{"name":"","type":"address","internalType":"address"}],"stateMutability":"view"},{"type":"function","name":"delegationApproverSaltIsSpent","inputs":[{"name":"","type":"address","internalType":"address"},{"name":"","type":"bytes32","internalType":"bytes32"}],"outputs":[{"name":"","type":"bool","internalType":"bool"}],"stateMutability":"view"},{"type":"function","name":"domainSeparator","inputs":[],"outputs":[{"name":"","type":"bytes32","internalType":"bytes32"}],"stateMutability":"view"},{"type":"function","name":"earningsReceiver","inputs":[{"name":"operator","type":"address","internalType":"address"}],"outputs":[{"name":"","type":"address","internalType":"address"}],"stateMutability":"view"},{"type":"function","name":"getOperatorShares","inputs":[{"name":"operator","type":"address","internalType":"address"}],"outputs":[{"name":"","type":"uint256","internalType":"uint256"}],"stateMutability":"view"},{"type":"function","name":"getStakerSharesOfOperator","inputs":[{"name":"operator","type":"address","internalType":"address"}],"outputs":[{"name":"","type":"address[]","internalType":"address[]"},{"name":"","type":"uint256[]","internalType":"uint256[]"}],"stateMutability":"view"},{"type":"function","name":"increaseDelegatedShares","inputs":[{"name":"staker","type":"address","internalType":"address"},{"name":"shares","type":"uint256","internalType":"uint256"}],"outputs":[],"stateMutability":"nonpayable"},{"type":"function","name":"initialize","inputs":[{"name":"initialOwner","type":"address","internalType":"address"},{"name":"_pauserRegistry","type":"address","internalType":"contract IPauserRegistry"},{"name":"initialPausedStatus","type":"uint256","internalType":"uint256"},{"name":"_withdrawalDelayBlock","type":"uint256","internalType":"uint256"},{"name":"_cpChainDepositManager","type":"address","internalType":"contract ICpChainDepositManager"},{"name":"_cpChainBase","type":"address","internalType":"contract ICpChainBase"},{"name":"_slashingManager","type":"address","internalType":"contract ISlashingManager"}],"outputs":[],"stateMutability":"nonpayable"},{"type":"function","name":"isDelegated","inputs":[{"name":"staker","type":"address","internalType":"address"}],"outputs":[{"name":"","type":"bool","internalType":"bool"}],"stateMutability":"view"},{"type":"function","name":"isOperator","inputs":[{"name":"operator","type":"address","internalType":"address"}],"outputs":[{"name":"","type":"bool","internalType":"bool"}],"stateMutability":"view"},{"type":"function","name":"modifyOperatorDetails","inputs":[{"name":"newOperatorDetails","type":"tuple","internalType":"struct IDelegationManager.OperatorDetails","components":[{"name":"earningsReceiver","type":"address","internalType":"address"},{"name":"delegationApprover","type":"address","internalType":"address"},{"name":"stakerOptOutWindowBlocks","type":"uint32","internalType":"uint32"}]}],"outputs":[],"stateMutability":"nonpayable"},{"type":"function","name":"operatorDetails","inputs":[{"name":"operator","type":"address","internalType":"address"}],"outputs":[{"name":"","type":"tuple","internalType":"struct IDelegationManager.OperatorDetails","components":[{"name":"earningsReceiver","type":"address","internalType":"address"},{"name":"delegationApprover","type":"address","internalType":"address"},{"name":"stakerOptOutWindowBlocks","type":"uint32","internalType":"uint32"}]}],"stateMutability":"view"},{"type":"function","name":"operatorShares","inputs":[{"name":"","type":"address","internalType":"address"}],"outputs":[{"name":"","type":"uint256","internalType":"uint256"}],"stateMutability":"view"},{"type":"function","name":"owner","inputs":[],"outputs":[{"name":"","type":"address","internalType":"address"}],"stateMutability":"view"},{"type":"function","name":"pause","inputs":[{"name":"newPausedStatus","type":"uint256","internalType":"uint256"}],"outputs":[],"stateMutability":"nonpayable"},{"type":"function","name":"pauseAll","inputs":[],"outputs":[],"stateMutability":"nonpayable"},{"type":"function","name":"paused","inputs":[{"name":"index","type":"uint8","internalType":"uint8"}],"outputs":[{"name":"","type":"bool","internalType":"bool"}],"stateMutability":"view"},{"type":"function","name":"paused","inputs":[],"outputs":[{"name":"","type":"uint256","internalType":"uint256"}],"stateMutability":"view"},{"type":"function","name":"pauserRegistry","inputs":[],"outputs":[{"name":"","type":"address","internalType":"contract IPauserRegistry"}],"stateMutability":"view"},{"type":"function","name":"pendingWithdrawals","inputs":[{"name":"","type":"bytes32","internalType":"bytes32"}],"outputs":[{"name":"","type":"bool","internalType":"bool"}],"stateMutability":"view"},{"type":"function","name":"queueWithdrawals","inputs":[{"name":"queuedWithdrawalParams","type":"tuple[]","internalType":"struct IDelegationManager.QueuedWithdrawalParams[]","components":[{"name":"shares","type":"uint256","internalType":"uint256"},{"name":"withdrawer","type":"address","internalType":"address"}]}],"outputs":[{"name":"","type":"bytes32[]","internalType":"bytes32[]"}],"stateMutability":"nonpayable"},{"type":"function","name":"registerAsOperator","inputs":[{"name":"registeringOperatorDetails","type":"tuple","internalType":"struct IDelegationManager.OperatorDetails","components":[{"name":"earningsReceiver","type":"address","internalType":"address"},{"name":"delegationApprover","type":"address","internalType":"address"},{"name":"stakerOptOutWindowBlocks","type":"uint32","internalType":"uint32"}]},{"name":"nodeUrl","type":"string","internalType":"string"}],"outputs":[],"stateMutability":"nonpayable"},{"type":"function","name":"renounceOwnership","inputs":[],"outputs":[],"stateMutability":"nonpayable"},{"type":"function","name":"setCpChainBaseWithdrawalDelayBlocks","inputs":[{"name":"withdrawalDelayBlock","type":"uint256","internalType":"uint256"}],"outputs":[],"stateMutability":"nonpayable"},{"type":"function","name":"setPauserRegistry","inputs":[{"name":"newPauserRegistry","type":"address","internalType":"contract IPauserRegistry"}],"outputs":[],"stateMutability":"nonpayable"},{"type":"function","name":"slashingManager","inputs":[],"outputs":[{"name":"","type":"address","internalType":"contract ISlashingManager"}],"stateMutability":"view"},{"type":"function","name":"slashingStakingShares","inputs":[{"name":"staker","type":"address","internalType":"address"},{"name":"shares","type":"uint256","internalType":"uint256"}],"outputs":[],"stateMutability":"nonpayable"},{"type":"function","name":"stakerDelegateSharesToOperator","inputs":[{"name":"","type":"address","internalType":"address"},{"name":"","type":"address","internalType":"address"}],"outputs":[{"name":"","type":"uint256","internalType":"uint256"}],"stateMutability":"view"},{"type":"function","name":"stakerList","inputs":[{"name":"","type":"uint256","internalType":"uint256"}],"outputs":[{"name":"","type":"address","internalType":"address"}],"stateMutability":"view"},{"type":"function","name":"stakerNonce","inputs":[{"name":"","type":"address","internalType":"address"}],"outputs":[{"name":"","type":"uint256","internalType":"uint256"}],"stateMutability":"view"},{"type":"function","name":"stakerOptOutWindowBlocks","inputs":[{"name":"operator","type":"address","internalType":"address"}],"outputs":[{"name":"","type":"uint256","internalType":"uint256"}],"stateMutability":"view"},{"type":"function","name":"transferOwnership","inputs":[{"name":"newOwner","type":"address","internalType":"address"}],"outputs":[],"stateMutability":"nonpayable"},{"type":"function","name":"undelegate","inputs":[{"name":"staker","type":"address","internalType":"address"}],"outputs":[{"name":"withdrawalRoot","type":"bytes32","internalType":"bytes32"}],"stateMutability":"nonpayable"},{"type":"function","name":"unpause","inputs":[{"name":"newPausedStatus","type":"uint256","internalType":"uint256"}],"outputs":[],"stateMutability":"nonpayable"},{"type":"function","name":"updateOperatorNodeUrl","inputs":[{"name":"nodeUrl","type":"string","internalType":"string"}],"outputs":[],"stateMutability":"nonpayable"},{"type":"event","name":"Initialized","inputs":[{"name":"version","type":"uint64","indexed":false,"internalType":"uint64"}],"anonymous":false},{"type":"event","name":"MinWithdrawalDelayBlocksSet","inputs":[{"name":"previousValue","type":"uint256","indexed":false,"internalType":"uint256"},{"name":"newValue","type":"uint256","indexed":false,"internalType":"uint256"}],"anonymous":false},{"type":"event","name":"OperatorDetailsModified","inputs":[{"name":"operator","type":"address","indexed":true,"internalType":"address"},{"name":"newOperatorDetails","type":"tuple","indexed":false,"internalType":"struct IDelegationManager.OperatorDetails","components":[{"name":"earningsReceiver","type":"address","internalType":"address"},{"name":"delegationApprover","type":"address","internalType":"address"},{"name":"stakerOptOutWindowBlocks","type":"uint32","internalType":"uint32"}]}],"anonymous":false},{"type":"event","name":"OperatorNodeUrlUpdated","inputs":[{"name":"operator","type":"address","indexed":true,"internalType":"address"},{"name":"metadataURI","type":"string","indexed":false,"internalType":"string"}],"anonymous":false},{"type":"event","name":"OperatorRegistered","inputs":[{"name":"operator","type":"address","indexed":true,"internalType":"address"},{"name":"operatorDetails","type":"tuple","indexed":false,"internalType":"struct IDelegationManager.OperatorDetails","components":[{"name":"earningsReceiver","type":"address","internalType":"address"},{"name":"delegationApprover","type":"address","internalType":"address"},{"name":"stakerOptOutWindowBlocks","type":"uint32","internalType":"uint32"}]}],"anonymous":false},{"type":"event","name":"OperatorSharesDecreased","inputs":[{"name":"operator","type":"address","indexed":true,"internalType":"address"},{"name":"staker","type":"address","indexed":false,"internalType":"address"},{"name":"shares","type":"uint256","indexed":false,"internalType":"uint256"}],"anonymous":false},{"type":"event","name":"OperatorSharesIncreased","inputs":[{"name":"operator","type":"address","indexed":true,"internalType":"address"},{"name":"staker","type":"address","indexed":false,"internalType":"address"},{"name":"shares","type":"uint256","indexed":false,"internalType":"uint256"}],"anonymous":false},{"type":"event","name":"OwnershipTransferred","inputs":[{"name":"previousOwner","type":"address","indexed":true,"internalType":"address"},{"name":"newOwner","type":"address","indexed":true,"internalType":"address"}],"anonymous":false},{"type":"event","name":"Paused","inputs":[{"name":"account","type":"address","indexed":true,"internalType":"address"},{"name":"newPausedStatus","type":"uint256","indexed":false,"internalType":"uint256"}],"anonymous":false},{"type":"event","name":"PauserRegistrySet","inputs":[{"name":"pauserRegistry","type":"address","indexed":false,"internalType":"contract IPauserRegistry"},{"name":"newPauserRegistry","type":"address","indexed":false,"internalType":"contract IPauserRegistry"}],"anonymous":false},{"type":"event","name":"StakerDelegated","inputs":[{"name":"staker","type":"address","indexed":true,"internalType":"address"},{"name":"operator","type":"address","indexed":true,"internalType":"address"}],"anonymous":false},{"type":"event","name":"StakerForceUndelegated","inputs":[{"name":"staker","type":"address","indexed":true,"internalType":"address"},{"name":"operator","type":"address","indexed":true,"internalType":"address"}],"anonymous":false},{"type":"event","name":"StakerUndelegated","inputs":[{"name":"staker","type":"address","indexed":true,"internalType":"address"},{"name":"operator","type":"address","indexed":true,"internalType":"address"}],"anonymous":false},{"type":"event","name":"StrategyWithdrawalDelayBlocksSet","inputs":[{"name":"previousValue","type":"uint256","indexed":false,"internalType":"uint256"},{"name":"newValue","type":"uint256","indexed":false,"internalType":"uint256"}],"anonymous":false},{"type":"event","name":"Unpaused","inputs":[{"name":"account","type":"address","indexed":true,"internalType":"address"},{"name":"newPausedStatus","type":"uint256","indexed":false,"internalType":"uint256"}],"anonymous":false},{"type":"event","name":"WithdrawalCompleted","inputs":[{"name":"operator","type":"address","indexed":false,"internalType":"address"},{"name":"staker","type":"address","indexed":false,"internalType":"address"},{"name":"shares","type":"uint256","indexed":false,"internalType":"uint256"}],"anonymous":false},{"type":"event","name":"WithdrawalMigrated","inputs":[{"name":"oldWithdrawalRoot","type":"bytes32","indexed":false,"internalType":"bytes32"},{"name":"newWithdrawalRoot","type":"bytes32","indexed":false,"internalType":"bytes32"}],"anonymous":false},{"type":"event","name":"WithdrawalQueued","inputs":[{"name":"withdrawalRoot","type":"bytes32","indexed":false,"internalType":"bytes32"},{"name":"withdrawal","type":"tuple","indexed":false,"internalType":"struct IDelegationManager.Withdrawal","components":[{"name":"staker","type":"address","internalType":"address"},{"name":"delegatedTo","type":"address","internalType":"address"},{"name":"withdrawer","type":"address","internalType":"address"},{"name":"nonce","type":"uint256","internalType":"uint256"},{"name":"startBlock","type":"uint32","internalType":"uint32"},{"name":"shares","type":"uint256","internalType":"uint256"}]}],"anonymous":false},{"type":"error","name":"ECDSAInvalidSignature","inputs":[]},{"type":"error","name":"ECDSAInvalidSignatureLength","inputs":[{"name":"length","type":"uint256","internalType":"uint256"}]},{"type":"error","name":"ECDSAInvalidSignatureS","inputs":[{"name":"s","type":"bytes32","internalType":"bytes32"}]},{"type":"error","name":"InvalidInitialization","inputs":[]},{"type":"error","name":"NotInitializing","inputs":[]},{"type":"error","name":"OwnableInvalidOwner","inputs":[{"name":"owner","type":"address","internalType":"address"}]},{"type":"error","name":"OwnableUnauthorizedAccount","inputs":[{"name":"account","type":"address","internalType":"address"}]},{"type":"error","name":"ReentrancyGuardReentrantCall","inputs":[]}],"bytecode":{"object":"0x60808060405234620000bd577ff0c57e16840df040f15088dc2f81fe391c3923bec73e23a9662efc9c229c6a009081549060ff8260401c16620000ae57506001600160401b036002600160401b03198282160162000068575b604051613ed29081620000c28239f35b6001600160401b031990911681179091556040519081527fc7f505b2f371ae2175ee4913f4499e1f2633a7b5936321eed1cdaeb6115181d290602090a15f808062000058565b63f92ee8a960e01b8152600490fd5b5f80fdfe6080604081815260049081361015610021575b505050361561001f575f80fd5b005b5f925f3560e01c90816304a4f979146128c3575080630b9f487a146128855780630f589e591461232557806310d67a2f14612297578063136439dd14612182578063169283651461213f5780631bbce091146120f85780631c8392d714611ffb57806320606b7014611fc1578063240fe38e14611cb857806326e51dae14611c4957806329c77d4f14611c1257806332505f0c14611a79578063348e50c614611a39578063371e21e914611a025780633cdeb5e0146119c65780633e28391d146119875780633e785737146117165780633ea8c24c146116ee57806342e75c0d14611580578063433773821461154657806347c0715a1461151e5780634fc40b6114611501578063595c6a67146114415780635ac86ab71461140e5780635c975abb146113f05780635f966f14146113b757806365da12641461137e578063675a35d1146112335780636d70f7ae146111ea578063715018a6146111815780637ce823d6146111345780637f54807114611009578063886f119514610fe15780638bef87b714610f575780638da5cb5b14610f225780638e5ce3ad14610ef9578063a178848414610ec1578063a7dc6b1814610e48578063b7f06ebe14610e1b578063bb45fef214610dd4578063c5e480db14610d40578063c94b511114610d0a578063ca661c0414610cec578063ca95d82614610cc7578063cd8e9cd314610c8f578063cf3c5c62146108e2578063da8be86414610549578063eb6aa05f1461052a578063eea9064b146104e4578063f16172b014610436578063f2fde38b146103e0578063f698da25146103b85763fabc1cbc0361001257346103b457602090816003193601126103b0578354815163755b36bd60e11b8152843594916001600160a01b039190859082908590829086165afa9081156103a657906102d392918891610379575b50163314612be9565b6001541984198116036103125750907f3582d1828e26bf56bd801502bc021ac0bc8afb57c826e4986b45593c8fad389c9183600155519283523392a280f35b82608492519162461bcd60e51b8352820152603860248201527f5061757361626c652e756e70617573653a20696e76616c696420617474656d7060448201527f7420746f2070617573652066756e6374696f6e616c69747900000000000000006064820152fd5b6103999150863d881161039f575b6103918183612a5a565b810190612bca565b5f6102ca565b503d610387565b84513d89823e3d90fd5b8380fd5b8280fd5b8382346103dc57816003193601126103dc576020906103d561380f565b9051908152f35b5080fd5b5090346103b45760203660031901126103b4576103fb6128fb565b916104046139fb565b6001600160a01b03831615610420578361041d846138b3565b80f35b51631e4fbdf760e01b8152908101839052602490fd5b50346103b45760603660031901126103b457335f908152606e60205260409020546001600160a01b03161561046f578261041d33612e5b565b90602060a492519162461bcd60e51b8352820152604360248201527f44656c65676174696f6e4d616e616765722e6d6f646966794f70657261746f7260448201527f44657461696c733a2063616c6c6572206d75737420626520616e206f706572616064820152623a37b960e91b6084820152fd5b5050346103dc5760603660031901126103dc576104ff6128fb565b6024356001600160401b0381116103b05761041d9261052091369101612a7b565b60443591336130ef565b8382346103dc57816003193601126103dc57602090606a549051908152f35b509190346103dc576020806003193601126103b4576105666128fb565b6001600160a01b038082165f908152606f6020526040902054919591161561086e576001600160a01b038086165f908152606e602052604090205416610807576001600160a01b0385811695909390861561079f57868652606f84528483872054169587331480159081610796575b801561077e575b156107155785896024896067541696885197889384926394f649dd60e01b84528301525afa93841561070b5782946106d8575b506106ad575b86887ffee30966a256b71e14bc0ebfc94315e28ef4a97a7131a9e2b7a310a73af446768380a3878152606f855283812080546001600160a01b03191690555b606b548110156106a0578086808a61066d60019561297e565b929054600393841b1c1614610685575b505001610654565b61068e8361297e565b81939154921b1b19169055865f61067d565b50906103d591868161362a565b86887ff0eddf07e6ea14f388b47e1e94a0f464ecbd9eed4171130e0fc0e99fb4030a8a8380a3610615565b9093508581813d8311610704575b6106f08183612a5a565b810103126107005751925f61060f565b5f80fd5b503d6106e6565b85513d84823e3d90fd5b845162461bcd60e51b8152808501879052603d60248201527f44656c65676174696f6e4d616e616765722e756e64656c65676174653a20636160448201527f6c6c65722063616e6e6f7420756e64656c6567617465207374616b65720000006064820152608490fd5b50878252606e865286600186842001541633146105dc565b508733146105d5565b5082608492519162461bcd60e51b8352820152603c60248201527f44656c65676174696f6e4d616e616765722e756e64656c65676174653a20636160448201527f6e6e6f7420756e64656c6567617465207a65726f2061646472657373000000006064820152fd5b5162461bcd60e51b815291820152603d60248201527f44656c65676174696f6e4d616e616765722e756e64656c65676174653a206f7060448201527f657261746f72732063616e6e6f7420626520756e64656c656761746564000000606482015260849150fd5b60a49350519162461bcd60e51b8352820152604460248201527f44656c65676174696f6e4d616e616765722e756e64656c65676174653a20737460448201527f616b6572206d7573742062652064656c65676174656420746f20756e64656c656064820152636761746560e01b6084820152fd5b50346103b4576020806003193601126103b0578235916001600160401b0391828411610c8b5736602385011215610c8b5783850135928311610c8b5760249060c09236602460c0870288010111610c875760019561094260015415612cbd565b61094a61353e565b885b86811061097b578960017f9b779b17422d0df92223018b32b4d1fa46e071723d6817e2486d003becc55f005580f35b858102820186602319823603011261070057835161099881612a24565b6109a387830161293d565b81526044906109b382840161293d565b87820152606492838101926109c78461293d565b888401526084606095818401358786015260a492838501359663ffffffff881697888103610700578d918d9160808a015260ff610a0f60c4809a01359a8b60a0820152612de2565b92835f5260728095525f20541615610c20576001600160a01b0397969594939291908890610a3c90612d72565b163303610bab575f528d528b5f2060ff198154169055335f528c606f809152868d5f20541698610a704391606a5490613580565b11610b165750505050505060675416803b156107005786516325e02e5960e21b815233818f019081526020810184905290915f9183919082908490829060400103925af18015610b0c57917fb00382203b46c3b6ad0a2d7af0268e334bd9406256a7c7ba8f7fc8bc47f8cde993918d969593610afd575b508751918252338983015287820152a10161094c565b610b06906129f6565b5f610ae7565b87513d5f823e3d90fd5b939a50939c91975094508f9a7f6b7320706572696f6420686173206e6f74207965742070617373656420666f7298507f645769746864726177616c3a207769746864726177616c44656c6179426c6f6396505f80516020613e5d83398151915294506e207468697320636861696e4261736560881b9a519b62461bcd60e51b8d528c01528a0152880152860152840152820152fd5b50509550965097509990507f645769746864726177616c3a206f6e6c7920776974686472617765722063616e95505f80516020613e5d8339815191529350605091508d986f1031b7b6b83632ba329030b1ba34b7b760811b98519962461bcd60e51b8b528a0152880152860152840152820152fd5b505050945095509650987f645769746864726177616c3a20616374696f6e206973206e6f7420696e20717595505f80516020613e5d8339815191529350604391508d986265756560e81b98519962461bcd60e51b8b528a0152880152860152840152820152fd5b8780fd5b8580fd5b8382346103dc5760203660031901126103dc5760209181906001600160a01b03610cb76128fb565b168152606c845220549051908152f35b5050346103dc5760203660031901126103dc5761041d90610ce66139fb565b35613907565b8382346103dc57816003193601126103dc576020905162034bc08152f35b8382346103dc5760803660031901126103dc576020906103d5610d2b6128fb565b610d33612927565b6064359160243590612e00565b8382346103dc5760203660031901126103dc57908180606093610d616128fb565b9380828051610d6f81612a09565b828152826020820152015260018060a01b038095168152606e6020522092815190610d9982612a09565b600181865416958684520154916020810190828416825263ffffffff948591019360a01c168352845195865251166020850152511690820152f35b8382346103dc57806003193601126103dc5760209160ff9082906001600160a01b03610dfe6128fb565b168152607185528181206024358252855220541690519015158152f35b5090346103b45760203660031901126103b4578160209360ff923581526072855220541690519015158152f35b8382346103dc57806003193601126103dc57610e626128fb565b6067546001600160a01b03929190610e7d9084163314612d09565b6001600160a01b038082165f908152606f602052604090205416610e9f578380f35b82610eba9382168552606f6020526024359285205416613c93565b8180808380f35b8382346103dc5760203660031901126103dc5760209181906001600160a01b03610ee96128fb565b1681526073845220549051908152f35b8382346103dc57816003193601126103dc5760695490516001600160a01b039091168152602090f35b8382346103dc57816003193601126103dc575f80516020613e3d8339815191525490516001600160a01b039091168152602090f35b508234610fde5760c0366003190112610fde5750805191610f7783612a24565b6001600160a01b0390358181168103610700578352602435818116810361070057602084015260443590811681036107005781830152606435606083015260843563ffffffff8116810361070057826103d5916080602095015260a43560a0820152612de2565b80fd5b8382346103dc57816003193601126103dc57905490516001600160a01b039091168152602090f35b509190346103dc5760a03660031901126103dc576110256128fb565b9061102e612911565b6001600160401b0391604435838111610c8b5761104e9036908301612a7b565b92606435908111610c8b576110669036908301612a7b565b926020810191825142116110c15750906110b89161041d96976001808060a01b03881693848b5260706020526110a3838c2054915188838c612e00565b948b5260706020520190892055519085613a33565b608435926130ef565b60a490602089519162461bcd60e51b8352820152604160248201527f44656c65676174696f6e4d616e616765722e64656c6567617465546f4279536960448201527f676e61747572653a207374616b6572207369676e6174757265206578706972656064820152601960fa1b6084820152fd5b8382346103dc57806003193601126103dc576020916111516128fb565b8261115a612911565b6001600160a01b039283168452606d8652922091165f908152908352819020549051908152f35b8334610fde5780600319360112610fde5761119a6139fb565b5f80516020613e3d83398151915280546001600160a01b031981169091555f906001600160a01b03167f8be0079c531659141344cd1fd0a4f28419497f9722a3daafe3b4186f6b6457e08280a380f35b8382346103dc5760203660031901126103dc5760209061122a61120b6128fb565b6001600160a01b039081165f908152606e602052604090205416151590565b90519015158152f35b5082903461070057806003193601126107005761124e6128fb565b6069546001600160a01b0392916024359184163303611345578360675416803b1561070057835163beffbb8960e01b81526001600160a01b03909216828801908152602081018490525f91839182908490829060400103925af1801561133b57611328575b509383948360675416936069541693803b15610c8b5783516325e02e5960e21b81526001600160a01b039095169285019283526020830191909152849184919082908490829060400103925af190811561131f575061130f5750f35b611318906129f6565b610fde5780f35b513d84823e3d90fd5b6113339194506129f6565b5f92856112b3565b83513d5f823e3d90fd5b825162461bcd60e51b8152602081880152601360248201527237b7363ca9b630b9b434b733a6b0b730b3b2b960691b6044820152606490fd5b5034610700576020366003190112610700576020906001600160a01b03806113a46128fb565b165f52606f8352815f2054169051908152f35b5034610700576020366003190112610700576020906001600160a01b03806113dd6128fb565b165f52606e8352815f2054169051908152f35b5034610700575f366003190112610700576020906001549051908152f35b50903461070057602036600319011261070057359060ff82168092036107005760016020921b8060015416149051908152f35b509034610700575f366003190112610700575f54825163237dfb4760e11b81523392810192909252602090829060249082906001600160a01b03165afa80156114f757611495915f916114c8575b50612c60565b5f199081600155519081527fab40a374bc51de372200a8bc981af8c9ecdc08dfdaef0bb6e09f88f3c616ef3d60203392a2005b6114ea915060203d6020116114f0575b6114e28183612a5a565b810190612c48565b8361148f565b503d6114d8565b82513d5f823e3d90fd5b5034610700575f36600319011261070057602090516213c6808152f35b5034610700575f3660031901126107005760685490516001600160a01b039091168152602090f35b5034610700575f36600319011261070057602090517f39111bc4a4d688e1f685123d7497d4615370152a8ee4a0593e647bd06ad8bb0b8152f35b50346107005760209081600319360112610700579061159d6128fb565b90606b54906115ab82612d4b565b926115b885519485612a5a565b8284526115c483612d4b565b9282850191601f198095013684376115db82612d4b565b916115e888519384612a5a565b8083526115f481612d4b565b83860196013687376001600160a01b039182165f5b82811061168b575050508651968796818801918852518091526060870193915f905b82821061166e5750505050848203858401525180825290820192915f5b82811061165757505050500390f35b835185528695509381019392810192600101611648565b83518116865289985094860194928601926001919091019061162b565b80848a6116b3836116a39d9e999a9c9d60019661297e565b949054600395861b1c1692612d86565b52835f52606d895285875f20916116c98461297e565b9054911b1c165f528852855f20546116e18289612d86565b5201989796949398611609565b5034610700575f3660031901126107005760675490516001600160a01b039091168152602090f35b5090346107005760e0366003190112610700576117316128fb565b611739612911565b6001600160a01b03916044359160843584811692908390036107005760a435918583168093036107005760c43594868616809603610700577ff0c57e16840df040f15088dc2f81fe391c3923bec73e23a9662efc9c229c6a009788549760ff898c1c1615986001600160401b0381168015908161197f575b6001149081611975575b15908161196c575b5061195c5767ffffffffffffffff1981166001178b558961193d575b50805f5416159081611931575b50156118b85750611840929181611830926001558a519081527fab40a374bc51de372200a8bc981af8c9ecdc08dfdaef0bb6e09f88f3c616ef3d60203392a261346c565b61183861380f565b6066556138b3565b61184b606435613907565b6001600160601b0360a01b9182606754161760675581606854161760685560695416176069554660d85561187b57005b805468ff00000000000000001916905551600181527fc7f505b2f371ae2175ee4913f4499e1f2633a7b5936321eed1cdaeb6115181d290602090a1005b60a49060208b519162461bcd60e51b8352820152604760248201527f5061757361626c652e5f696e697469616c697a655061757365723a205f696e6960448201527f7469616c697a6550617573657228292063616e206f6e6c792062652063616c6c6064820152666564206f6e636560c81b6084820152fd5b9050831615158b6117ec565b68ffffffffffffffffff191668010000000000000001178a558b6117df565b8b5163f92ee8a960e01b81528390fd5b9050158d6117c3565b303b1591506117bb565b8b91506117b1565b50346107005760203660031901126107005760209061122a6119a76128fb565b6001600160a01b039081165f908152606f602052604090205416151590565b5034610700576020366003190112610700576020906001600160a01b03806119ec6128fb565b165f52606e83526001825f200154169051908152f35b5034610700576020366003190112610700576020906001600160a01b03611a276128fb565b165f52606c8252805f20549051908152f35b509034610700576020366003190112610700573590606b5482101561070057611a6360209261297e565b905491519160018060a01b039160031b1c168152f35b503461070057602080600319360112610700578235926001600160401b039182851161070057366023860112156107005784820135928311610700576024916024860195602436918660061b010111610700579084928692600193611ae060015415612cbd565b611ae987612d4b565b92611af687519485612a5a565b878452611b0288612d4b565b8486019890601f1901368a37335f52606f865260018060a01b039384895f205416925f5b838110611b6857505050505050508351938285019183865251809252840194915f5b828110611b555785870386f35b8351875295810195928101928401611b48565b9a989a9796973387611b858a611b7f85898c612d62565b01612d72565b1603611bd8578b90611bc1611b9f8a611b7f84898c612d62565b611bae8b611b7f858a8d612d62565b88611bba858a8d612d62565b359261362a565b611bcb828c612d86565b52019a989a979697611b26565b8a5162461bcd60e51b8152808401899052601581840152743737ba1030baba3437b934bd32b21031b0b63632b960591b6044820152606490fd5b5034610700576020366003190112610700576020906001600160a01b03611c376128fb565b165f5260708252805f20549051908152f35b5034610700578060031936011261070057611c626128fb565b6067546001600160a01b03929190611c7d9084163314612d09565b6001600160a01b038082165f908152606f602052604090205416611c9d57005b8261001f9382165f52606f602052602435925f2054166135a1565b5090346107005760c036600319011261070057611cd760015415612cbd565b611cdf61353e565b8151611cea81612a24565b6001600160a01b03918035838116810361070057825260243590838216820361070057602091828401526044359380851694858103610700578685015260643560608501526084359463ffffffff861695868103610700576080860152611d5960a435958660a0820152612de2565b90815f526072855260ff885f20541615611f5f573303611ef0575f5260728352855f2060ff198154169055335f52606f8352611d9e81875f20541695606a5490613580565b4310611e5d5760675416803b156107005785516325e02e5960e21b81523392810192835260208301859052915f91839182908490829060400103925af18015611e5357917fb00382203b46c3b6ad0a2d7af0268e334bd9406256a7c7ba8f7fc8bc47f8cde995916060959493611e44575b5081519384523390840152820152a160017f9b779b17422d0df92223018b32b4d1fa46e071723d6817e2486d003becc55f0055005b611e4d906129f6565b86611e0f565b85513d5f823e3d90fd5b5060c49185519162461bcd60e51b8352820152606f60248201525f80516020613e5d83398151915260448201527f645769746864726177616c3a207769746864726177616c44656c6179426c6f6360648201527f6b7320706572696f6420686173206e6f74207965742070617373656420666f7260848201526e207468697320636861696e4261736560881b60a4820152fd5b865162461bcd60e51b8152808401859052605060248201525f80516020613e5d83398151915260448201527f645769746864726177616c3a206f6e6c7920776974686472617765722063616e60648201526f1031b7b6b83632ba329030b1ba34b7b760811b608482015260a490fd5b875162461bcd60e51b8152808501869052604360248201525f80516020613e5d83398151915260448201527f645769746864726177616c3a20616374696f6e206973206e6f7420696e20717560648201526265756560e81b608482015260a490fd5b5034610700575f36600319011261070057602090517f8cad95687ba82c2ce50e74f7b754645e5117c3a5bec8151c0726d5857980a8668152f35b50346107005760203660031901126107005781356001600160401b0381116107005761202a9036908401612951565b335f908152606e602052604090205491939092916001600160a01b03161561208457507f826d13513a58153c5878cd93af2008d3f8dfc32049e748b380b1b385645e280b9161207f9151918291339583612ba3565b0390a2005b602060a492519162461bcd60e51b8352820152604360248201527f44656c65676174696f6e4d616e616765722e7570646174654f70657261746f7260448201527f4e6f646555726c3a2063616c6c6572206d75737420626520616e206f706572616064820152623a37b960e91b6084820152fd5b5034610700576060366003190112610700576020906103d56121186128fb565b612120612911565b6001600160a01b0382165f908152607086528490205460443592612e00565b5034610700576020366003190112610700576020906001600160a01b036121646128fb565b165f52606e825263ffffffff6001825f20015460a01c169051908152f35b50903461070057602080600319360112610700575f54835163237dfb4760e11b81523381850152833593918390829060249082906001600160a01b03165afa8015611e53576121d7915f9161227a5750612c60565b60015483811603612213575081927fab40a374bc51de372200a8bc981af8c9ecdc08dfdaef0bb6e09f88f3c616ef3d92600155519283523392a2005b60849184519162461bcd60e51b8352820152603860248201527f5061757361626c652e70617573653a20696e76616c696420617474656d70742060448201527f746f20756e70617573652066756e6374696f6e616c69747900000000000000006064820152fd5b6122919150843d86116114f0576114e28183612a5a565b8661148f565b5034610700576020366003190112610700576122b16128fb565b5f54825163755b36bd60e11b81526001600160a01b039492939290916020918391829088165afa91821561231c5750926122f89161001f945f916122fd5750163314612be9565b61346c565b612316915060203d60201161039f576103918183612a5a565b856102ca565b513d5f823e3d90fd5b50903461070057366003190160808112610700576060136107005760649182356001600160401b038111610700576123609036908401612951565b9093335f526020606e815260018060a01b039182855f2054166128105761238633612e5b565b845190612392826129c7565b606082525f838301818152338252606f6020526040909120546001600160a01b031661279e57335f908152606e60205260409020546001600160a01b03161561272657335f52606e8452846001885f20015416918215158061271c575b80612715575b612586575b50505050335f52606f8152835f20336001600160601b0360a01b825416179055606b54600160401b8110156125735761243c81600161245a9301606b5561297e565b81546001600160a01b0360039290921b91821b19163390911b179055565b835133337fc3ee9f2e5fda98e8066a1f745b2df9285f416fe98cf2559cd21484b3d87433045f80a3818160248186606754166394f649dd60e01b8252338b8301525afa8015611e53575f90612544575b6124b6915033336135a1565b83519435828116809103610700578552602435918216809203610700578401526044359163ffffffff8316809303610700578361207f93827f826d13513a58153c5878cd93af2008d3f8dfc32049e748b380b1b385645e280b9601527f8e8485583a2310d41f7c82b9427d0bd49bad74bb9cff9d3402a29d8f9b28a0e260603392a251918291339583612ba3565b508181813d831161256c575b61255a8183612a5a565b81010312610700576124b690516124aa565b503d612550565b604186634e487b7160e01b5f525260245ffd5b815142116126c757825f5260718552875f205f8052855260ff885f2054166126795750906126709291815f5260718552875f205f80528552875f20600160ff1982541617905551875190858201927f6d1fdcc5430bb8f0c2b78c3d153f848b370260144c36d3b8b064f06b5a04568e8452338a84015233606084015260808301525f60a083015260c082015260c0815261261f81612a3f565b51902061265661266461263061380f565b9289519283918883019586909160429261190160f01b8352600283015260228201520190565b03601f198101835282612a5a565b51902090519033613a33565b868080806123fa565b88761c9bdd995c94d85b1d08185b1c9958591e481cdc195b9d604a1b608492878b519362461bcd60e51b8552840152603760248401525f80516020613e7d8339815191526044840152820152fd5b88761c9bdd995c881cda59db985d1d5c9948195e1c1a5c9959604a1b608492878b519362461bcd60e51b8552840152603760248401525f80516020613e7d8339815191526044840152820152fd5b505f6123f5565b50823314156123ef565b865162461bcd60e51b8152808901859052604760248201527f44656c65676174696f6e4d616e616765722e5f64656c65676174653a206f706560448201527f7261746f72206973206e6f74207265676973746572656420696e204370436861818401526634b72630bcb2b960c91b608482015260a490fd5b865162461bcd60e51b8152808901859052604160248201527f44656c65676174696f6e4d616e616765722e5f64656c65676174653a2073746160448201527f6b657220697320616c7265616479206163746976656c792064656c656761746581840152601960fa1b608482015260a490fd5b7f61746f723a206f70657261746f722068617320616c7265616479207265676973869160a49387519362461bcd60e51b8552840152604560248401527f44656c65676174696f6e4d616e616765722e726567697374657241734f7065726044840152820152641d195c995960da1b6084820152fd5b50346107005760a0366003190112610700576020906103d56128a56128fb565b6128ad612911565b906128b6612927565b6084359260643592612b00565b34610700575f36600319011261070057807f6d1fdcc5430bb8f0c2b78c3d153f848b370260144c36d3b8b064f06b5a04568e60209252f35b600435906001600160a01b038216820361070057565b602435906001600160a01b038216820361070057565b604435906001600160a01b038216820361070057565b35906001600160a01b038216820361070057565b9181601f84011215610700578235916001600160401b038311610700576020838186019501011161070057565b606b548110156129b357606b5f527fbd43cb8ece8cd1863bcd6082d65c5b0d25665b1ce17980f0da43c0ed545f98b401905f90565b634e487b7160e01b5f52603260045260245ffd5b604081019081106001600160401b038211176129e257604052565b634e487b7160e01b5f52604160045260245ffd5b6001600160401b0381116129e257604052565b606081019081106001600160401b038211176129e257604052565b60c081019081106001600160401b038211176129e257604052565b60e081019081106001600160401b038211176129e257604052565b90601f801991011681019081106001600160401b038211176129e257604052565b9190916040818403126107005760405190612a95826129c7565b81938135916001600160401b03928381116107005781019180601f8401121561070057823560209481116129e25760405191612ada601f8301601f1916870184612a5a565b8183528582860101116107005784815f9282809701838601378301015284520135910152565b939192906040519360208501957f6d1fdcc5430bb8f0c2b78c3d153f848b370260144c36d3b8b064f06b5a04568e875260018060a01b039283809216604088015216606086015216608084015260a083015260c082015260c08152612b6481612a3f565b519020612656612b9d612b7561380f565b92604051928391602083019586909160429261190160f01b8352600283015260228201520190565b51902090565b90918060409360208452816020850152848401375f828201840152601f01601f1916010190565b9081602091031261070057516001600160a01b03811681036107005790565b15612bf057565b60405162461bcd60e51b815260206004820152602a60248201527f6d73672e73656e646572206973206e6f74207065726d697373696f6e6564206160448201526939903ab73830bab9b2b960b11b6064820152608490fd5b90816020910312610700575180151581036107005790565b15612c6757565b60405162461bcd60e51b815260206004820152602860248201527f6d73672e73656e646572206973206e6f74207065726d697373696f6e6564206160448201526739903830bab9b2b960c11b6064820152608490fd5b15612cc457565b60405162461bcd60e51b815260206004820152601c60248201527f5061757361626c653a20636f6e747261637420697320706175736564000000006044820152606490fd5b15612d1057565b60405162461bcd60e51b815260206004820152601360248201527237b7363ca9ba3930ba32b3bca6b0b730b3b2b960691b6044820152606490fd5b6001600160401b0381116129e25760051b60200190565b91908110156129b35760061b0190565b356001600160a01b03811681036107005790565b80518210156129b35760209160051b010190565b60a08091600180831b0380825116855280602083015116602086015260408201511660408501526060810151606085015263ffffffff60808201511660808501520151910152565b604051612df3602082018093612d9a565b60c08152612b9d81612a3f565b9192906040519260208401947f39111bc4a4d688e1f685123d7497d4615370152a8ee4a0593e647bd06ad8bb0b865260018060a01b038092166040860152166060840152608083015260a082015260a08152612b6481612a24565b6004356001600160a01b0381811692918390036107005782156130675760443563ffffffff80821693848303610700576213c6808511612fc157831690815f52606e602052600160405f20015460a01c168410612f3a575f52606e602052600160405f20856001600160601b0360a01b8254161781550190602435928316809303610700578282549163ffffffff60a01b9060a01b16916001600160401b0360c01b1617179055604051928352602083015260408201527ffebe5cd24b2cbc7b065b9d0fdeb904461e4afcff57dd57acda1e7832031ba7ac60603392a2565b60405162461bcd60e51b815260206004820152605360248201527f44656c65676174696f6e4d616e616765722e5f7365744f70657261746f72446560448201527f7461696c733a207374616b65724f70744f757457696e646f77426c6f636b732060648201527218d85b9b9bdd08189948191958dc99585cd959606a1b608482015260a490fd5b60405162461bcd60e51b815260206004820152606c60248201527f44656c65676174696f6e4d616e616765722e5f7365744f70657261746f72446560448201527f7461696c733a207374616b65724f70744f757457696e646f77426c6f636b732060648201527f63616e6e6f74206265203e204d41585f5354414b45525f4f50545f4f55545f5760848201526b494e444f575f424c4f434b5360a01b60a482015260c490fd5b60405162461bcd60e51b815260206004820152605460248201527f44656c65676174696f6e4d616e616765722e5f7365744f70657261746f72446560448201527f7461696c733a2063616e6e6f742073657420606561726e696e677352656365696064820152737665726020746f207a65726f206164647265737360601b608482015260a490fd5b6001600160a01b038082165f908152606f6020526040902054939493919291166133f7576001600160a01b038082165f908152606e6020526040902054161561337c5760018060a01b0393848216805f52602091606e8352604095876001885f200154169081151580613372575b80613368575b613260575b50505085841695865f52606f8352855f20826001600160601b0360a01b825416179055606b54600160401b8110156129e25783926131d0876131b284600160249601606b5561297e565b90919060018060a01b038084549260031b9316831b921b1916179055565b87519889938492827fc3ee9f2e5fda98e8066a1f745b2df9285f416fe98cf2559cd21484b3d87433045f80a360675416906394f649dd60e01b835260048301525afa93841561231c57505f9361322e575b5061322c93506135a1565b565b90925083813d8311613259575b6132458183612a5a565b810103126107005761322c9251915f613221565b503d61323b565b8483018051421161331757825f5260718652885f20825f52865260ff895f2054166132c6575f838152607187528981208382528752899020805460ff19166001179055516132be93926132b59290888a612b00565b90519086613a33565b5f8080613168565b885162461bcd60e51b815260048101879052603760248201525f80516020613e7d8339815191526044820152761c9bdd995c94d85b1d08185b1c9958591e481cdc195b9d604a1b6064820152608490fd5b885162461bcd60e51b815260048101879052603760248201525f80516020613e7d8339815191526044820152761c9bdd995c881cda59db985d1d5c9948195e1c1a5c9959604a1b6064820152608490fd5b5083331415613163565b508133141561315d565b60405162461bcd60e51b815260206004820152604760248201527f44656c65676174696f6e4d616e616765722e5f64656c65676174653a206f706560448201527f7261746f72206973206e6f74207265676973746572656420696e20437043686160648201526634b72630bcb2b960c91b608482015260a490fd5b60405162461bcd60e51b815260206004820152604160248201527f44656c65676174696f6e4d616e616765722e5f64656c65676174653a2073746160448201527f6b657220697320616c7265616479206163746976656c792064656c65676174656064820152601960fa1b608482015260a490fd5b6001600160a01b039081169081156134c1577f6e9fcd539896fca60e8b0f01dd580233e48a6b0f7df013b89ba7f565869acdb660405f549281519084168152846020820152a16001600160a01b031916175f55565b60405162461bcd60e51b815260206004820152604960248201527f5061757361626c652e5f73657450617573657252656769737472793a206e657760448201527f50617573657252656769737472792063616e6e6f7420626520746865207a65726064820152686f206164647265737360b81b608482015260a490fd5b7f9b779b17422d0df92223018b32b4d1fa46e071723d6817e2486d003becc55f00600281541461356e5760029055565b604051633ee5aeb560e01b8152600490fd5b9190820180921161358d57565b634e487b7160e01b5f52601160045260245ffd5b917f9a61813b471b5a3bad7bf5dd4feba4df891a682ae28e7114f45e482c5900b72e9160018060a01b0380941693845f52606c60205260405f206135e6848254613580565b9055845f52606d60205260405f209082165f5260205260405f2061360b838254613580565b9055604080516001600160a01b039290921682526020820192909252a2565b5f936001600160a01b038083169492939192851561378b578183169284868561377a575b5050508160675416803b15610700576040805163beffbb8960e01b81526001600160a01b039790971660048801526024870186905295905f908290604490829084905af180156137705761375d575b508587526073602052848720805493905f19851461374957927f729e18845ad6e11aca72d9186f0964b995424b62fbacad242ee7c0122ed73717979592859260e098956001613745980190558551976136f589612a24565b885260208801521683860152606085015263ffffffff4316608085015260a08401528061372184612de2565b96878152607260205220600160ff1982541617905551918583526020830190612d9a565ba190565b634e487b7160e01b89526011600452602489fd5b6137689197506129f6565b5f955f61369d565b86513d5f823e3d90fd5b61378392613c93565b5f848661364e565b60405162461bcd60e51b815260206004820152605060248201527f44656c65676174696f6e4d616e616765722e5f72656d6f76655368617265734160448201527f6e6451756575655769746864726177616c3a207374616b65722063616e6e6f7460648201526f206265207a65726f206164647265737360801b608482015260a490fd5b6b21b821b430b4b72630bcb2b960a11b602060405161382d816129c7565b600c8152015260405160208101907f8cad95687ba82c2ce50e74f7b754645e5117c3a5bec8151c0726d5857980a86682527fdb9781486a2a80a40f2a84bb9833326cb40ad55e3f92aed07afc487c21dd6aa660408201524660608201523060808201526080815260a081018181106001600160401b038211176129e25760405251902090565b5f80516020613e3d83398151915280546001600160a01b039283166001600160a01b0319821681179092559091167f8be0079c531659141344cd1fd0a4f28419497f9722a3daafe3b4186f6b6457e05f80a3565b606a549062034bc0811161394b577f1b6158e161a32a2f215ef568645e0193089aa98de51e3f84ff1bedb2b1b7a8479181604092606a5582519182526020820152a1565b60405162461bcd60e51b815260206004820152607660248201527f44656c65676174696f6e4d616e616765722e5f7365744370436861696e42617360448201527f655769746864726177616c44656c6179426c6f636b733a205f7769746864726160648201527f77616c44656c6179426c6f636b732063616e6e6f74206265203e204d41585f5760848201527549544844524157414c5f44454c41595f424c4f434b5360501b60a482015260c490fd5b5f80516020613e3d833981519152546001600160a01b03163303613a1b57565b60405163118cdaa760e01b8152336004820152602490fd5b909190803b15613ba0576040518092630b135d3f60e11b948583526004830152604060248301528051908160448401525f5b828110613b885750509181606481855f8360209884010152601f8019910116810103019160018060a01b03165afa908115613b7d575f91613b3a575b506001600160e01b03191603613ab357565b60405162461bcd60e51b815260206004820152605360248201527f454950313237315369676e61747572655574696c732e636865636b5369676e6160448201527f747572655f454950313237313a2045524331323731207369676e6174757265206064820152721d995c9a599a58d85d1a5bdb8819985a5b1959606a1b608482015260a490fd5b90506020813d602011613b75575b81613b5560209383612a5a565b8101031261070057516001600160e01b031981168103610700575f613aa1565b3d9150613b48565b6040513d5f823e3d90fd5b60208282018101516064888401015286945001613a65565b90613bee90613bf79360405160208101917f19457468657265756d205369676e6564204d6573736167653a0a3332000000008352603c820152603c8152613be681612a09565b519020613cfd565b90939193613d37565b6001600160a01b03908116911603613c0b57565b60405162461bcd60e51b815260206004820152604760248201527f454950313237315369676e61747572655574696c732e636865636b5369676e6160448201527f747572655f454950313237313a207369676e6174757265206e6f742066726f6d6064820152661039b4b3b732b960c91b608482015260a490fd5b9190820391821161358d57565b917f37d3e849079809fe10f0b9db0efe433e86af66f8e95978b12b8d5468f32057499160018060a01b0380941693845f52606c60205260405f20613cd8848254613c86565b9055845f52606d60205260405f209082165f5260205260405f2061360b838254613c86565b8151919060418303613d2d57613d269250602082015190606060408401519301515f1a90613dba565b9192909190565b50505f9160029190565b6004811015613da65780613d49575050565b60018103613d635760405163f645eedf60e01b8152600490fd5b60028103613d845760405163fce698f760e01b815260048101839052602490fd5b600314613d8e5750565b602490604051906335e2f38360e21b82526004820152fd5b634e487b7160e01b5f52602160045260245ffd5b91907f7fffffffffffffffffffffffffffffff5d576e7357a4501ddfe92f46681b20a08411613e31579160209360809260ff5f9560405194855216868401526040830152606082015282805260015afa15613b7d575f516001600160a01b03811615613e2757905f905f90565b505f906001905f90565b5050505f916003919056fe9016d09d72d40fdae2fd8ceac6b6234c7706214fd39c1cd1e609a0528c19930044656c65676174696f6e4d616e616765722e5f636f6d706c657465517565756544656c65676174696f6e4d616e616765722e5f64656c65676174653a20617070a2646970667358221220f183b0438ebf7d9d06581f22f2d65b9ab7873fd2e4b25e821bf6ce553fbfab5464736f6c63430008180033","linkReferences":{}},"methodIdentifiers":{"DELEGATION_APPROVAL_TYPEHASH()":"04a4f979","DOMAIN_TYPEHASH()":"20606b70","MAX_STAKER_OPT_OUT_WINDOW_BLOCKS()":"4fc40b61","MAX_WITHDRAWAL_DELAY_BLOCKS()":"ca661c04","STAKER_DELEGATION_TYPEHASH()":"43377382","calculateCurrentStakerDelegationDigestHash(address,address,uint256)":"1bbce091","calculateDelegationApprovalDigestHash(address,address,address,bytes32,uint256)":"0b9f487a","calculateStakerDelegationDigestHash(address,uint256,address,uint256)":"c94b5111","calculateWithdrawalRoot((address,address,address,uint256,uint32,uint256))":"8bef87b7","chainBaseWithdrawalDelayBlock()":"eb6aa05f","completeQueuedWithdrawal((address,address,address,uint256,uint32,uint256))":"240fe38e","completeQueuedWithdrawals((address,address,address,uint256,uint32,uint256)[])":"cf3c5c62","cpChainBase()":"47c0715a","cpChainDepositManager()":"3ea8c24c","cumulativeWithdrawalsQueued(address)":"a1788484","decreaseDelegatedShares(address,uint256)":"a7dc6b18","delegateTo(address,(bytes,uint256),bytes32)":"eea9064b","delegateToBySignature(address,address,(bytes,uint256),(bytes,uint256),bytes32)":"7f548071","delegatedTo(address)":"65da1264","delegationApprover(address)":"3cdeb5e0","delegationApproverSaltIsSpent(address,bytes32)":"bb45fef2","domainSeparator()":"f698da25","earningsReceiver(address)":"5f966f14","getOperatorShares(address)":"cd8e9cd3","getStakerSharesOfOperator(address)":"42e75c0d","increaseDelegatedShares(address,uint256)":"26e51dae","initialize(address,address,uint256,uint256,address,address,address)":"3e785737","isDelegated(address)":"3e28391d","isOperator(address)":"6d70f7ae","modifyOperatorDetails((address,address,uint32))":"f16172b0","operatorDetails(address)":"c5e480db","operatorShares(address)":"371e21e9","owner()":"8da5cb5b","pause(uint256)":"136439dd","pauseAll()":"595c6a67","paused()":"5c975abb","paused(uint8)":"5ac86ab7","pauserRegistry()":"886f1195","pendingWithdrawals(bytes32)":"b7f06ebe","queueWithdrawals((uint256,address)[])":"32505f0c","registerAsOperator((address,address,uint32),string)":"0f589e59","renounceOwnership()":"715018a6","setCpChainBaseWithdrawalDelayBlocks(uint256)":"ca95d826","setPauserRegistry(address)":"10d67a2f","slashingManager()":"8e5ce3ad","slashingStakingShares(address,uint256)":"675a35d1","stakerDelegateSharesToOperator(address,address)":"7ce823d6","stakerList(uint256)":"348e50c6","stakerNonce(address)":"29c77d4f","stakerOptOutWindowBlocks(address)":"16928365","transferOwnership(address)":"f2fde38b","undelegate(address)":"da8be864","unpause(uint256)":"fabc1cbc","updateOperatorNodeUrl(string)":"1c8392d7"},"id":57}