{"abi":[{"type":"constructor","inputs":[{"name":"_cpChainDepositManager","type":"address","internalType":"contract ICpChainDepositManager"}],"stateMutability":"nonpayable"},{"type":"function","name":"cpChainDepositManager","inputs":[],"outputs":[{"name":"","type":"address","internalType":"contract ICpChainDepositManager"}],"stateMutability":"view"},{"type":"function","name":"deposit","inputs":[{"name":"amount","type":"uint256","internalType":"uint256"}],"outputs":[{"name":"newShares","type":"uint256","internalType":"uint256"}],"stateMutability":"nonpayable"},{"type":"function","name":"explanation","inputs":[],"outputs":[{"name":"","type":"string","internalType":"string"}],"stateMutability":"pure"},{"type":"function","name":"getDepositLimits","inputs":[],"outputs":[{"name":"","type":"uint256","internalType":"uint256"},{"name":"","type":"uint256","internalType":"uint256"}],"stateMutability":"view"},{"type":"function","name":"initialize","inputs":[{"name":"_pauserRegistry","type":"address","internalType":"contract IPauserRegistry"},{"name":"_minDeposit","type":"uint256","internalType":"uint256"},{"name":"_maxDeposit","type":"uint256","internalType":"uint256"}],"outputs":[],"stateMutability":"nonpayable"},{"type":"function","name":"maxDeposit","inputs":[],"outputs":[{"name":"","type":"uint256","internalType":"uint256"}],"stateMutability":"view"},{"type":"function","name":"minDeposit","inputs":[],"outputs":[{"name":"","type":"uint256","internalType":"uint256"}],"stateMutability":"view"},{"type":"function","name":"pause","inputs":[{"name":"newPausedStatus","type":"uint256","internalType":"uint256"}],"outputs":[],"stateMutability":"nonpayable"},{"type":"function","name":"pauseAll","inputs":[],"outputs":[],"stateMutability":"nonpayable"},{"type":"function","name":"paused","inputs":[{"name":"index","type":"uint8","internalType":"uint8"}],"outputs":[{"name":"","type":"bool","internalType":"bool"}],"stateMutability":"view"},{"type":"function","name":"paused","inputs":[],"outputs":[{"name":"","type":"uint256","internalType":"uint256"}],"stateMutability":"view"},{"type":"function","name":"pauserRegistry","inputs":[],"outputs":[{"name":"","type":"address","internalType":"contract IPauserRegistry"}],"stateMutability":"view"},{"type":"function","name":"setDepositLimits","inputs":[{"name":"newMinDeposit","type":"uint256","internalType":"uint256"},{"name":"newMaxDeposit","type":"uint256","internalType":"uint256"}],"outputs":[],"stateMutability":"nonpayable"},{"type":"function","name":"setPauserRegistry","inputs":[{"name":"newPauserRegistry","type":"address","internalType":"contract IPauserRegistry"}],"outputs":[],"stateMutability":"nonpayable"},{"type":"function","name":"shares","inputs":[{"name":"user","type":"address","internalType":"address"}],"outputs":[{"name":"","type":"uint256","internalType":"uint256"}],"stateMutability":"view"},{"type":"function","name":"sharesToUnderlying","inputs":[{"name":"amountShares","type":"uint256","internalType":"uint256"}],"outputs":[{"name":"","type":"uint256","internalType":"uint256"}],"stateMutability":"view"},{"type":"function","name":"sharesToUnderlyingView","inputs":[{"name":"amountShares","type":"uint256","internalType":"uint256"}],"outputs":[{"name":"","type":"uint256","internalType":"uint256"}],"stateMutability":"view"},{"type":"function","name":"totalShares","inputs":[],"outputs":[{"name":"","type":"uint256","internalType":"uint256"}],"stateMutability":"view"},{"type":"function","name":"underlyingToShares","inputs":[{"name":"amountUnderlying","type":"uint256","internalType":"uint256"}],"outputs":[{"name":"","type":"uint256","internalType":"uint256"}],"stateMutability":"view"},{"type":"function","name":"underlyingToSharesView","inputs":[{"name":"amountUnderlying","type":"uint256","internalType":"uint256"}],"outputs":[{"name":"","type":"uint256","internalType":"uint256"}],"stateMutability":"view"},{"type":"function","name":"unpause","inputs":[{"name":"newPausedStatus","type":"uint256","internalType":"uint256"}],"outputs":[],"stateMutability":"nonpayable"},{"type":"function","name":"userUnderlying","inputs":[{"name":"user","type":"address","internalType":"address"}],"outputs":[{"name":"","type":"uint256","internalType":"uint256"}],"stateMutability":"nonpayable"},{"type":"function","name":"userUnderlyingView","inputs":[{"name":"user","type":"address","internalType":"address"}],"outputs":[{"name":"","type":"uint256","internalType":"uint256"}],"stateMutability":"view"},{"type":"function","name":"withdraw","inputs":[{"name":"recipient","type":"address","internalType":"address"},{"name":"amountShares","type":"uint256","internalType":"uint256"}],"outputs":[],"stateMutability":"nonpayable"},{"type":"event","name":"Initialized","inputs":[{"name":"version","type":"uint64","indexed":false,"internalType":"uint64"}],"anonymous":false},{"type":"event","name":"MaxDepositUpdated","inputs":[{"name":"previousValue","type":"uint256","indexed":false,"internalType":"uint256"},{"name":"newValue","type":"uint256","indexed":false,"internalType":"uint256"}],"anonymous":false},{"type":"event","name":"MinDepositUpdated","inputs":[{"name":"previousValue","type":"uint256","indexed":false,"internalType":"uint256"},{"name":"newValue","type":"uint256","indexed":false,"internalType":"uint256"}],"anonymous":false},{"type":"event","name":"Paused","inputs":[{"name":"account","type":"address","indexed":true,"internalType":"address"},{"name":"newPausedStatus","type":"uint256","indexed":false,"internalType":"uint256"}],"anonymous":false},{"type":"event","name":"PauserRegistrySet","inputs":[{"name":"pauserRegistry","type":"address","indexed":false,"internalType":"contract IPauserRegistry"},{"name":"newPauserRegistry","type":"address","indexed":false,"internalType":"contract IPauserRegistry"}],"anonymous":false},{"type":"event","name":"Unpaused","inputs":[{"name":"account","type":"address","indexed":true,"internalType":"address"},{"name":"newPausedStatus","type":"uint256","indexed":false,"internalType":"uint256"}],"anonymous":false},{"type":"error","name":"InvalidInitialization","inputs":[]},{"type":"error","name":"NotInitializing","inputs":[]}],"bytecode":{"object":"0x60a034610119576001600160401b0390601f61137538819003918201601f19168301918483118484101761011d5780849260209460405283398101031261011957516001600160a01b0381168103610119576080527ff0c57e16840df040f15088dc2f81fe391c3923bec73e23a9662efc9c229c6a009081549060ff8260401c166101075780808316036100c2575b6040516112439081610132823960805181818161028a015281816104c601528181610b3201528181610b9e0152610fbb0152f35b6001600160401b031990911681179091556040519081527fc7f505b2f371ae2175ee4913f4499e1f2633a7b5936321eed1cdaeb6115181d290602090a15f808061008e565b60405163f92ee8a960e01b8152600490fd5b5f80fd5b634e487b7160e01b5f52604160045260245ffdfe608060409080825260049081361015610016575f80fd5b5f3560e01c90816310d67a2f14610d0357508063136439dd14610beb5780633a98ef3914610bcd5780633ea8c24c14610b8a57806341b3d18514610b6c5780634eddea0614610b17578063553ca5f814610760578063595c6a6714610a585780635ac86ab714610a265780635c975abb14610a085780636083e59a146109ea5780637a1ac61e146107d25780637a8b2637146104405780637f414cf8146107af578063886f1195146107885780638c871019146104665780638f6a624014610760578063ab5921e1146106a9578063b6b55f25146104aa578063ce7c2ac214610485578063e3dae51c14610466578063f3e7387514610440578063f3fef3a31461025b5763fabc1cbc14610128575f80fd5b3461025757602080600319360112610257575f54835163755b36bd60e11b8152833593916001600160a01b0390849083908590829085165afa801561024d5761017b925f91610220575b50163314610df4565b6001541983198116036101b9575081927f3582d1828e26bf56bd801502bc021ac0bc8afb57c826e4986b45593c8fad389c92600155519283523392a2005b60849184519162461bcd60e51b8352820152603860248201527f5061757361626c652e756e70617573653a20696e76616c696420617474656d7060448201527f7420746f2070617573652066756e6374696f6e616c69747900000000000000006064820152fd5b6102409150853d8711610246575b6102388183610d9f565b810190610dd5565b5f610172565b503d61022e565b86513d5f823e3d90fd5b5f80fd5b5034610257578160031936011261025757610274610d89565b602492908335906001600160a01b03906102b1337f0000000000000000000000000000000000000000000000000000000000000000841614610ec8565b606854928381116103c3576103e8808501908186116103b157479081018091116103b157935f9591936102fc846102f68998976102f18a99988a99610f14565b610f3b565b94610f84565b606855165af13d156103ac573d67ffffffffffffffff811161039a5782519061032f601f8201601f191660200183610d9f565b81525f60203d92013e5b1561034057005b6084926020603092519362461bcd60e51b85528401528201527f4370436861696e426173652e5f61667465725769746864726177616c3a20747260448201526f185b9cd9995c8818dc0819985a5b195960821b6064820152fd5b84604185634e487b7160e01b5f52525ffd5b610339565b88601189634e487b7160e01b5f52525ffd5b845162461bcd60e51b8152602081880152604c818901527f4370436861696e426173652e77697468647261773a20616d6f756e745368617260448201527f6573206d757374206265206c657373207468616e206f7220657175616c20746f60648201526b20746f74616c53686172657360a01b608482015260a490fd5b5090346102575760203660031901126102575761045f60209235610f59565b9051908152f35b5090346102575760203660031901126102575761045f60209235611028565b82346102575760203660031901126102575760209061045f6104a5610d89565b610f91565b509034610257576020366003190112610257578135906104f4337f00000000000000000000000000000000000000000000000000000000000000006001600160a01b031614610ec8565b60665482106106415760675482116105d957606854916103e8808401908185116105c657479081018091116105c657829161053561053b946102f193610f84565b92610f14565b91821561056c57828101809111610559576020935060685551908152f35b601184634e487b7160e01b5f525260245ffd5b815162461bcd60e51b8152602081860152602e60248201527f4370436861696e426173652e6465706f7369743a206e6577207368617265732060448201526d63616e6e6f74206265207a65726f60901b6064820152608490fd5b601186634e487b7160e01b5f525260245ffd5b5162461bcd60e51b8152602081840152603c60248201527f4370436861696e426173653a206465706f73697420746f6b656e206d7573742060448201527f6c657373207468616e206d6178206465706f73697420616d6f756e74000000006064820152608490fd5b5162461bcd60e51b8152602081840152603c60248201527f4370436861696e426173653a206465706f73697420746f6b656e206d7573742060448201527f6d6f7265207468616e206d696e206465706f73697420616d6f756e74000000006064820152608490fd5b509034610257575f366003190112610257578051918183019083821067ffffffffffffffff83111761074d57508152601c825260207f4370436861696e20506f73205374616b696e672050726f746f636f6c0000000060208401528151928391602083528151918260208501525f5b8381106107375750505f83830185015250601f01601f19168101030190f35b8181018301518782018701528694508201610718565b604190634e487b7160e01b5f525260245ffd5b82346102575760203660031901126102575760209061045f6107836104a5610d89565b610f59565b8234610257575f366003190112610257575f5490516001600160a01b039091168152602090f35b8234610257575f3660031901126102575760665460675482519182526020820152f35b5034610257576060366003190112610257576107ec610d89565b907ff0c57e16840df040f15088dc2f81fe391c3923bec73e23a9662efc9c229c6a009182549160ff83861c16159267ffffffffffffffff8116801590816109e2575b60011490816109d8575b1590816109cf575b506109c05767ffffffffffffffff1981166001178555836109a1575b5061086b604435602435611124565b60ff8454861c1615610993575f546001600160a01b03908116159081610987575b501561090e57506108cb905f60015584515f81527fab40a374bc51de372200a8bc981af8c9ecdc08dfdaef0bb6e09f88f3c616ef3d60203392a2611052565b6108d157005b805468ff00000000000000001916905551600181527fc7f505b2f371ae2175ee4913f4499e1f2633a7b5936321eed1cdaeb6115181d290602090a1005b60a490602086519162461bcd60e51b8352820152604760248201527f5061757361626c652e5f696e697469616c697a655061757365723a205f696e6960448201527f7469616c697a6550617573657228292063616e206f6e6c792062652063616c6c6064820152666564206f6e636560c81b6084820152fd5b9050821615155f61088c565b8451631afcd79f60e31b8152fd5b68ffffffffffffffffff1916680100000000000000011784555f61085c565b50845163f92ee8a960e01b8152fd5b9050155f610840565b303b159150610838565b85915061082e565b8234610257575f366003190112610257576020906067549051908152f35b8234610257575f366003190112610257576020906001549051908152f35b503461025757602036600319011261025757359060ff82168092036102575760016020921b8060015416149051908152f35b5034610257575f366003190112610257575f54825163237dfb4760e11b81523392810192909252602090829060249082906001600160a01b03165afa8015610b0d57610aab915f91610ade575b50610e6b565b5f199081600155519081527fab40a374bc51de372200a8bc981af8c9ecdc08dfdaef0bb6e09f88f3c616ef3d60203392a2005b610b00915060203d602011610b06575b610af88183610d9f565b810190610e53565b5f610aa5565b503d610aee565b82513d5f823e3d90fd5b5090346102575736600319011261025757610b6a90610b60337f00000000000000000000000000000000000000000000000000000000000000006001600160a01b031614610ec8565b6024359035611124565b005b8234610257575f366003190112610257576020906066549051908152f35b8234610257575f36600319011261025757517f00000000000000000000000000000000000000000000000000000000000000006001600160a01b03168152602090f35b8234610257575f366003190112610257576020906068549051908152f35b503461025757602080600319360112610257575f54835163237dfb4760e11b81523381850152833593918390829060249082906001600160a01b03165afa8015610cf957610c3f915f91610ce25750610e6b565b60015483811603610c7b575081927fab40a374bc51de372200a8bc981af8c9ecdc08dfdaef0bb6e09f88f3c616ef3d92600155519283523392a2005b60849184519162461bcd60e51b8352820152603860248201527f5061757361626c652e70617573653a20696e76616c696420617474656d70742060448201527f746f20756e70617573652066756e6374696f6e616c69747900000000000000006064820152fd5b610b009150843d8611610b0657610af88183610d9f565b85513d5f823e3d90fd5b9050823461025757602036600319011261025757610d1f610d89565b9160208160018060a01b039581875f541663755b36bd60e11b82525afa918215610d80575092610d5c91610b6a945f91610d615750163314610df4565b611052565b610d7a915060203d602011610246576102388183610d9f565b85610172565b513d5f823e3d90fd5b600435906001600160a01b038216820361025757565b90601f8019910116810190811067ffffffffffffffff821117610dc157604052565b634e487b7160e01b5f52604160045260245ffd5b9081602091031261025757516001600160a01b03811681036102575790565b15610dfb57565b60405162461bcd60e51b815260206004820152602a60248201527f6d73672e73656e646572206973206e6f74207065726d697373696f6e6564206160448201526939903ab73830bab9b2b960b11b6064820152608490fd5b90816020910312610257575180151581036102575790565b15610e7257565b60405162461bcd60e51b815260206004820152602860248201527f6d73672e73656e646572206973206e6f74207065726d697373696f6e6564206160448201526739903830bab9b2b960c11b6064820152608490fd5b15610ecf57565b60405162461bcd60e51b815260206004820152601f60248201527f4370436861696e426173652e6f6e6c7953747261746567794d616e61676572006044820152606490fd5b81810292918115918404141715610f2757565b634e487b7160e01b5f52601160045260245ffd5b8115610f45570490565b634e487b7160e01b5f52601260045260245ffd5b6068546103e8808201809211610f275747908101809111610f2757610f81926102f191610f14565b90565b91908203918211610f2757565b604051636aab395560e01b81526001600160a01b03918216600482015290602090829060249082907f0000000000000000000000000000000000000000000000000000000000000000165afa90811561101d575f91610fee575090565b90506020813d602011611015575b8161100960209383610d9f565b81010312610257575190565b3d9150610ffc565b6040513d5f823e3d90fd5b606854906103e890818301809311610f275747918201809211610f2757610f81926102f191610f14565b6001600160a01b039081169081156110a7577f6e9fcd539896fca60e8b0f01dd580233e48a6b0f7df013b89ba7f565869acdb660405f549281519084168152846020820152a16001600160a01b031916175f55565b60405162461bcd60e51b815260206004820152604960248201527f5061757361626c652e5f73657450617573657252656769737472793a206e657760448201527f50617573657252656769737472792063616e6e6f7420626520746865207a65726064820152686f206164647265737360b81b608482015260a490fd5b816066547fb566d3df2587c9e70b06b6419bdeeeeec8ca8cd60e4c48c6baad0d94c46809c760408051838152856020820152a17f78131f623b32212db92dadc6f203f2aeb863f71ce1a61b8eafc1ece42816c5ba60406067548151908152846020820152a11161119657606655606755565b60405162461bcd60e51b815260206004820152604360248201527f4370436861696e426173652e5f7365744465706f7369744c696d6974733a206d60448201527f696e4465706f736974206d757374206c657373207468616e206d61784465706f6064820152621cda5d60ea1b608482015260a490fdfea264697066735822122019411bc64bc3b795ac20765df9447489239297ac5d8da0f0d13d010880b7a8ce64736f6c63430008180033","linkReferences":{}},"methodIdentifiers":{"cpChainDepositManager()":"3ea8c24c","deposit(uint256)":"b6b55f25","explanation()":"ab5921e1","getDepositLimits()":"7f414cf8","initialize(address,uint256,uint256)":"7a1ac61e","maxDeposit()":"6083e59a","minDeposit()":"41b3d185","pause(uint256)":"136439dd","pauseAll()":"595c6a67","paused()":"5c975abb","paused(uint8)":"5ac86ab7","pauserRegistry()":"886f1195","setDepositLimits(uint256,uint256)":"4eddea06","setPauserRegistry(address)":"10d67a2f","shares(address)":"ce7c2ac2","sharesToUnderlying(uint256)":"f3e73875","sharesToUnderlyingView(uint256)":"7a8b2637","totalShares()":"3a98ef39","underlyingToShares(uint256)":"8c871019","underlyingToSharesView(uint256)":"e3dae51c","unpause(uint256)":"fabc1cbc","userUnderlying(address)":"8f6a6240","userUnderlyingView(address)":"553ca5f8","withdraw(address,uint256)":"f3fef3a3"},"id":55}