{"abi":[{"type":"constructor","inputs":[],"stateMutability":"nonpayable"},{"type":"function","name":"cpChainDepositManager","inputs":[],"outputs":[{"name":"","type":"address","internalType":"contract ICpChainDepositManager"}],"stateMutability":"view"},{"type":"function","name":"deleteStaker","inputs":[{"name":"staker","type":"address","internalType":"address"}],"outputs":[],"stateMutability":"nonpayable"},{"type":"function","name":"deposit","inputs":[{"name":"amount","type":"uint256","internalType":"uint256"},{"name":"staker","type":"address","internalType":"address"}],"outputs":[{"name":"newShares","type":"uint256","internalType":"uint256"}],"stateMutability":"payable"},{"type":"function","name":"explanation","inputs":[],"outputs":[{"name":"","type":"string","internalType":"string"}],"stateMutability":"pure"},{"type":"function","name":"getDepositLimits","inputs":[],"outputs":[{"name":"","type":"uint256","internalType":"uint256"},{"name":"","type":"uint256","internalType":"uint256"}],"stateMutability":"view"},{"type":"function","name":"initialize","inputs":[{"name":"_pauserRegistry","type":"address","internalType":"contract IPauserRegistry"},{"name":"_minDeposit","type":"uint256","internalType":"uint256"},{"name":"_maxDeposit","type":"uint256","internalType":"uint256"},{"name":"_cpChainDepositManager","type":"address","internalType":"contract ICpChainDepositManager"}],"outputs":[],"stateMutability":"nonpayable"},{"type":"function","name":"maxDeposit","inputs":[],"outputs":[{"name":"","type":"uint256","internalType":"uint256"}],"stateMutability":"view"},{"type":"function","name":"minDeposit","inputs":[],"outputs":[{"name":"","type":"uint256","internalType":"uint256"}],"stateMutability":"view"},{"type":"function","name":"pause","inputs":[{"name":"newPausedStatus","type":"uint256","internalType":"uint256"}],"outputs":[],"stateMutability":"nonpayable"},{"type":"function","name":"pauseAll","inputs":[],"outputs":[],"stateMutability":"nonpayable"},{"type":"function","name":"paused","inputs":[{"name":"index","type":"uint8","internalType":"uint8"}],"outputs":[{"name":"","type":"bool","internalType":"bool"}],"stateMutability":"view"},{"type":"function","name":"paused","inputs":[],"outputs":[{"name":"","type":"uint256","internalType":"uint256"}],"stateMutability":"view"},{"type":"function","name":"pauserRegistry","inputs":[],"outputs":[{"name":"","type":"address","internalType":"contract IPauserRegistry"}],"stateMutability":"view"},{"type":"function","name":"setDepositLimits","inputs":[{"name":"newMinDeposit","type":"uint256","internalType":"uint256"},{"name":"newMaxDeposit","type":"uint256","internalType":"uint256"}],"outputs":[],"stateMutability":"nonpayable"},{"type":"function","name":"setPauserRegistry","inputs":[{"name":"newPauserRegistry","type":"address","internalType":"contract IPauserRegistry"}],"outputs":[],"stateMutability":"nonpayable"},{"type":"function","name":"shares","inputs":[{"name":"user","type":"address","internalType":"address"}],"outputs":[{"name":"","type":"uint256","internalType":"uint256"}],"stateMutability":"view"},{"type":"function","name":"sharesToUnderlying","inputs":[{"name":"amountShares","type":"uint256","internalType":"uint256"}],"outputs":[{"name":"","type":"uint256","internalType":"uint256"}],"stateMutability":"view"},{"type":"function","name":"sharesToUnderlyingView","inputs":[{"name":"amountShares","type":"uint256","internalType":"uint256"}],"outputs":[{"name":"","type":"uint256","internalType":"uint256"}],"stateMutability":"view"},{"type":"function","name":"stakerListFind","inputs":[{"name":"index","type":"uint256","internalType":"uint256"}],"outputs":[{"name":"","type":"address","internalType":"address"}],"stateMutability":"view"},{"type":"function","name":"stakerListLength","inputs":[],"outputs":[{"name":"","type":"uint256","internalType":"uint256"}],"stateMutability":"view"},{"type":"function","name":"stakerNumbers","inputs":[],"outputs":[{"name":"","type":"uint256","internalType":"uint256"}],"stateMutability":"view"},{"type":"function","name":"totalShares","inputs":[],"outputs":[{"name":"","type":"uint256","internalType":"uint256"}],"stateMutability":"view"},{"type":"function","name":"underlyingToShares","inputs":[{"name":"amountUnderlying","type":"uint256","internalType":"uint256"}],"outputs":[{"name":"","type":"uint256","internalType":"uint256"}],"stateMutability":"view"},{"type":"function","name":"underlyingToSharesView","inputs":[{"name":"amountUnderlying","type":"uint256","internalType":"uint256"}],"outputs":[{"name":"","type":"uint256","internalType":"uint256"}],"stateMutability":"view"},{"type":"function","name":"unpause","inputs":[{"name":"newPausedStatus","type":"uint256","internalType":"uint256"}],"outputs":[],"stateMutability":"nonpayable"},{"type":"function","name":"userUnderlying","inputs":[{"name":"user","type":"address","internalType":"address"}],"outputs":[{"name":"","type":"uint256","internalType":"uint256"}],"stateMutability":"nonpayable"},{"type":"function","name":"userUnderlyingView","inputs":[{"name":"user","type":"address","internalType":"address"}],"outputs":[{"name":"","type":"uint256","internalType":"uint256"}],"stateMutability":"view"},{"type":"function","name":"withdraw","inputs":[{"name":"recipient","type":"address","internalType":"address"},{"name":"amountShares","type":"uint256","internalType":"uint256"}],"outputs":[],"stateMutability":"nonpayable"},{"type":"event","name":"Initialized","inputs":[{"name":"version","type":"uint64","indexed":false,"internalType":"uint64"}],"anonymous":false},{"type":"event","name":"MaxDepositUpdated","inputs":[{"name":"previousValue","type":"uint256","indexed":false,"internalType":"uint256"},{"name":"newValue","type":"uint256","indexed":false,"internalType":"uint256"}],"anonymous":false},{"type":"event","name":"MinDepositUpdated","inputs":[{"name":"previousValue","type":"uint256","indexed":false,"internalType":"uint256"},{"name":"newValue","type":"uint256","indexed":false,"internalType":"uint256"}],"anonymous":false},{"type":"event","name":"Paused","inputs":[{"name":"account","type":"address","indexed":true,"internalType":"address"},{"name":"newPausedStatus","type":"uint256","indexed":false,"internalType":"uint256"}],"anonymous":false},{"type":"event","name":"PauserRegistrySet","inputs":[{"name":"pauserRegistry","type":"address","indexed":false,"internalType":"contract IPauserRegistry"},{"name":"newPauserRegistry","type":"address","indexed":false,"internalType":"contract IPauserRegistry"}],"anonymous":false},{"type":"event","name":"Unpaused","inputs":[{"name":"account","type":"address","indexed":true,"internalType":"address"},{"name":"newPausedStatus","type":"uint256","indexed":false,"internalType":"uint256"}],"anonymous":false},{"type":"error","name":"InvalidInitialization","inputs":[]},{"type":"error","name":"NotInitializing","inputs":[]}],"bytecode":{"object":"0x608080604052346100b8577ff0c57e16840df040f15088dc2f81fe391c3923bec73e23a9662efc9c229c6a009081549060ff8260401c166100a957506001600160401b036002600160401b031982821601610064575b6040516114d590816100bd8239f35b6001600160401b031990911681179091556040519081527fc7f505b2f371ae2175ee4913f4499e1f2633a7b5936321eed1cdaeb6115181d290602090a15f8080610055565b63f92ee8a960e01b8152600490fd5b5f80fdfe608060409080825260049081361015610016575f80fd5b5f3560e01c90816310d67a2f14610f6a57508063136439dd14610e5257806328bc078d14610e1d5780633a98ef3914610dff5780633ea8c24c14610dd757806341b3d18514610db95780634eddea0614610d8357806351d75fe314610d65578063553ca5f814610818578063595c6a6714610ca65780635ac86ab714610c745780635c975abb14610c565780636083e59a14610c385780636e553f65146109c05780637a8b2637146104995780637f414cf81461099d57806385d1965d14610867578063886f1195146108405780638c871019146104bf5780638f6a6240146108185780639e3d87cd146105d8578063ab5921e114610521578063ce7c2ac2146104fc578063d3301da5146104de578063e3dae51c146104bf578063f3e7387514610499578063f3fef3a3146102875763fabc1cbc14610154575f80fd5b3461028357602080600319360112610283575f54835163755b36bd60e11b8152833593916001600160a01b0390849083908590829085165afa8015610279576101a7925f9161024c575b5016331461105b565b6001541983198116036101e5575081927f3582d1828e26bf56bd801502bc021ac0bc8afb57c826e4986b45593c8fad389c92600155519283523392a2005b60849184519162461bcd60e51b8352820152603860248201527f5061757361626c652e756e70617573653a20696e76616c696420617474656d7060448201527f7420746f2070617573652066756e6374696f6e616c69747900000000000000006064820152fd5b61026c9150853d8711610272575b6102648183611006565b81019061103c565b5f61019e565b503d61025a565b86513d5f823e3d90fd5b5f80fd5b50346102835781600319360112610283576102a0610ff0565b91602492833590600154610457576066546001600160a01b0391906102c89083163314611178565b606954928381116103da576103e8808501908186116103c857479081018091116103c857935f9591936103138461030d8998976103088a99988a996111e5565b6111f8565b946111c4565b606955165af13d156103c3573d67ffffffffffffffff81116103b157825190610346601f8201601f191660200183611006565b81525f60203d92013e5b1561035757005b6084926020603092519362461bcd60e51b85528401528201527f4370436861696e426173652e5f61667465725769746864726177616c3a20747260448201526f185b9cd9995c8818dc0819985a5b195960821b6064820152fd5b84604185634e487b7160e01b5f52525ffd5b610350565b88601189634e487b7160e01b5f52525ffd5b845162461bcd60e51b8152602081880152604c818901527f4370436861696e426173652e77697468647261773a20616d6f756e745368617260448201527f6573206d757374206265206c657373207468616e206f7220657175616c20746f60648201526b20746f74616c53686172657360a01b608482015260a490fd5b825162461bcd60e51b8152602081860152601c818701527f5061757361626c653a20636f6e747261637420697320706175736564000000006044820152606490fd5b509034610283576020366003190112610283576104b860209235611216565b9051908152f35b509034610283576020366003190112610283576104b8602092356112ba565b8234610283575f36600319011261028357602090606b549051908152f35b8234610283576020366003190112610283576020906104b861051c610ff0565b611241565b509034610283575f366003190112610283578051918183019083821067ffffffffffffffff8311176105c557508152601c825260207f4370436861696e20506f73205374616b696e672050726f746f636f6c0000000060208401528151928391602083528151918260208501525f5b8381106105af5750505f83830185015250601f01601f19168101030190f35b8181018301518782018701528694508201610590565b604190634e487b7160e01b5f525260245ffd5b5034610283576080366003190112610283576105f2610ff0565b6001600160a01b03906064358281169190829003610283577ff0c57e16840df040f15088dc2f81fe391c3923bec73e23a9662efc9c229c6a009384549360ff85881c16159467ffffffffffffffff811680159081610810575b6001149081610806575b1590816107fd575b506107ed5767ffffffffffffffff1981166001178755856107ce575b506106886044356024356113b6565b60ff8654881c16156107bf57805f54161590816107b3575b501561073a57506106df905f60015585515f81527fab40a374bc51de372200a8bc981af8c9ecdc08dfdaef0bb6e09f88f3c616ef3d60203392a26112e4565b6bffffffffffffffffffffffff60a01b60665416176066556106fd57005b805468ff00000000000000001916905551600181527fc7f505b2f371ae2175ee4913f4499e1f2633a7b5936321eed1cdaeb6115181d290602090a1005b60a490602087519162461bcd60e51b8352820152604760248201527f5061757361626c652e5f696e697469616c697a655061757365723a205f696e6960448201527f7469616c697a6550617573657228292063616e206f6e6c792062652063616c6c6064820152666564206f6e636560c81b6084820152fd5b9050821615155f6106a0565b508551631afcd79f60e31b8152fd5b68ffffffffffffffffff1916680100000000000000011786555f610679565b875163f92ee8a960e01b81528390fd5b9050155f61065d565b303b159150610655565b87915061064b565b8234610283576020366003190112610283576020906104b861083b61051c610ff0565b611216565b8234610283575f366003190112610283575f5490516001600160a01b039091168152602090f35b503461028357602036600319011261028357610881610ff0565b6066546001600160a01b039061089a9082163314611178565b606b80549282165f5b8481106108d8575b5050505050606a54905f1982019182116108c55750606a55005b601190634e487b7160e01b5f525260245ffd5b83826108e38361112f565b929054600393841b1c16146108fb57506001016108a3565b606a549095509293925f19925082810190811161098a57906109308461092361094e9461112f565b905490891b1c169161112f565b90919060018060a01b038084549260031b9316831b921b1916179055565b825480156109775701926109618461112f565b81939154921b1b191690555581808080806108ab565b603186634e487b7160e01b5f525260245ffd5b601187634e487b7160e01b5f525260245ffd5b8234610283575f3660031901126102835760675460685482519182526020820152f35b50908060031936011261028357602491803591908335906001600160a01b038083168303610283576109f790606654163314611178565b606a549460209586811015610bf6576067548610610b8e576068548611610b2657606954956103e880880190818911610b145747908101809111610b14578291610a47610a4d94610308936111c4565b926111e5565b958615610abb57868101809111610aa957606955600101606a55606b549168010000000000000000831015610a9857505090610930826001610a929401606b5561112f565b51908152f35b604190634e487b7160e01b5f52525ffd5b82601185634e487b7160e01b5f52525ffd5b855162461bcd60e51b8152808501899052602e818501527f4370436861696e426173652e6465706f7369743a206e6577207368617265732060448201526d63616e6e6f74206265207a65726f60901b6064820152608490fd5b84601187634e487b7160e01b5f52525ffd5b845162461bcd60e51b8152808401889052603c818401527f4370436861696e426173653a206465706f73697420746f6b656e206d7573742060448201527f6c657373207468616e206d6178206465706f73697420616d6f756e74000000006064820152608490fd5b845162461bcd60e51b8152808401889052603c818401527f4370436861696e426173653a206465706f73697420746f6b656e206d7573742060448201527f6d6f7265207468616e206d696e206465706f73697420616d6f756e74000000006064820152608490fd5b845162461bcd60e51b8152808401889052601d818401527f5374616b65727320746f6f206d75636820696e207468697320706f6f6c0000006044820152606490fd5b8234610283575f366003190112610283576020906068549051908152f35b8234610283575f366003190112610283576020906001549051908152f35b503461028357602036600319011261028357359060ff82168092036102835760016020921b8060015416149051908152f35b5034610283575f366003190112610283575f54825163237dfb4760e11b81523392810192909252602090829060249082906001600160a01b03165afa8015610d5b57610cf9915f91610d2c575b506110d2565b5f199081600155519081527fab40a374bc51de372200a8bc981af8c9ecdc08dfdaef0bb6e09f88f3c616ef3d60203392a2005b610d4e915060203d602011610d54575b610d468183611006565b8101906110ba565b5f610cf3565b503d610d3c565b82513d5f823e3d90fd5b8234610283575f36600319011261028357602090606a549051908152f35b5090346102835736600319011261028357610db790610dad60018060a01b03606654163314611178565b60243590356113b6565b005b8234610283575f366003190112610283576020906067549051908152f35b8234610283575f3660031901126102835760665490516001600160a01b039091168152602090f35b8234610283575f366003190112610283576020906069549051908152f35b50903461028357602036600319011261028357610e3c6020923561112f565b905491519160018060a01b039160031b1c168152f35b503461028357602080600319360112610283575f54835163237dfb4760e11b81523381850152833593918390829060249082906001600160a01b03165afa8015610f6057610ea6915f91610f4957506110d2565b60015483811603610ee2575081927fab40a374bc51de372200a8bc981af8c9ecdc08dfdaef0bb6e09f88f3c616ef3d92600155519283523392a2005b60849184519162461bcd60e51b8352820152603860248201527f5061757361626c652e70617573653a20696e76616c696420617474656d70742060448201527f746f20756e70617573652066756e6374696f6e616c69747900000000000000006064820152fd5b610d4e9150843d8611610d5457610d468183611006565b85513d5f823e3d90fd5b9050823461028357602036600319011261028357610f86610ff0565b9160208160018060a01b039581875f541663755b36bd60e11b82525afa918215610fe7575092610fc391610db7945f91610fc8575016331461105b565b6112e4565b610fe1915060203d602011610272576102648183611006565b8561019e565b513d5f823e3d90fd5b600435906001600160a01b038216820361028357565b90601f8019910116810190811067ffffffffffffffff82111761102857604052565b634e487b7160e01b5f52604160045260245ffd5b9081602091031261028357516001600160a01b03811681036102835790565b1561106257565b60405162461bcd60e51b815260206004820152602a60248201527f6d73672e73656e646572206973206e6f74207065726d697373696f6e6564206160448201526939903ab73830bab9b2b960b11b6064820152608490fd5b90816020910312610283575180151581036102835790565b156110d957565b60405162461bcd60e51b815260206004820152602860248201527f6d73672e73656e646572206973206e6f74207065726d697373696f6e6564206160448201526739903830bab9b2b960c11b6064820152608490fd5b606b5481101561116457606b5f527fbd43cb8ece8cd1863bcd6082d65c5b0d25665b1ce17980f0da43c0ed545f98b401905f90565b634e487b7160e01b5f52603260045260245ffd5b1561117f57565b60405162461bcd60e51b815260206004820152601f60248201527f4370436861696e426173652e6f6e6c7953747261746567794d616e61676572006044820152606490fd5b919082039182116111d157565b634e487b7160e01b5f52601160045260245ffd5b818102929181159184041417156111d157565b8115611202570490565b634e487b7160e01b5f52601260045260245ffd5b6069546103e88082018092116111d157479081018091116111d15761123e92610308916111e5565b90565b606654604051636aab395560e01b81526001600160a01b0392831660048201529160209183916024918391165afa9081156112af575f91611280575090565b90506020813d6020116112a7575b8161129b60209383611006565b81010312610283575190565b3d915061128e565b6040513d5f823e3d90fd5b606954906103e8908183018093116111d157479182018092116111d15761123e92610308916111e5565b6001600160a01b03908116908115611339577f6e9fcd539896fca60e8b0f01dd580233e48a6b0f7df013b89ba7f565869acdb660405f549281519084168152846020820152a16001600160a01b031916175f55565b60405162461bcd60e51b815260206004820152604960248201527f5061757361626c652e5f73657450617573657252656769737472793a206e657760448201527f50617573657252656769737472792063616e6e6f7420626520746865207a65726064820152686f206164647265737360b81b608482015260a490fd5b816067547fb566d3df2587c9e70b06b6419bdeeeeec8ca8cd60e4c48c6baad0d94c46809c760408051838152856020820152a17f78131f623b32212db92dadc6f203f2aeb863f71ce1a61b8eafc1ece42816c5ba60406068548151908152846020820152a11161142857606755606855565b60405162461bcd60e51b815260206004820152604360248201527f4370436861696e426173652e5f7365744465706f7369744c696d6974733a206d60448201527f696e4465706f736974206d757374206c657373207468616e206d61784465706f6064820152621cda5d60ea1b608482015260a490fdfea2646970667358221220073dbd57615629fb220a12653b2d4fd44a5044cc9388dc8a66821e19e3d673e164736f6c63430008180033","linkReferences":{}},"methodIdentifiers":{"cpChainDepositManager()":"3ea8c24c","deleteStaker(address)":"85d1965d","deposit(uint256,address)":"6e553f65","explanation()":"ab5921e1","getDepositLimits()":"7f414cf8","initialize(address,uint256,uint256,address)":"9e3d87cd","maxDeposit()":"6083e59a","minDeposit()":"41b3d185","pause(uint256)":"136439dd","pauseAll()":"595c6a67","paused()":"5c975abb","paused(uint8)":"5ac86ab7","pauserRegistry()":"886f1195","setDepositLimits(uint256,uint256)":"4eddea06","setPauserRegistry(address)":"10d67a2f","shares(address)":"ce7c2ac2","sharesToUnderlying(uint256)":"f3e73875","sharesToUnderlyingView(uint256)":"7a8b2637","stakerListFind(uint256)":"28bc078d","stakerListLength()":"d3301da5","stakerNumbers()":"51d75fe3","totalShares()":"3a98ef39","underlyingToShares(uint256)":"8c871019","underlyingToSharesView(uint256)":"e3dae51c","unpause(uint256)":"fabc1cbc","userUnderlying(address)":"8f6a6240","userUnderlyingView(address)":"553ca5f8","withdraw(address,uint256)":"f3fef3a3"},"id":54}