{"abi":[{"type":"constructor","inputs":[],"stateMutability":"nonpayable"},{"type":"function","name":"cpChainDepositManager","inputs":[],"outputs":[{"name":"","type":"address","internalType":"contract ICpChainDepositManager"}],"stateMutability":"view"},{"type":"function","name":"deposit","inputs":[{"name":"amount","type":"uint256","internalType":"uint256"}],"outputs":[{"name":"newShares","type":"uint256","internalType":"uint256"}],"stateMutability":"payable"},{"type":"function","name":"explanation","inputs":[],"outputs":[{"name":"","type":"string","internalType":"string"}],"stateMutability":"pure"},{"type":"function","name":"getDepositLimits","inputs":[],"outputs":[{"name":"","type":"uint256","internalType":"uint256"},{"name":"","type":"uint256","internalType":"uint256"}],"stateMutability":"view"},{"type":"function","name":"initialize","inputs":[{"name":"_pauserRegistry","type":"address","internalType":"contract IPauserRegistry"},{"name":"_minDeposit","type":"uint256","internalType":"uint256"},{"name":"_maxDeposit","type":"uint256","internalType":"uint256"},{"name":"_cpChainDepositManager","type":"address","internalType":"contract ICpChainDepositManager"}],"outputs":[],"stateMutability":"nonpayable"},{"type":"function","name":"maxDeposit","inputs":[],"outputs":[{"name":"","type":"uint256","internalType":"uint256"}],"stateMutability":"view"},{"type":"function","name":"minDeposit","inputs":[],"outputs":[{"name":"","type":"uint256","internalType":"uint256"}],"stateMutability":"view"},{"type":"function","name":"pause","inputs":[{"name":"newPausedStatus","type":"uint256","internalType":"uint256"}],"outputs":[],"stateMutability":"nonpayable"},{"type":"function","name":"pauseAll","inputs":[],"outputs":[],"stateMutability":"nonpayable"},{"type":"function","name":"paused","inputs":[{"name":"index","type":"uint8","internalType":"uint8"}],"outputs":[{"name":"","type":"bool","internalType":"bool"}],"stateMutability":"view"},{"type":"function","name":"paused","inputs":[],"outputs":[{"name":"","type":"uint256","internalType":"uint256"}],"stateMutability":"view"},{"type":"function","name":"pauserRegistry","inputs":[],"outputs":[{"name":"","type":"address","internalType":"contract IPauserRegistry"}],"stateMutability":"view"},{"type":"function","name":"setDepositLimits","inputs":[{"name":"newMinDeposit","type":"uint256","internalType":"uint256"},{"name":"newMaxDeposit","type":"uint256","internalType":"uint256"}],"outputs":[],"stateMutability":"nonpayable"},{"type":"function","name":"setPauserRegistry","inputs":[{"name":"newPauserRegistry","type":"address","internalType":"contract IPauserRegistry"}],"outputs":[],"stateMutability":"nonpayable"},{"type":"function","name":"shares","inputs":[{"name":"user","type":"address","internalType":"address"}],"outputs":[{"name":"","type":"uint256","internalType":"uint256"}],"stateMutability":"view"},{"type":"function","name":"sharesToUnderlying","inputs":[{"name":"amountShares","type":"uint256","internalType":"uint256"}],"outputs":[{"name":"","type":"uint256","internalType":"uint256"}],"stateMutability":"view"},{"type":"function","name":"sharesToUnderlyingView","inputs":[{"name":"amountShares","type":"uint256","internalType":"uint256"}],"outputs":[{"name":"","type":"uint256","internalType":"uint256"}],"stateMutability":"view"},{"type":"function","name":"totalShares","inputs":[],"outputs":[{"name":"","type":"uint256","internalType":"uint256"}],"stateMutability":"view"},{"type":"function","name":"underlyingToShares","inputs":[{"name":"amountUnderlying","type":"uint256","internalType":"uint256"}],"outputs":[{"name":"","type":"uint256","internalType":"uint256"}],"stateMutability":"view"},{"type":"function","name":"underlyingToSharesView","inputs":[{"name":"amountUnderlying","type":"uint256","internalType":"uint256"}],"outputs":[{"name":"","type":"uint256","internalType":"uint256"}],"stateMutability":"view"},{"type":"function","name":"unpause","inputs":[{"name":"newPausedStatus","type":"uint256","internalType":"uint256"}],"outputs":[],"stateMutability":"nonpayable"},{"type":"function","name":"userUnderlying","inputs":[{"name":"user","type":"address","internalType":"address"}],"outputs":[{"name":"","type":"uint256","internalType":"uint256"}],"stateMutability":"nonpayable"},{"type":"function","name":"userUnderlyingView","inputs":[{"name":"user","type":"address","internalType":"address"}],"outputs":[{"name":"","type":"uint256","internalType":"uint256"}],"stateMutability":"view"},{"type":"function","name":"withdraw","inputs":[{"name":"recipient","type":"address","internalType":"address"},{"name":"amountShares","type":"uint256","internalType":"uint256"}],"outputs":[],"stateMutability":"nonpayable"},{"type":"event","name":"Initialized","inputs":[{"name":"version","type":"uint64","indexed":false,"internalType":"uint64"}],"anonymous":false},{"type":"event","name":"MaxDepositUpdated","inputs":[{"name":"previousValue","type":"uint256","indexed":false,"internalType":"uint256"},{"name":"newValue","type":"uint256","indexed":false,"internalType":"uint256"}],"anonymous":false},{"type":"event","name":"MinDepositUpdated","inputs":[{"name":"previousValue","type":"uint256","indexed":false,"internalType":"uint256"},{"name":"newValue","type":"uint256","indexed":false,"internalType":"uint256"}],"anonymous":false},{"type":"event","name":"Paused","inputs":[{"name":"account","type":"address","indexed":true,"internalType":"address"},{"name":"newPausedStatus","type":"uint256","indexed":false,"internalType":"uint256"}],"anonymous":false},{"type":"event","name":"PauserRegistrySet","inputs":[{"name":"pauserRegistry","type":"address","indexed":false,"internalType":"contract IPauserRegistry"},{"name":"newPauserRegistry","type":"address","indexed":false,"internalType":"contract IPauserRegistry"}],"anonymous":false},{"type":"event","name":"Unpaused","inputs":[{"name":"account","type":"address","indexed":true,"internalType":"address"},{"name":"newPausedStatus","type":"uint256","indexed":false,"internalType":"uint256"}],"anonymous":false},{"type":"error","name":"InvalidInitialization","inputs":[]},{"type":"error","name":"NotInitializing","inputs":[]}],"bytecode":{"object":"0x608080604052346100b8577ff0c57e16840df040f15088dc2f81fe391c3923bec73e23a9662efc9c229c6a009081549060ff8260401c166100a957506001600160401b036002600160401b031982821601610064575b60405161121c90816100bd8239f35b6001600160401b031990911681179091556040519081527fc7f505b2f371ae2175ee4913f4499e1f2633a7b5936321eed1cdaeb6115181d290602090a15f8080610055565b63f92ee8a960e01b8152600490fd5b5f80fdfe608060409080825260049081361015610016575f80fd5b5f3560e01c90816310d67a2f14610cfa57508063136439dd14610be25780633a98ef3914610bc45780633ea8c24c14610b9c57806341b3d18514610b7e5780634eddea0614610b48578063553ca5f8146109a9578063595c6a6714610a895780635ac86ab714610a575780635c975abb14610a395780636083e59a14610a1b5780637a8b26371461046d5780637f414cf8146109f8578063886f1195146109d15780638c871019146104935780638f6a6240146109a95780639e3d87cd14610769578063ab5921e1146106b2578063b6b55f25146104d7578063ce7c2ac2146104b2578063e3dae51c14610493578063f3e738751461046d578063f3fef3a31461025b5763fabc1cbc14610128575f80fd5b3461025757602080600319360112610257575f54835163755b36bd60e11b8152833593916001600160a01b0390849083908590829085165afa801561024d5761017b925f91610220575b50163314610deb565b6001541983198116036101b9575081927f3582d1828e26bf56bd801502bc021ac0bc8afb57c826e4986b45593c8fad389c92600155519283523392a2005b60849184519162461bcd60e51b8352820152603860248201527f5061757361626c652e756e70617573653a20696e76616c696420617474656d7060448201527f7420746f2070617573652066756e6374696f6e616c69747900000000000000006064820152fd5b6102409150853d8711610246575b6102388183610d96565b810190610dcc565b5f610172565b503d61022e565b86513d5f823e3d90fd5b5f80fd5b5034610257578160031936011261025757610274610d80565b9160249283359060015461042b576066546001600160a01b03919061029c9083163314610ebf565b606954928381116103ae576103e88085019081861161039c574790810180911161039c57935f9591936102e7846102e18998976102dc8a99988a99610f0b565b610f32565b94610f7b565b606955165af13d15610397573d67ffffffffffffffff81116103855782519061031a601f8201601f191660200183610d96565b81525f60203d92013e5b1561032b57005b6084926020603092519362461bcd60e51b85528401528201527f4370436861696e426173652e5f61667465725769746864726177616c3a20747260448201526f185b9cd9995c8818dc0819985a5b195960821b6064820152fd5b84604185634e487b7160e01b5f52525ffd5b610324565b88601189634e487b7160e01b5f52525ffd5b845162461bcd60e51b8152602081880152604c818901527f4370436861696e426173652e77697468647261773a20616d6f756e745368617260448201527f6573206d757374206265206c657373207468616e206f7220657175616c20746f60648201526b20746f74616c53686172657360a01b608482015260a490fd5b825162461bcd60e51b8152602081860152601c818701527f5061757361626c653a20636f6e747261637420697320706175736564000000006044820152606490fd5b5090346102575760203660031901126102575761048c60209235610f50565b9051908152f35b5090346102575760203660031901126102575761048c60209235611001565b82346102575760203660031901126102575760209061048c6104d2610d80565b610f88565b50906020366003190112610257578135906104fd60018060a01b03606654163314610ebf565b606754821061064a5760685482116105e257606954916103e8808401908185116105cf57479081018091116105cf57829161053e610544946102dc93610f7b565b92610f0b565b91821561057557828101809111610562576020935060695551908152f35b601184634e487b7160e01b5f525260245ffd5b815162461bcd60e51b8152602081860152602e60248201527f4370436861696e426173652e6465706f7369743a206e6577207368617265732060448201526d63616e6e6f74206265207a65726f60901b6064820152608490fd5b601186634e487b7160e01b5f525260245ffd5b5162461bcd60e51b8152602081840152603c60248201527f4370436861696e426173653a206465706f73697420746f6b656e206d7573742060448201527f6c657373207468616e206d6178206465706f73697420616d6f756e74000000006064820152608490fd5b5162461bcd60e51b8152602081840152603c60248201527f4370436861696e426173653a206465706f73697420746f6b656e206d7573742060448201527f6d6f7265207468616e206d696e206465706f73697420616d6f756e74000000006064820152608490fd5b509034610257575f366003190112610257578051918183019083821067ffffffffffffffff83111761075657508152601c825260207f4370436861696e20506f73205374616b696e672050726f746f636f6c0000000060208401528151928391602083528151918260208501525f5b8381106107405750505f83830185015250601f01601f19168101030190f35b8181018301518782018701528694508201610721565b604190634e487b7160e01b5f525260245ffd5b503461025757608036600319011261025757610783610d80565b6001600160a01b03906064358281169190829003610257577ff0c57e16840df040f15088dc2f81fe391c3923bec73e23a9662efc9c229c6a009384549360ff85881c16159467ffffffffffffffff8116801590816109a1575b6001149081610997575b15908161098e575b5061097e5767ffffffffffffffff19811660011787558561095f575b506108196044356024356110fd565b60ff8654881c161561095057805f5416159081610944575b50156108cb5750610870905f60015585515f81527fab40a374bc51de372200a8bc981af8c9ecdc08dfdaef0bb6e09f88f3c616ef3d60203392a261102b565b6bffffffffffffffffffffffff60a01b606654161760665561088e57005b805468ff00000000000000001916905551600181527fc7f505b2f371ae2175ee4913f4499e1f2633a7b5936321eed1cdaeb6115181d290602090a1005b60a490602087519162461bcd60e51b8352820152604760248201527f5061757361626c652e5f696e697469616c697a655061757365723a205f696e6960448201527f7469616c697a6550617573657228292063616e206f6e6c792062652063616c6c6064820152666564206f6e636560c81b6084820152fd5b9050821615155f610831565b508551631afcd79f60e31b8152fd5b68ffffffffffffffffff1916680100000000000000011786555f61080a565b875163f92ee8a960e01b81528390fd5b9050155f6107ee565b303b1591506107e6565b8791506107dc565b82346102575760203660031901126102575760209061048c6109cc6104d2610d80565b610f50565b8234610257575f366003190112610257575f5490516001600160a01b039091168152602090f35b8234610257575f3660031901126102575760675460685482519182526020820152f35b8234610257575f366003190112610257576020906068549051908152f35b8234610257575f366003190112610257576020906001549051908152f35b503461025757602036600319011261025757359060ff82168092036102575760016020921b8060015416149051908152f35b5034610257575f366003190112610257575f54825163237dfb4760e11b81523392810192909252602090829060249082906001600160a01b03165afa8015610b3e57610adc915f91610b0f575b50610e62565b5f199081600155519081527fab40a374bc51de372200a8bc981af8c9ecdc08dfdaef0bb6e09f88f3c616ef3d60203392a2005b610b31915060203d602011610b37575b610b298183610d96565b810190610e4a565b5f610ad6565b503d610b1f565b82513d5f823e3d90fd5b5090346102575736600319011261025757610b7c90610b7260018060a01b03606654163314610ebf565b60243590356110fd565b005b8234610257575f366003190112610257576020906067549051908152f35b8234610257575f3660031901126102575760665490516001600160a01b039091168152602090f35b8234610257575f366003190112610257576020906069549051908152f35b503461025757602080600319360112610257575f54835163237dfb4760e11b81523381850152833593918390829060249082906001600160a01b03165afa8015610cf057610c36915f91610cd95750610e62565b60015483811603610c72575081927fab40a374bc51de372200a8bc981af8c9ecdc08dfdaef0bb6e09f88f3c616ef3d92600155519283523392a2005b60849184519162461bcd60e51b8352820152603860248201527f5061757361626c652e70617573653a20696e76616c696420617474656d70742060448201527f746f20756e70617573652066756e6374696f6e616c69747900000000000000006064820152fd5b610b319150843d8611610b3757610b298183610d96565b85513d5f823e3d90fd5b9050823461025757602036600319011261025757610d16610d80565b9160208160018060a01b039581875f541663755b36bd60e11b82525afa918215610d77575092610d5391610b7c945f91610d585750163314610deb565b61102b565b610d71915060203d602011610246576102388183610d96565b85610172565b513d5f823e3d90fd5b600435906001600160a01b038216820361025757565b90601f8019910116810190811067ffffffffffffffff821117610db857604052565b634e487b7160e01b5f52604160045260245ffd5b9081602091031261025757516001600160a01b03811681036102575790565b15610df257565b60405162461bcd60e51b815260206004820152602a60248201527f6d73672e73656e646572206973206e6f74207065726d697373696f6e6564206160448201526939903ab73830bab9b2b960b11b6064820152608490fd5b90816020910312610257575180151581036102575790565b15610e6957565b60405162461bcd60e51b815260206004820152602860248201527f6d73672e73656e646572206973206e6f74207065726d697373696f6e6564206160448201526739903830bab9b2b960c11b6064820152608490fd5b15610ec657565b60405162461bcd60e51b815260206004820152601f60248201527f4370436861696e426173652e6f6e6c7953747261746567794d616e61676572006044820152606490fd5b81810292918115918404141715610f1e57565b634e487b7160e01b5f52601160045260245ffd5b8115610f3c570490565b634e487b7160e01b5f52601260045260245ffd5b6069546103e8808201809211610f1e5747908101809111610f1e57610f78926102dc91610f0b565b90565b91908203918211610f1e57565b606654604051636aab395560e01b81526001600160a01b0392831660048201529160209183916024918391165afa908115610ff6575f91610fc7575090565b90506020813d602011610fee575b81610fe260209383610d96565b81010312610257575190565b3d9150610fd5565b6040513d5f823e3d90fd5b606954906103e890818301809311610f1e5747918201809211610f1e57610f78926102dc91610f0b565b6001600160a01b03908116908115611080577f6e9fcd539896fca60e8b0f01dd580233e48a6b0f7df013b89ba7f565869acdb660405f549281519084168152846020820152a16001600160a01b031916175f55565b60405162461bcd60e51b815260206004820152604960248201527f5061757361626c652e5f73657450617573657252656769737472793a206e657760448201527f50617573657252656769737472792063616e6e6f7420626520746865207a65726064820152686f206164647265737360b81b608482015260a490fd5b816067547fb566d3df2587c9e70b06b6419bdeeeeec8ca8cd60e4c48c6baad0d94c46809c760408051838152856020820152a17f78131f623b32212db92dadc6f203f2aeb863f71ce1a61b8eafc1ece42816c5ba60406068548151908152846020820152a11161116f57606755606855565b60405162461bcd60e51b815260206004820152604360248201527f4370436861696e426173652e5f7365744465706f7369744c696d6974733a206d60448201527f696e4465706f736974206d757374206c657373207468616e206d61784465706f6064820152621cda5d60ea1b608482015260a490fdfea264697066735822122046219bdfd22c999c7e3ab32ad0e9fe512b6b434f8ade3615f8399be0bee3b7d164736f6c63430008180033","linkReferences":{}},"methodIdentifiers":{"cpChainDepositManager()":"3ea8c24c","deposit(uint256)":"b6b55f25","explanation()":"ab5921e1","getDepositLimits()":"7f414cf8","initialize(address,uint256,uint256,address)":"9e3d87cd","maxDeposit()":"6083e59a","minDeposit()":"41b3d185","pause(uint256)":"136439dd","pauseAll()":"595c6a67","paused()":"5c975abb","paused(uint8)":"5ac86ab7","pauserRegistry()":"886f1195","setDepositLimits(uint256,uint256)":"4eddea06","setPauserRegistry(address)":"10d67a2f","shares(address)":"ce7c2ac2","sharesToUnderlying(uint256)":"f3e73875","sharesToUnderlyingView(uint256)":"7a8b2637","totalShares()":"3a98ef39","underlyingToShares(uint256)":"8c871019","underlyingToSharesView(uint256)":"e3dae51c","unpause(uint256)":"fabc1cbc","userUnderlying(address)":"8f6a6240","userUnderlyingView(address)":"553ca5f8","withdraw(address,uint256)":"f3fef3a3"},"id":39}