{"abi":[{"type":"constructor","inputs":[{"name":"_cpChainDepositManager","type":"address","internalType":"contract ICpChainDepositManager"}],"stateMutability":"nonpayable"},{"type":"function","name":"cpChainDepositManager","inputs":[],"outputs":[{"name":"","type":"address","internalType":"contract ICpChainDepositManager"}],"stateMutability":"view"},{"type":"function","name":"deposit","inputs":[{"name":"amount","type":"uint256","internalType":"uint256"}],"outputs":[{"name":"newShares","type":"uint256","internalType":"uint256"}],"stateMutability":"nonpayable"},{"type":"function","name":"explanation","inputs":[],"outputs":[{"name":"","type":"string","internalType":"string"}],"stateMutability":"pure"},{"type":"function","name":"getDepositLimits","inputs":[],"outputs":[{"name":"","type":"uint256","internalType":"uint256"},{"name":"","type":"uint256","internalType":"uint256"}],"stateMutability":"view"},{"type":"function","name":"initialize","inputs":[{"name":"_pauserRegistry","type":"address","internalType":"contract IPauserRegistry"},{"name":"_minDeposit","type":"uint256","internalType":"uint256"},{"name":"_maxDeposit","type":"uint256","internalType":"uint256"}],"outputs":[],"stateMutability":"nonpayable"},{"type":"function","name":"maxDeposit","inputs":[],"outputs":[{"name":"","type":"uint256","internalType":"uint256"}],"stateMutability":"view"},{"type":"function","name":"minDeposit","inputs":[],"outputs":[{"name":"","type":"uint256","internalType":"uint256"}],"stateMutability":"view"},{"type":"function","name":"pause","inputs":[{"name":"newPausedStatus","type":"uint256","internalType":"uint256"}],"outputs":[],"stateMutability":"nonpayable"},{"type":"function","name":"pauseAll","inputs":[],"outputs":[],"stateMutability":"nonpayable"},{"type":"function","name":"paused","inputs":[{"name":"index","type":"uint8","internalType":"uint8"}],"outputs":[{"name":"","type":"bool","internalType":"bool"}],"stateMutability":"view"},{"type":"function","name":"paused","inputs":[],"outputs":[{"name":"","type":"uint256","internalType":"uint256"}],"stateMutability":"view"},{"type":"function","name":"pauserRegistry","inputs":[],"outputs":[{"name":"","type":"address","internalType":"contract IPauserRegistry"}],"stateMutability":"view"},{"type":"function","name":"setDepositLimits","inputs":[{"name":"newMinDeposit","type":"uint256","internalType":"uint256"},{"name":"newMaxDeposit","type":"uint256","internalType":"uint256"}],"outputs":[],"stateMutability":"nonpayable"},{"type":"function","name":"setPauserRegistry","inputs":[{"name":"newPauserRegistry","type":"address","internalType":"contract IPauserRegistry"}],"outputs":[],"stateMutability":"nonpayable"},{"type":"function","name":"shares","inputs":[{"name":"user","type":"address","internalType":"address"}],"outputs":[{"name":"","type":"uint256","internalType":"uint256"}],"stateMutability":"view"},{"type":"function","name":"sharesToUnderlying","inputs":[{"name":"amountShares","type":"uint256","internalType":"uint256"}],"outputs":[{"name":"","type":"uint256","internalType":"uint256"}],"stateMutability":"view"},{"type":"function","name":"sharesToUnderlyingView","inputs":[{"name":"amountShares","type":"uint256","internalType":"uint256"}],"outputs":[{"name":"","type":"uint256","internalType":"uint256"}],"stateMutability":"view"},{"type":"function","name":"totalShares","inputs":[],"outputs":[{"name":"","type":"uint256","internalType":"uint256"}],"stateMutability":"view"},{"type":"function","name":"underlyingToShares","inputs":[{"name":"amountUnderlying","type":"uint256","internalType":"uint256"}],"outputs":[{"name":"","type":"uint256","internalType":"uint256"}],"stateMutability":"view"},{"type":"function","name":"underlyingToSharesView","inputs":[{"name":"amountUnderlying","type":"uint256","internalType":"uint256"}],"outputs":[{"name":"","type":"uint256","internalType":"uint256"}],"stateMutability":"view"},{"type":"function","name":"unpause","inputs":[{"name":"newPausedStatus","type":"uint256","internalType":"uint256"}],"outputs":[],"stateMutability":"nonpayable"},{"type":"function","name":"userUnderlying","inputs":[{"name":"user","type":"address","internalType":"address"}],"outputs":[{"name":"","type":"uint256","internalType":"uint256"}],"stateMutability":"nonpayable"},{"type":"function","name":"userUnderlyingView","inputs":[{"name":"user","type":"address","internalType":"address"}],"outputs":[{"name":"","type":"uint256","internalType":"uint256"}],"stateMutability":"view"},{"type":"function","name":"withdraw","inputs":[{"name":"recipient","type":"address","internalType":"address"},{"name":"amountShares","type":"uint256","internalType":"uint256"}],"outputs":[],"stateMutability":"nonpayable"},{"type":"event","name":"Initialized","inputs":[{"name":"version","type":"uint64","indexed":false,"internalType":"uint64"}],"anonymous":false},{"type":"event","name":"MaxDepositUpdated","inputs":[{"name":"previousValue","type":"uint256","indexed":false,"internalType":"uint256"},{"name":"newValue","type":"uint256","indexed":false,"internalType":"uint256"}],"anonymous":false},{"type":"event","name":"MinDepositUpdated","inputs":[{"name":"previousValue","type":"uint256","indexed":false,"internalType":"uint256"},{"name":"newValue","type":"uint256","indexed":false,"internalType":"uint256"}],"anonymous":false},{"type":"event","name":"Paused","inputs":[{"name":"account","type":"address","indexed":true,"internalType":"address"},{"name":"newPausedStatus","type":"uint256","indexed":false,"internalType":"uint256"}],"anonymous":false},{"type":"event","name":"PauserRegistrySet","inputs":[{"name":"pauserRegistry","type":"address","indexed":false,"internalType":"contract IPauserRegistry"},{"name":"newPauserRegistry","type":"address","indexed":false,"internalType":"contract IPauserRegistry"}],"anonymous":false},{"type":"event","name":"Unpaused","inputs":[{"name":"account","type":"address","indexed":true,"internalType":"address"},{"name":"newPausedStatus","type":"uint256","indexed":false,"internalType":"uint256"}],"anonymous":false},{"type":"error","name":"InvalidInitialization","inputs":[]},{"type":"error","name":"NotInitializing","inputs":[]}],"bytecode":{"object":"0x60a034610119576001600160401b0390601f6113be38819003918201601f19168301918483118484101761011d5780849260209460405283398101031261011957516001600160a01b0381168103610119576080527ff0c57e16840df040f15088dc2f81fe391c3923bec73e23a9662efc9c229c6a009081549060ff8260401c166101075780808316036100c2575b60405161128c908161013282396080518181816102910152818161050f01528181610b7b01528181610be701526110040152f35b6001600160401b031990911681179091556040519081527fc7f505b2f371ae2175ee4913f4499e1f2633a7b5936321eed1cdaeb6115181d290602090a15f808061008e565b60405163f92ee8a960e01b8152600490fd5b5f80fd5b634e487b7160e01b5f52604160045260245ffdfe608060409080825260049081361015610016575f80fd5b5f3560e01c90816310d67a2f14610d4c57508063136439dd14610c345780633a98ef3914610c165780633ea8c24c14610bd357806341b3d18514610bb55780634eddea0614610b60578063553ca5f8146107a9578063595c6a6714610aa15780635ac86ab714610a6f5780635c975abb14610a515780636083e59a14610a335780637a1ac61e1461081b5780637a8b2637146104895780637f414cf8146107f8578063886f1195146107d15780638c871019146104af5780638f6a6240146107a9578063ab5921e1146106f2578063b6b55f25146104f3578063ce7c2ac2146104ce578063e3dae51c146104af578063f3e7387514610489578063f3fef3a31461025b5763fabc1cbc14610128575f80fd5b3461025757602080600319360112610257575f54835163755b36bd60e11b8152833593916001600160a01b0390849083908590829085165afa801561024d5761017b925f91610220575b50163314610e3d565b6001541983198116036101b9575081927f3582d1828e26bf56bd801502bc021ac0bc8afb57c826e4986b45593c8fad389c92600155519283523392a2005b60849184519162461bcd60e51b8352820152603860248201527f5061757361626c652e756e70617573653a20696e76616c696420617474656d7060448201527f7420746f2070617573652066756e6374696f6e616c69747900000000000000006064820152fd5b6102409150853d8711610246575b6102388183610de8565b810190610e1e565b5f610172565b503d61022e565b86513d5f823e3d90fd5b5f80fd5b5034610257578160031936011261025757610274610dd2565b91602492833590600154610447576001600160a01b03906102b8337f0000000000000000000000000000000000000000000000000000000000000000841614610f11565b606854928381116103ca576103e8808501908186116103b857479081018091116103b857935f959193610303846102fd8998976102f88a99988a99610f5d565b610f84565b94610fcd565b606855165af13d156103b3573d67ffffffffffffffff81116103a157825190610336601f8201601f191660200183610de8565b81525f60203d92013e5b1561034757005b6084926020603092519362461bcd60e51b85528401528201527f4370436861696e426173652e5f61667465725769746864726177616c3a20747260448201526f185b9cd9995c8818dc0819985a5b195960821b6064820152fd5b84604185634e487b7160e01b5f52525ffd5b610340565b88601189634e487b7160e01b5f52525ffd5b845162461bcd60e51b8152602081880152604c818901527f4370436861696e426173652e77697468647261773a20616d6f756e745368617260448201527f6573206d757374206265206c657373207468616e206f7220657175616c20746f60648201526b20746f74616c53686172657360a01b608482015260a490fd5b825162461bcd60e51b8152602081860152601c818701527f5061757361626c653a20636f6e747261637420697320706175736564000000006044820152606490fd5b509034610257576020366003190112610257576104a860209235610fa2565b9051908152f35b509034610257576020366003190112610257576104a860209235611071565b8234610257576020366003190112610257576020906104a86104ee610dd2565b610fda565b5090346102575760203660031901126102575781359061053d337f00000000000000000000000000000000000000000000000000000000000000006001600160a01b031614610f11565b606654821061068a57606754821161062257606854916103e88084019081851161060f574790810180911161060f57829161057e610584946102f893610fcd565b92610f5d565b9182156105b5578281018091116105a2576020935060685551908152f35b601184634e487b7160e01b5f525260245ffd5b815162461bcd60e51b8152602081860152602e60248201527f4370436861696e426173652e6465706f7369743a206e6577207368617265732060448201526d63616e6e6f74206265207a65726f60901b6064820152608490fd5b601186634e487b7160e01b5f525260245ffd5b5162461bcd60e51b8152602081840152603c60248201527f4370436861696e426173653a206465706f73697420746f6b656e206d7573742060448201527f6c657373207468616e206d6178206465706f73697420616d6f756e74000000006064820152608490fd5b5162461bcd60e51b8152602081840152603c60248201527f4370436861696e426173653a206465706f73697420746f6b656e206d7573742060448201527f6d6f7265207468616e206d696e206465706f73697420616d6f756e74000000006064820152608490fd5b509034610257575f366003190112610257578051918183019083821067ffffffffffffffff83111761079657508152601c825260207f4370436861696e20506f73205374616b696e672050726f746f636f6c0000000060208401528151928391602083528151918260208501525f5b8381106107805750505f83830185015250601f01601f19168101030190f35b8181018301518782018701528694508201610761565b604190634e487b7160e01b5f525260245ffd5b8234610257576020366003190112610257576020906104a86107cc6104ee610dd2565b610fa2565b8234610257575f366003190112610257575f5490516001600160a01b039091168152602090f35b8234610257575f3660031901126102575760665460675482519182526020820152f35b503461025757606036600319011261025757610835610dd2565b907ff0c57e16840df040f15088dc2f81fe391c3923bec73e23a9662efc9c229c6a009182549160ff83861c16159267ffffffffffffffff811680159081610a2b575b6001149081610a21575b159081610a18575b50610a095767ffffffffffffffff1981166001178555836109ea575b506108b460443560243561116d565b60ff8454861c16156109dc575f546001600160a01b039081161590816109d0575b50156109575750610914905f60015584515f81527fab40a374bc51de372200a8bc981af8c9ecdc08dfdaef0bb6e09f88f3c616ef3d60203392a261109b565b61091a57005b805468ff00000000000000001916905551600181527fc7f505b2f371ae2175ee4913f4499e1f2633a7b5936321eed1cdaeb6115181d290602090a1005b60a490602086519162461bcd60e51b8352820152604760248201527f5061757361626c652e5f696e697469616c697a655061757365723a205f696e6960448201527f7469616c697a6550617573657228292063616e206f6e6c792062652063616c6c6064820152666564206f6e636560c81b6084820152fd5b9050821615155f6108d5565b8451631afcd79f60e31b8152fd5b68ffffffffffffffffff1916680100000000000000011784555f6108a5565b50845163f92ee8a960e01b8152fd5b9050155f610889565b303b159150610881565b859150610877565b8234610257575f366003190112610257576020906067549051908152f35b8234610257575f366003190112610257576020906001549051908152f35b503461025757602036600319011261025757359060ff82168092036102575760016020921b8060015416149051908152f35b5034610257575f366003190112610257575f54825163237dfb4760e11b81523392810192909252602090829060249082906001600160a01b03165afa8015610b5657610af4915f91610b27575b50610eb4565b5f199081600155519081527fab40a374bc51de372200a8bc981af8c9ecdc08dfdaef0bb6e09f88f3c616ef3d60203392a2005b610b49915060203d602011610b4f575b610b418183610de8565b810190610e9c565b5f610aee565b503d610b37565b82513d5f823e3d90fd5b5090346102575736600319011261025757610bb390610ba9337f00000000000000000000000000000000000000000000000000000000000000006001600160a01b031614610f11565b602435903561116d565b005b8234610257575f366003190112610257576020906066549051908152f35b8234610257575f36600319011261025757517f00000000000000000000000000000000000000000000000000000000000000006001600160a01b03168152602090f35b8234610257575f366003190112610257576020906068549051908152f35b503461025757602080600319360112610257575f54835163237dfb4760e11b81523381850152833593918390829060249082906001600160a01b03165afa8015610d4257610c88915f91610d2b5750610eb4565b60015483811603610cc4575081927fab40a374bc51de372200a8bc981af8c9ecdc08dfdaef0bb6e09f88f3c616ef3d92600155519283523392a2005b60849184519162461bcd60e51b8352820152603860248201527f5061757361626c652e70617573653a20696e76616c696420617474656d70742060448201527f746f20756e70617573652066756e6374696f6e616c69747900000000000000006064820152fd5b610b499150843d8611610b4f57610b418183610de8565b85513d5f823e3d90fd5b9050823461025757602036600319011261025757610d68610dd2565b9160208160018060a01b039581875f541663755b36bd60e11b82525afa918215610dc9575092610da591610bb3945f91610daa5750163314610e3d565b61109b565b610dc3915060203d602011610246576102388183610de8565b85610172565b513d5f823e3d90fd5b600435906001600160a01b038216820361025757565b90601f8019910116810190811067ffffffffffffffff821117610e0a57604052565b634e487b7160e01b5f52604160045260245ffd5b9081602091031261025757516001600160a01b03811681036102575790565b15610e4457565b60405162461bcd60e51b815260206004820152602a60248201527f6d73672e73656e646572206973206e6f74207065726d697373696f6e6564206160448201526939903ab73830bab9b2b960b11b6064820152608490fd5b90816020910312610257575180151581036102575790565b15610ebb57565b60405162461bcd60e51b815260206004820152602860248201527f6d73672e73656e646572206973206e6f74207065726d697373696f6e6564206160448201526739903830bab9b2b960c11b6064820152608490fd5b15610f1857565b60405162461bcd60e51b815260206004820152601f60248201527f4370436861696e426173652e6f6e6c7953747261746567794d616e61676572006044820152606490fd5b81810292918115918404141715610f7057565b634e487b7160e01b5f52601160045260245ffd5b8115610f8e570490565b634e487b7160e01b5f52601260045260245ffd5b6068546103e8808201809211610f705747908101809111610f7057610fca926102f891610f5d565b90565b91908203918211610f7057565b604051636aab395560e01b81526001600160a01b03918216600482015290602090829060249082907f0000000000000000000000000000000000000000000000000000000000000000165afa908115611066575f91611037575090565b90506020813d60201161105e575b8161105260209383610de8565b81010312610257575190565b3d9150611045565b6040513d5f823e3d90fd5b606854906103e890818301809311610f705747918201809211610f7057610fca926102f891610f5d565b6001600160a01b039081169081156110f0577f6e9fcd539896fca60e8b0f01dd580233e48a6b0f7df013b89ba7f565869acdb660405f549281519084168152846020820152a16001600160a01b031916175f55565b60405162461bcd60e51b815260206004820152604960248201527f5061757361626c652e5f73657450617573657252656769737472793a206e657760448201527f50617573657252656769737472792063616e6e6f7420626520746865207a65726064820152686f206164647265737360b81b608482015260a490fd5b816066547fb566d3df2587c9e70b06b6419bdeeeeec8ca8cd60e4c48c6baad0d94c46809c760408051838152856020820152a17f78131f623b32212db92dadc6f203f2aeb863f71ce1a61b8eafc1ece42816c5ba60406067548151908152846020820152a1116111df57606655606755565b60405162461bcd60e51b815260206004820152604360248201527f4370436861696e426173652e5f7365744465706f7369744c696d6974733a206d60448201527f696e4465706f736974206d757374206c657373207468616e206d61784465706f6064820152621cda5d60ea1b608482015260a490fdfea2646970667358221220672bcd37384bd83a260434bcd6579af452087f69d040f43883fd004ac3e665ea64736f6c63430008180033","linkReferences":{}},"methodIdentifiers":{"cpChainDepositManager()":"3ea8c24c","deposit(uint256)":"b6b55f25","explanation()":"ab5921e1","getDepositLimits()":"7f414cf8","initialize(address,uint256,uint256)":"7a1ac61e","maxDeposit()":"6083e59a","minDeposit()":"41b3d185","pause(uint256)":"136439dd","pauseAll()":"595c6a67","paused()":"5c975abb","paused(uint8)":"5ac86ab7","pauserRegistry()":"886f1195","setDepositLimits(uint256,uint256)":"4eddea06","setPauserRegistry(address)":"10d67a2f","shares(address)":"ce7c2ac2","sharesToUnderlying(uint256)":"f3e73875","sharesToUnderlyingView(uint256)":"7a8b2637","totalShares()":"3a98ef39","underlyingToShares(uint256)":"8c871019","underlyingToSharesView(uint256)":"e3dae51c","unpause(uint256)":"fabc1cbc","userUnderlying(address)":"8f6a6240","userUnderlyingView(address)":"553ca5f8","withdraw(address,uint256)":"f3fef3a3"},"id":53}