{"abi":[{"type":"constructor","inputs":[],"stateMutability":"nonpayable"},{"type":"receive","stateMutability":"payable"},{"type":"function","name":"DEPOSIT_TYPEHASH","inputs":[],"outputs":[{"name":"","type":"bytes32","internalType":"bytes32"}],"stateMutability":"view"},{"type":"function","name":"DOMAIN_TYPEHASH","inputs":[],"outputs":[{"name":"","type":"bytes32","internalType":"bytes32"}],"stateMutability":"view"},{"type":"function","name":"addShares","inputs":[{"name":"staker","type":"address","internalType":"address"},{"name":"shares","type":"uint256","internalType":"uint256"}],"outputs":[],"stateMutability":"nonpayable"},{"type":"function","name":"cpChainBase","inputs":[],"outputs":[{"name":"","type":"address","internalType":"contract ICpChainBase"}],"stateMutability":"view"},{"type":"function","name":"delegation","inputs":[],"outputs":[{"name":"","type":"address","internalType":"contract IDelegationManager"}],"stateMutability":"view"},{"type":"function","name":"depositIntoCpChain","inputs":[{"name":"amount","type":"uint256","internalType":"uint256"}],"outputs":[{"name":"shares","type":"uint256","internalType":"uint256"}],"stateMutability":"payable"},{"type":"function","name":"depositIntoCpChainWithSignature","inputs":[{"name":"amount","type":"uint256","internalType":"uint256"},{"name":"staker","type":"address","internalType":"address"},{"name":"expiry","type":"uint256","internalType":"uint256"},{"name":"signature","type":"bytes","internalType":"bytes"}],"outputs":[{"name":"shares","type":"uint256","internalType":"uint256"}],"stateMutability":"payable"},{"type":"function","name":"domainSeparator","inputs":[],"outputs":[{"name":"","type":"bytes32","internalType":"bytes32"}],"stateMutability":"view"},{"type":"function","name":"getDeposits","inputs":[{"name":"staker","type":"address","internalType":"address"}],"outputs":[{"name":"","type":"uint256","internalType":"uint256"}],"stateMutability":"view"},{"type":"function","name":"initialize","inputs":[{"name":"initialOwner","type":"address","internalType":"address"},{"name":"_delegation","type":"address","internalType":"contract IDelegationManager"},{"name":"_cpChainBase","type":"address","internalType":"contract ICpChainBase"}],"outputs":[],"stateMutability":"nonpayable"},{"type":"function","name":"nonces","inputs":[{"name":"","type":"address","internalType":"address"}],"outputs":[{"name":"","type":"uint256","internalType":"uint256"}],"stateMutability":"view"},{"type":"function","name":"owner","inputs":[],"outputs":[{"name":"","type":"address","internalType":"address"}],"stateMutability":"view"},{"type":"function","name":"removeShares","inputs":[{"name":"staker","type":"address","internalType":"address"},{"name":"shareAmount","type":"uint256","internalType":"uint256"}],"outputs":[],"stateMutability":"nonpayable"},{"type":"function","name":"renounceOwnership","inputs":[],"outputs":[],"stateMutability":"nonpayable"},{"type":"function","name":"stakerCpChainBaseShares","inputs":[{"name":"","type":"address","internalType":"address"}],"outputs":[{"name":"","type":"uint256","internalType":"uint256"}],"stateMutability":"view"},{"type":"function","name":"transferOwnership","inputs":[{"name":"newOwner","type":"address","internalType":"address"}],"outputs":[],"stateMutability":"nonpayable"},{"type":"function","name":"withdrawSharesAsCp","inputs":[{"name":"recipient","type":"address","internalType":"address"},{"name":"shares","type":"uint256","internalType":"uint256"}],"outputs":[],"stateMutability":"nonpayable"},{"type":"function","name":"withdrawalRootPending","inputs":[{"name":"","type":"bytes32","internalType":"bytes32"}],"outputs":[{"name":"","type":"bool","internalType":"bool"}],"stateMutability":"view"},{"type":"event","name":"CpChainBaseAddedToDepositWhitelist","inputs":[{"name":"chainbase","type":"address","indexed":false,"internalType":"contract ICpChainBase"}],"anonymous":false},{"type":"event","name":"CpChainBaseRemovedFromDepositWhitelist","inputs":[{"name":"chainbase","type":"address","indexed":false,"internalType":"contract ICpChainBase"}],"anonymous":false},{"type":"event","name":"CpChainBaseWhitelisterChanged","inputs":[{"name":"previousAddress","type":"address","indexed":false,"internalType":"address"},{"name":"newAddress","type":"address","indexed":false,"internalType":"address"}],"anonymous":false},{"type":"event","name":"Deposit","inputs":[{"name":"staker","type":"address","indexed":false,"internalType":"address"},{"name":"chainbase","type":"address","indexed":false,"internalType":"contract ICpChainBase"},{"name":"shares","type":"uint256","indexed":false,"internalType":"uint256"}],"anonymous":false},{"type":"event","name":"Initialized","inputs":[{"name":"version","type":"uint64","indexed":false,"internalType":"uint64"}],"anonymous":false},{"type":"event","name":"OwnershipTransferred","inputs":[{"name":"previousOwner","type":"address","indexed":true,"internalType":"address"},{"name":"newOwner","type":"address","indexed":true,"internalType":"address"}],"anonymous":false},{"type":"event","name":"UpdatedThirdPartyTransfersForbidden","inputs":[{"name":"chainbase","type":"address","indexed":false,"internalType":"contract ICpChainBase"},{"name":"value","type":"bool","indexed":false,"internalType":"bool"}],"anonymous":false},{"type":"error","name":"ECDSAInvalidSignature","inputs":[]},{"type":"error","name":"ECDSAInvalidSignatureLength","inputs":[{"name":"length","type":"uint256","internalType":"uint256"}]},{"type":"error","name":"ECDSAInvalidSignatureS","inputs":[{"name":"s","type":"bytes32","internalType":"bytes32"}]},{"type":"error","name":"InvalidInitialization","inputs":[]},{"type":"error","name":"NotInitializing","inputs":[]},{"type":"error","name":"OwnableInvalidOwner","inputs":[{"name":"owner","type":"address","internalType":"address"}]},{"type":"error","name":"OwnableUnauthorizedAccount","inputs":[{"name":"account","type":"address","internalType":"address"}]},{"type":"error","name":"ReentrancyGuardReentrantCall","inputs":[]}],"bytecode":{"object":"0x608080604052346100b8577ff0c57e16840df040f15088dc2f81fe391c3923bec73e23a9662efc9c229c6a009081549060ff8260401c166100a957506001600160401b036002600160401b031982821601610064575b60405161123490816100bd8239f35b6001600160401b031990911681179091556040519081527fc7f505b2f371ae2175ee4913f4499e1f2633a7b5936321eed1cdaeb6115181d290602090a15f8080610055565b63f92ee8a960e01b8152600490fd5b5f80fdfe6040608081526004908136101561001f575b5050361561001d575f80fd5b005b5f915f3560e01c9081630e81073c14610bb157816320606b7014610b775781633893fb28146106ee5781633a5f60721461069657816347c0715a1461066e57816348825e94146106345781636aab39551461052d578163715018a6146105cd5781637ecebe00146105985781638da5cb5b1461056457816394f649dd1461052d5781639780b9641461048d578163beffbb891461033d578163c0c53b8b146101c3578163c3c6b3a914610196578163df5cf7231461016d578163f2fde38b14610113575063f698da2503610011573461010f578160031936011261010f57602090610108610cda565b9051908152f35b5080fd5b9050346101695760203660031901126101695761012e610bea565b91610137610f69565b6001600160a01b03831615610153578361015084610fa1565b80f35b51631e4fbdf760e01b8152908101839052602490fd5b8280fd5b50503461010f578160031936011261010f5760025490516001600160a01b039091168152602090f35b905034610169576020366003190112610169578160209360ff923581526006855220541690519015158152f35b905034610169576060366003190112610169576101de610bea565b906001600160a01b036024358181169081900361033957604435918216809203610339577ff0c57e16840df040f15088dc2f81fe391c3923bec73e23a9662efc9c229c6a0093845460ff81881c16159467ffffffffffffffff821680159081610331575b6001149081610327575b15908161031e575b50610310575067ffffffffffffffff19811660011786556102869190856102f1575b5061027f610ff5565b8855610fa1565b6bffffffffffffffffffffffff60a01b9081600254161760025560035416176003556102b0578280f35b805468ff00000000000000001916905551600181527fc7f505b2f371ae2175ee4913f4499e1f2633a7b5936321eed1cdaeb6115181d290602090a15f808280f35b68ffffffffffffffffff1916680100000000000000011786555f610276565b875163f92ee8a960e01b8152fd5b9050155f610254565b303b15915061024c565b879150610242565b8580fd5b8391503461010f578260031936011261010f57610358610bea565b600254602435916001600160a01b03916103759083163314610c4a565b82156104185716808452600560205284842054928383116103af5750938394845260056020528320918181038355146103ab5750f35b5580f35b608490602087519162461bcd60e51b8352820152603960248201527f4370436861696e4465706f7369744d616e616765722e5f72656d6f766553686160448201527f7265733a207368617265416d6f756e7420746f6f2068696768000000000000006064820152fd5b855162461bcd60e51b8152602081860152604360248201527f4370436861696e4465706f7369744d616e616765722e72656d6f76655368617260448201527f65733a207368617265416d6f756e742073686f756c64206e6f74206265207a65606482015262726f2160e81b608482015260a490fd5b919050346105295780600319360112610529576104a8610bea565b6002546001600160a01b03906104c19082163314610c4a565b6003541692833b1561052957825163f3fef3a360e01b81526001600160a01b03909216908201908152602435602082015290925f9184919082908490829060400103925af19081156105205750610516575080f35b61001d9150610c00565b513d5f823e3d90fd5b5f80fd5b8234610529576020366003190112610529576020906001600160a01b03610552610bea565b165f5260058252805f20549051908152f35b8234610529575f366003190112610529575f805160206111df8339815191525490516001600160a01b039091168152602090f35b8234610529576020366003190112610529576020916001600160a01b036105bd610bea565b165f528252805f20549051908152f35b34610529575f366003190112610529576105e5610f69565b5f805160206111df83398151915280546001600160a01b031981169091555f906001600160a01b03167f8be0079c531659141344cd1fd0a4f28419497f9722a3daafe3b4186f6b6457e08280a3005b8234610529575f36600319011261052957602090517f744dc556907155a3a54465dc628bdbfe478bd04f1a625f994fed10332ec9e9f68152f35b8234610529575f3660031901126105295760035490516001600160a01b039091168152602090f35b826020366003190112610529576106c3602092356106b2610e4c565b6106bd348214610c8e565b33610e8e565b9060017f9b779b17422d0df92223018b32b4d1fa46e071723d6817e2486d003becc55f005551908152f35b826080366003190112610529576001600160a01b0391803590602480359190858316908184036105295767ffffffffffffffff966064928335916044358a8411610529573660238501121561052957838701359a808c11610b6557908a929160209c8d96610768601f1996519887601f8501160189610c28565b8188523689838301011161052957818f91928a5f9401838b01378801015261078e610e4c565b610799348c14610c8e565b428210610aea57845f52888d528b8d815f205493878351928301937f744dc556907155a3a54465dc628bdbfe478bd04f1a625f994fed10332ec9e9f685528301528d606083015284608083015260a082015260a0815260c0810181811084821117610ad8578e525190205f8681528a8f528d902060019093019092558c959493929190610824610cda565b918d519788019261190160f01b84526022890152604288015260428752608087019187831082841117610ac657828e5287519020968e9594939291908c3b156109c457505050509290868b51948593630b135d3f60e11b978886528b8601528d89860152805190816044870152865f5b8381106109aa5750505f86830185015250601f01168301839003019082905afa9081156109a0575f91610962575b506001600160e01b031916036108df57505050906106c391610e8e565b855162461bcd60e51b81529283018790526053908301527f454950313237315369676e61747572655574696c732e636865636b5369676e6160448301527f747572655f454950313237313a2045524331323731207369676e61747572652090820152721d995c9a599a58d85d1a5bdb8819985a5b1959606a1b608482015260a490fd5b90508881813d8311610999575b6109798183610c28565b8101031261052957516001600160e01b03198116810361052957896108c2565b503d61096f565b88513d5f823e3d90fd5b8083018201518a82018e01528997508c9550889101610894565b909296955060e091935060a08198959801947f19457468657265756d205369676e6564204d6573736167653a0a333200000000865260bc820152603c8452019082821090821117610ab4578b52519020610a2a91610a219161109f565b909291926110d9565b1603610a3d57505050906106c391610e8e565b855162461bcd60e51b81529283018790526047908301527f454950313237315369676e61747572655574696c732e636865636b5369676e6160448301527f747572655f454950313237313a207369676e6174757265206e6f742066726f6d90820152661039b4b3b732b960c91b608482015260a490fd5b8660418a634e487b7160e01b5f52525ffd5b8860418c634e487b7160e01b5f52525ffd5b8960418d634e487b7160e01b5f52525ffd5b5050895162461bcd60e51b81528088018c90526048818701527f4370436861696e4465706f7369744d616e616765722e6465706f736974496e7460448201527f6f4370436861696e576974685369676e61747572653a207369676e6174757265818801526708195e1c1a5c995960c21b608482015260a49150fd5b85604189634e487b7160e01b5f52525ffd5b8234610529575f36600319011261052957602090517f8cad95687ba82c2ce50e74f7b754645e5117c3a5bec8151c0726d5857980a8668152f35b8234610529573660031901126105295761001d610bcc610bea565b610be160018060a01b03600254163314610c4a565b60243590610cf3565b600435906001600160a01b038216820361052957565b67ffffffffffffffff8111610c1457604052565b634e487b7160e01b5f52604160045260245ffd5b90601f8019910116810190811067ffffffffffffffff821117610c1457604052565b15610c5157565b60405162461bcd60e51b815260206004820152601560248201527437b7363ca232b632b3b0ba34b7b726b0b730b3b2b960591b6044820152606490fd5b15610c9557565b60405162461bcd60e51b815260206004820152601e60248201527f6465706f7369742076616c7565206e6f74206d6174636820616d6f756e7400006044820152606490fd5b606c544603610ce8575f5490565b610cf0610ff5565b90565b6001600160a01b03919082168015610de1578115610d7657805f52600560205260405f2091825493818501809511610d62577f5548c837ab068cf56a2c2479df0882a4922fd203edb7517321831d95078c5f6294606094556003541660405192835260208301526040820152a1565b634e487b7160e01b5f52601160045260245ffd5b60405162461bcd60e51b815260206004820152603c60248201527f4370436861696e4465706f7369744d616e616765722e5f61646453686172657360448201527f3a207368617265732073686f756c64206e6f74206265207a65726f21000000006064820152608490fd5b60405162461bcd60e51b815260206004820152603f60248201527f4370436861696e4465706f7369744d616e616765722e5f61646453686172657360448201527f3a207374616b65722063616e6e6f74206265207a65726f2061646472657373006064820152608490fd5b7f9b779b17422d0df92223018b32b4d1fa46e071723d6817e2486d003becc55f006002815414610e7c5760029055565b604051633ee5aeb560e01b8152600490fd5b60035460405163b6b55f2560e01b815260048101849052926001600160a01b03916020918591602491839186165af1928315610f2a575f93610f35575b50610ed68383610cf3565b60025416803b15610529576040516313728ed760e11b81526001600160a01b03929092166004830152602482018390525f908290604490829084905af18015610f2a57610f21575090565b610cf090610c00565b6040513d5f823e3d90fd5b9092506020813d602011610f61575b81610f5160209383610c28565b810103126105295751915f610ecb565b3d9150610f44565b5f805160206111df833981519152546001600160a01b03163303610f8957565b60405163118cdaa760e01b8152336004820152602490fd5b5f805160206111df83398151915280546001600160a01b039283166001600160a01b0319821681179092559091167f8be0079c531659141344cd1fd0a4f28419497f9722a3daafe3b4186f6b6457e05f80a3565b6040805167ffffffffffffffff9080830182811182821017610c14576621b821b430b4b760c91b91602091855260078152015281519060208201927f8cad95687ba82c2ce50e74f7b754645e5117c3a5bec8151c0726d5857980a86684527fed3b5dcc89b24450a6fe70b6aeb4f0f5265a8cbd91a2d9fbb80cc5bb797225af818401524660608401523060808401526080835260a083019183831090831117610c14575251902090565b81519190604183036110cf576110c89250602082015190606060408401519301515f1a9061115c565b9192909190565b50505f9160029190565b600481101561114857806110eb575050565b600181036111055760405163f645eedf60e01b8152600490fd5b600281036111265760405163fce698f760e01b815260048101839052602490fd5b6003146111305750565b602490604051906335e2f38360e21b82526004820152fd5b634e487b7160e01b5f52602160045260245ffd5b91907f7fffffffffffffffffffffffffffffff5d576e7357a4501ddfe92f46681b20a084116111d3579160209360809260ff5f9560405194855216868401526040830152606082015282805260015afa15610f2a575f516001600160a01b038116156111c957905f905f90565b505f906001905f90565b5050505f916003919056fe9016d09d72d40fdae2fd8ceac6b6234c7706214fd39c1cd1e609a0528c199300a2646970667358221220ea034c5d6c2615d56df60ccea4131b6472ea6f9aac51fb39d97a2c6673be730264736f6c63430008180033","linkReferences":{}},"methodIdentifiers":{"DEPOSIT_TYPEHASH()":"48825e94","DOMAIN_TYPEHASH()":"20606b70","addShares(address,uint256)":"0e81073c","cpChainBase()":"47c0715a","delegation()":"df5cf723","depositIntoCpChain(uint256)":"3a5f6072","depositIntoCpChainWithSignature(uint256,address,uint256,bytes)":"3893fb28","domainSeparator()":"f698da25","getDeposits(address)":"94f649dd","initialize(address,address,address)":"c0c53b8b","nonces(address)":"7ecebe00","owner()":"8da5cb5b","removeShares(address,uint256)":"beffbb89","renounceOwnership()":"715018a6","stakerCpChainBaseShares(address)":"6aab3955","transferOwnership(address)":"f2fde38b","withdrawSharesAsCp(address,uint256)":"9780b964","withdrawalRootPending(bytes32)":"c3c6b3a9"},"id":43}