{"abi":[{"type":"constructor","inputs":[{"name":"_delegation","type":"address","internalType":"contract IDelegationManager"},{"name":"_cpChainBase","type":"address","internalType":"contract ICpChainBase"}],"stateMutability":"nonpayable"},{"type":"receive","stateMutability":"payable"},{"type":"function","name":"DEPOSIT_TYPEHASH","inputs":[],"outputs":[{"name":"","type":"bytes32","internalType":"bytes32"}],"stateMutability":"view"},{"type":"function","name":"DOMAIN_TYPEHASH","inputs":[],"outputs":[{"name":"","type":"bytes32","internalType":"bytes32"}],"stateMutability":"view"},{"type":"function","name":"addShares","inputs":[{"name":"staker","type":"address","internalType":"address"},{"name":"shares","type":"uint256","internalType":"uint256"}],"outputs":[],"stateMutability":"nonpayable"},{"type":"function","name":"cpChainBase","inputs":[],"outputs":[{"name":"","type":"address","internalType":"contract ICpChainBase"}],"stateMutability":"view"},{"type":"function","name":"delegation","inputs":[],"outputs":[{"name":"","type":"address","internalType":"contract IDelegationManager"}],"stateMutability":"view"},{"type":"function","name":"depositIntoCpChain","inputs":[{"name":"amount","type":"uint256","internalType":"uint256"}],"outputs":[{"name":"shares","type":"uint256","internalType":"uint256"}],"stateMutability":"payable"},{"type":"function","name":"depositIntoCpChainWithSignature","inputs":[{"name":"amount","type":"uint256","internalType":"uint256"},{"name":"staker","type":"address","internalType":"address"},{"name":"expiry","type":"uint256","internalType":"uint256"},{"name":"signature","type":"bytes","internalType":"bytes"}],"outputs":[{"name":"shares","type":"uint256","internalType":"uint256"}],"stateMutability":"payable"},{"type":"function","name":"domainSeparator","inputs":[],"outputs":[{"name":"","type":"bytes32","internalType":"bytes32"}],"stateMutability":"view"},{"type":"function","name":"getDeposits","inputs":[{"name":"staker","type":"address","internalType":"address"}],"outputs":[{"name":"","type":"uint256","internalType":"uint256"}],"stateMutability":"view"},{"type":"function","name":"initialize","inputs":[{"name":"initialOwner","type":"address","internalType":"address"}],"outputs":[],"stateMutability":"nonpayable"},{"type":"function","name":"nonces","inputs":[{"name":"","type":"address","internalType":"address"}],"outputs":[{"name":"","type":"uint256","internalType":"uint256"}],"stateMutability":"view"},{"type":"function","name":"owner","inputs":[],"outputs":[{"name":"","type":"address","internalType":"address"}],"stateMutability":"view"},{"type":"function","name":"removeShares","inputs":[{"name":"staker","type":"address","internalType":"address"},{"name":"shareAmount","type":"uint256","internalType":"uint256"}],"outputs":[],"stateMutability":"nonpayable"},{"type":"function","name":"renounceOwnership","inputs":[],"outputs":[],"stateMutability":"nonpayable"},{"type":"function","name":"stakerCpChainBaseShares","inputs":[{"name":"","type":"address","internalType":"address"}],"outputs":[{"name":"","type":"uint256","internalType":"uint256"}],"stateMutability":"view"},{"type":"function","name":"transferOwnership","inputs":[{"name":"newOwner","type":"address","internalType":"address"}],"outputs":[],"stateMutability":"nonpayable"},{"type":"function","name":"withdrawSharesAsCp","inputs":[{"name":"recipient","type":"address","internalType":"address"},{"name":"shares","type":"uint256","internalType":"uint256"}],"outputs":[],"stateMutability":"nonpayable"},{"type":"function","name":"withdrawalRootPending","inputs":[{"name":"","type":"bytes32","internalType":"bytes32"}],"outputs":[{"name":"","type":"bool","internalType":"bool"}],"stateMutability":"view"},{"type":"event","name":"CpChainBaseAddedToDepositWhitelist","inputs":[{"name":"chainbase","type":"address","indexed":false,"internalType":"contract ICpChainBase"}],"anonymous":false},{"type":"event","name":"CpChainBaseRemovedFromDepositWhitelist","inputs":[{"name":"chainbase","type":"address","indexed":false,"internalType":"contract ICpChainBase"}],"anonymous":false},{"type":"event","name":"CpChainBaseWhitelisterChanged","inputs":[{"name":"previousAddress","type":"address","indexed":false,"internalType":"address"},{"name":"newAddress","type":"address","indexed":false,"internalType":"address"}],"anonymous":false},{"type":"event","name":"Deposit","inputs":[{"name":"staker","type":"address","indexed":false,"internalType":"address"},{"name":"chainbase","type":"address","indexed":false,"internalType":"contract ICpChainBase"},{"name":"shares","type":"uint256","indexed":false,"internalType":"uint256"}],"anonymous":false},{"type":"event","name":"Initialized","inputs":[{"name":"version","type":"uint64","indexed":false,"internalType":"uint64"}],"anonymous":false},{"type":"event","name":"OwnershipTransferred","inputs":[{"name":"previousOwner","type":"address","indexed":true,"internalType":"address"},{"name":"newOwner","type":"address","indexed":true,"internalType":"address"}],"anonymous":false},{"type":"event","name":"UpdatedThirdPartyTransfersForbidden","inputs":[{"name":"chainbase","type":"address","indexed":false,"internalType":"contract ICpChainBase"},{"name":"value","type":"bool","indexed":false,"internalType":"bool"}],"anonymous":false},{"type":"error","name":"ECDSAInvalidSignature","inputs":[]},{"type":"error","name":"ECDSAInvalidSignatureLength","inputs":[{"name":"length","type":"uint256","internalType":"uint256"}]},{"type":"error","name":"ECDSAInvalidSignatureS","inputs":[{"name":"s","type":"bytes32","internalType":"bytes32"}]},{"type":"error","name":"InvalidInitialization","inputs":[]},{"type":"error","name":"NotInitializing","inputs":[]},{"type":"error","name":"OwnableInvalidOwner","inputs":[{"name":"owner","type":"address","internalType":"address"}]},{"type":"error","name":"OwnableUnauthorizedAccount","inputs":[{"name":"account","type":"address","internalType":"address"}]},{"type":"error","name":"ReentrancyGuardReentrantCall","inputs":[]}],"bytecode":{"object":"0x60e0346101515761141a906001600160401b0390601f38849003908101601f19168201908382118383101761015557808391604096879485528339810103126101515780516001600160a01b03918282168203610151576020015191821682036101515760805260a0527ff0c57e16840df040f15088dc2f81fe391c3923bec73e23a9662efc9c229c6a009081549060ff82851c166101405780808316036100fc575b83516112b0908161016a82396080518181816101820152818161033c015281816104a401528181610c030152610f36015260a0518181816104cd015281816106ac01528181610d750152610ef8015260c05181610ce10152f35b6001600160401b0319909116811790915581519081527fc7f505b2f371ae2175ee4913f4499e1f2633a7b5936321eed1cdaeb6115181d290602090a15f80806100a2565b835163f92ee8a960e01b8152600490fd5b5f80fd5b634e487b7160e01b5f52604160045260245ffdfe6040608081526004908136101561001f575b5050361561001d575f80fd5b005b5f915f3560e01c9081630e81073c14610be257816320606b7014610ba85781633893fb28146107285781633a5f6072146106db57816347c0715a1461069857816348825e941461065e5781636aab395514610555578163715018a6146105f75781637ecebe00146105c05781638da5cb5b1461058c57816394f649dd146105555781639780b9641461047b578163beffbb891461030e578163c3c6b3a9146102e2578163c4d66de8146101b1578163df5cf7231461016d578163f2fde38b14610113575063f698da2503610011573461010f578160031936011261010f57602090610108610cde565b9051908152f35b5080fd5b9050346101695760203660031901126101695761012e610c3a565b91610137610fe5565b6001600160a01b0383161561015357836101508461101d565b80f35b51631e4fbdf760e01b8152908101839052602490fd5b8280fd5b50503461010f578160031936011261010f57517f00000000000000000000000000000000000000000000000000000000000000006001600160a01b03168152602090f35b905034610169576020366003190112610169576101cc610c3a565b907ff0c57e16840df040f15088dc2f81fe391c3923bec73e23a9662efc9c229c6a0091825460ff81861c16159267ffffffffffffffff8216801590816102da575b60011490816102d0575b1590816102c7575b506102b9575067ffffffffffffffff198116600117845561025191908361029a575b5061024a611071565b865561101d565b610259578280f35b805468ff00000000000000001916905551600181527fc7f505b2f371ae2175ee4913f4499e1f2633a7b5936321eed1cdaeb6115181d290602090a15f808280f35b68ffffffffffffffffff1916680100000000000000011784555f610241565b855163f92ee8a960e01b8152fd5b9050155f61021f565b303b159150610217565b85915061020d565b90503461016957602036600319011261016957816020938260ff93358252855220541690519015158152f35b8391503461010f578260031936011261010f57610329610c3a565b602435906001600160a01b0390610363337f0000000000000000000000000000000000000000000000000000000000000000841614610c9a565b821561040657168084526003602052848420549283831161039d5750938394845260036020528320918181038355146103995750f35b5580f35b608490602087519162461bcd60e51b8352820152603960248201527f4370436861696e4465706f7369744d616e616765722e5f72656d6f766553686160448201527f7265733a207368617265416d6f756e7420746f6f2068696768000000000000006064820152fd5b855162461bcd60e51b8152602081860152604360248201527f4370436861696e4465706f7369744d616e616765722e72656d6f76655368617260448201527f65733a207368617265416d6f756e742073686f756c64206e6f74206265207a65606482015262726f2160e81b608482015260a490fd5b91905034610551578060031936011261055157610496610c3a565b6001600160a01b036104cb337f0000000000000000000000000000000000000000000000000000000000000000831614610c9a565b7f00000000000000000000000000000000000000000000000000000000000000001692833b1561055157825163f3fef3a360e01b81526001600160a01b03909216908201908152602435602082015290925f9184919082908490829060400103925af1908115610548575061053e575080f35b61001d9150610c50565b513d5f823e3d90fd5b5f80fd5b8234610551576020366003190112610551576020906001600160a01b0361057a610c3a565b165f5260038252805f20549051908152f35b8234610551575f366003190112610551575f8051602061125b8339815191525490516001600160a01b039091168152602090f35b8234610551576020366003190112610551576020906001600160a01b036105e5610c3a565b165f5260028252805f20549051908152f35b34610551575f3660031901126105515761060f610fe5565b5f8051602061125b83398151915280546001600160a01b031981169091555f906001600160a01b03167f8be0079c531659141344cd1fd0a4f28419497f9722a3daafe3b4186f6b6457e08280a3005b8234610551575f36600319011261055157602090517f744dc556907155a3a54465dc628bdbfe478bd04f1a625f994fed10332ec9e9f68152f35b8234610551575f36600319011261055157517f00000000000000000000000000000000000000000000000000000000000000006001600160a01b03168152602090f35b826020366003190112610551576106fd6020926106f6610e8c565b3533610ece565b9060017f9b779b17422d0df92223018b32b4d1fa46e071723d6817e2486d003becc55f005551908152f35b826080366003190112610551576001600160a01b0391803590602480359190858316908184036105515767ffffffffffffffff966064928335916044358a8411610551573660238501121561055157838701359a808c11610b9657908a929160209c8d966107a2601f1996519887601f8501160189610c78565b8188523689838301011161055157818f91928a5f9401838b0137880101526107c8610e8c565b428210610b1b57845f5260028d528b8d815f205493878351928301937f744dc556907155a3a54465dc628bdbfe478bd04f1a625f994fed10332ec9e9f685528301528d606083015284608083015260a082015260a0815260c0810181811084821117610b09578e525190205f86815260028f528d902060019093019092558c959493929190610855610cde565b918d519788019261190160f01b84526022890152604288015260428752608087019187831082841117610af757828e5287519020968e9594939291908c3b156109f557505050509290868b51948593630b135d3f60e11b978886528b8601528d89860152805190816044870152865f5b8381106109db5750505f86830185015250601f01168301839003019082905afa9081156109d1575f91610993575b506001600160e01b0319160361091057505050906106fd91610ece565b855162461bcd60e51b81529283018790526053908301527f454950313237315369676e61747572655574696c732e636865636b5369676e6160448301527f747572655f454950313237313a2045524331323731207369676e61747572652090820152721d995c9a599a58d85d1a5bdb8819985a5b1959606a1b608482015260a490fd5b90508881813d83116109ca575b6109aa8183610c78565b8101031261055157516001600160e01b03198116810361055157896108f3565b503d6109a0565b88513d5f823e3d90fd5b8083018201518a82018e01528997508c95508891016108c5565b909296955060e091935060a08198959801947f19457468657265756d205369676e6564204d6573736167653a0a333200000000865260bc820152603c8452019082821090821117610ae5578b52519020610a5b91610a529161111b565b90929192611155565b1603610a6e57505050906106fd91610ece565b855162461bcd60e51b81529283018790526047908301527f454950313237315369676e61747572655574696c732e636865636b5369676e6160448301527f747572655f454950313237313a207369676e6174757265206e6f742066726f6d90820152661039b4b3b732b960c91b608482015260a490fd5b8660418a634e487b7160e01b5f52525ffd5b8860418c634e487b7160e01b5f52525ffd5b8960418d634e487b7160e01b5f52525ffd5b5050895162461bcd60e51b81528088018c90526048818701527f4370436861696e4465706f7369744d616e616765722e6465706f736974496e7460448201527f6f4370436861696e576974685369676e61747572653a207369676e6174757265818801526708195e1c1a5c995960c21b608482015260a49150fd5b85604189634e487b7160e01b5f52525ffd5b8234610551575f36600319011261055157602090517f8cad95687ba82c2ce50e74f7b754645e5117c3a5bec8151c0726d5857980a8668152f35b8234610551573660031901126105515761001d610bfd610c3a565b610c31337f00000000000000000000000000000000000000000000000000000000000000006001600160a01b031614610c9a565b60243590610d15565b600435906001600160a01b038216820361055157565b67ffffffffffffffff8111610c6457604052565b634e487b7160e01b5f52604160045260245ffd5b90601f8019910116810190811067ffffffffffffffff821117610c6457604052565b15610ca157565b60405162461bcd60e51b815260206004820152601560248201527437b7363ca232b632b3b0ba34b7b726b0b730b3b2b960591b6044820152606490fd5b467f000000000000000000000000000000000000000000000000000000000000000003610d0a575f5490565b610d12611071565b90565b6001600160a01b03919082168015610e21578115610db657805f52600360205260405f2091825493818501809511610da2577f5548c837ab068cf56a2c2479df0882a4922fd203edb7517321831d95078c5f6294606094556040519283527f00000000000000000000000000000000000000000000000000000000000000001660208301526040820152a1565b634e487b7160e01b5f52601160045260245ffd5b60405162461bcd60e51b815260206004820152603c60248201527f4370436861696e4465706f7369744d616e616765722e5f61646453686172657360448201527f3a207368617265732073686f756c64206e6f74206265207a65726f21000000006064820152608490fd5b60405162461bcd60e51b815260206004820152603f60248201527f4370436861696e4465706f7369744d616e616765722e5f61646453686172657360448201527f3a207374616b65722063616e6e6f74206265207a65726f2061646472657373006064820152608490fd5b7f9b779b17422d0df92223018b32b4d1fa46e071723d6817e2486d003becc55f006002815414610ebc5760029055565b604051633ee5aeb560e01b8152600490fd5b60405163b6b55f2560e01b815260048101839052916001600160a01b0390602090849060249082907f000000000000000000000000000000000000000000000000000000000000000086165af1928315610fa6575f93610fb1575b50610f348383610d15565b7f000000000000000000000000000000000000000000000000000000000000000016803b15610551576040516313728ed760e11b81526001600160a01b03929092166004830152602482018390525f908290604490829084905af18015610fa657610f9d575090565b610d1290610c50565b6040513d5f823e3d90fd5b9092506020813d602011610fdd575b81610fcd60209383610c78565b810103126105515751915f610f29565b3d9150610fc0565b5f8051602061125b833981519152546001600160a01b0316330361100557565b60405163118cdaa760e01b8152336004820152602490fd5b5f8051602061125b83398151915280546001600160a01b039283166001600160a01b0319821681179092559091167f8be0079c531659141344cd1fd0a4f28419497f9722a3daafe3b4186f6b6457e05f80a3565b6040805167ffffffffffffffff9080830182811182821017610c64576621b821b430b4b760c91b91602091855260078152015281519060208201927f8cad95687ba82c2ce50e74f7b754645e5117c3a5bec8151c0726d5857980a86684527fed3b5dcc89b24450a6fe70b6aeb4f0f5265a8cbd91a2d9fbb80cc5bb797225af818401524660608401523060808401526080835260a083019183831090831117610c64575251902090565b815191906041830361114b576111449250602082015190606060408401519301515f1a906111d8565b9192909190565b50505f9160029190565b60048110156111c45780611167575050565b600181036111815760405163f645eedf60e01b8152600490fd5b600281036111a25760405163fce698f760e01b815260048101839052602490fd5b6003146111ac5750565b602490604051906335e2f38360e21b82526004820152fd5b634e487b7160e01b5f52602160045260245ffd5b91907f7fffffffffffffffffffffffffffffff5d576e7357a4501ddfe92f46681b20a0841161124f579160209360809260ff5f9560405194855216868401526040830152606082015282805260015afa15610fa6575f516001600160a01b0381161561124557905f905f90565b505f906001905f90565b5050505f916003919056fe9016d09d72d40fdae2fd8ceac6b6234c7706214fd39c1cd1e609a0528c199300a264697066735822122081e8cb449a1fab2af797afb8b233d311f278361c580bfbf2e14791c36a116c6a64736f6c63430008180033","linkReferences":{}},"methodIdentifiers":{"DEPOSIT_TYPEHASH()":"48825e94","DOMAIN_TYPEHASH()":"20606b70","addShares(address,uint256)":"0e81073c","cpChainBase()":"47c0715a","delegation()":"df5cf723","depositIntoCpChain(uint256)":"3a5f6072","depositIntoCpChainWithSignature(uint256,address,uint256,bytes)":"3893fb28","domainSeparator()":"f698da25","getDeposits(address)":"94f649dd","initialize(address)":"c4d66de8","nonces(address)":"7ecebe00","owner()":"8da5cb5b","removeShares(address,uint256)":"beffbb89","renounceOwnership()":"715018a6","stakerCpChainBaseShares(address)":"6aab3955","transferOwnership(address)":"f2fde38b","withdrawSharesAsCp(address,uint256)":"9780b964","withdrawalRootPending(bytes32)":"c3c6b3a9"},"id":54}