{"abi":[{"type":"function","name":"pause","inputs":[{"name":"newPausedStatus","type":"uint256","internalType":"uint256"}],"outputs":[],"stateMutability":"nonpayable"},{"type":"function","name":"pauseAll","inputs":[],"outputs":[],"stateMutability":"nonpayable"},{"type":"function","name":"paused","inputs":[{"name":"index","type":"uint8","internalType":"uint8"}],"outputs":[{"name":"","type":"bool","internalType":"bool"}],"stateMutability":"view"},{"type":"function","name":"paused","inputs":[],"outputs":[{"name":"","type":"uint256","internalType":"uint256"}],"stateMutability":"view"},{"type":"function","name":"pauserRegistry","inputs":[],"outputs":[{"name":"","type":"address","internalType":"contract IPauserRegistry"}],"stateMutability":"view"},{"type":"function","name":"setPauserRegistry","inputs":[{"name":"newPauserRegistry","type":"address","internalType":"contract IPauserRegistry"}],"outputs":[],"stateMutability":"nonpayable"},{"type":"function","name":"unpause","inputs":[{"name":"newPausedStatus","type":"uint256","internalType":"uint256"}],"outputs":[],"stateMutability":"nonpayable"},{"type":"event","name":"Paused","inputs":[{"name":"account","type":"address","indexed":true,"internalType":"address"},{"name":"newPausedStatus","type":"uint256","indexed":false,"internalType":"uint256"}],"anonymous":false},{"type":"event","name":"PauserRegistrySet","inputs":[{"name":"pauserRegistry","type":"address","indexed":false,"internalType":"contract IPauserRegistry"},{"name":"newPauserRegistry","type":"address","indexed":false,"internalType":"contract IPauserRegistry"}],"anonymous":false},{"type":"event","name":"Unpaused","inputs":[{"name":"account","type":"address","indexed":true,"internalType":"address"},{"name":"newPausedStatus","type":"uint256","indexed":false,"internalType":"uint256"}],"anonymous":false}],"bytecode":{"object":"0x6080806040523461001657610681908161001b8239f35b5f80fdfe608060409080825260049081361015610016575f80fd5b5f3560e01c90816310d67a2f146103ee57508063136439dd146102d6578063595c6a67146102175780635ac86ab7146101e55780635c975abb146101c7578063886f1195146101a05763fabc1cbc1461006d575f80fd5b3461019c5760208060031936011261019c575f54835163755b36bd60e11b8152833593916001600160a01b0390849083908590829085165afa8015610192576100c0925f91610165575b50163314610577565b6001541983198116036100fe575081927f3582d1828e26bf56bd801502bc021ac0bc8afb57c826e4986b45593c8fad389c92600155519283523392a2005b60849184519162461bcd60e51b8352820152603860248201527f5061757361626c652e756e70617573653a20696e76616c696420617474656d7060448201527f7420746f2070617573652066756e6374696f6e616c69747900000000000000006064820152fd5b6101859150853d871161018b575b61017d8183610522565b810190610558565b5f6100b7565b503d610173565b86513d5f823e3d90fd5b5f80fd5b823461019c575f36600319011261019c575f5490516001600160a01b039091168152602090f35b823461019c575f36600319011261019c576020906001549051908152f35b503461019c57602036600319011261019c57359060ff821680920361019c5760016020921b8060015416149051908152f35b503461019c575f36600319011261019c575f54825163237dfb4760e11b81523392810192909252602090829060249082906001600160a01b03165afa80156102cc5761026a915f9161029d575b506105ee565b5f199081600155519081527fab40a374bc51de372200a8bc981af8c9ecdc08dfdaef0bb6e09f88f3c616ef3d60203392a2005b6102bf915060203d6020116102c5575b6102b78183610522565b8101906105d6565b5f610264565b503d6102ad565b82513d5f823e3d90fd5b503461019c5760208060031936011261019c575f54835163237dfb4760e11b81523381850152833593918390829060249082906001600160a01b03165afa80156103e45761032a915f916103cd57506105ee565b60015483811603610366575081927fab40a374bc51de372200a8bc981af8c9ecdc08dfdaef0bb6e09f88f3c616ef3d92600155519283523392a2005b60849184519162461bcd60e51b8352820152603860248201527f5061757361626c652e70617573653a20696e76616c696420617474656d70742060448201527f746f20756e70617573652066756e6374696f6e616c69747900000000000000006064820152fd5b6102bf9150843d86116102c5576102b78183610522565b85513d5f823e3d90fd5b9190503461019c576020928360031936011261019c576001600160a01b0382358181169491939085900361019c575f5463755b36bd60e11b8352938085169287818481875afa9081156103e4579061045092915f9161050f5750163314610577565b84156104945750837f6e9fcd539896fca60e8b0f01dd580233e48a6b0f7df013b89ba7f565869acdb69394958351928352820152a16001600160a01b031916175f55005b825162461bcd60e51b8152908101869052604960248201527f5061757361626c652e5f73657450617573657252656769737472793a206e657760448201527f50617573657252656769737472792063616e6e6f7420626520746865207a65726064820152686f206164647265737360b81b608482015260a490fd5b6101859150893d8b1161018b5761017d81835b90601f8019910116810190811067ffffffffffffffff82111761054457604052565b634e487b7160e01b5f52604160045260245ffd5b9081602091031261019c57516001600160a01b038116810361019c5790565b1561057e57565b60405162461bcd60e51b815260206004820152602a60248201527f6d73672e73656e646572206973206e6f74207065726d697373696f6e6564206160448201526939903ab73830bab9b2b960b11b6064820152608490fd5b9081602091031261019c5751801515810361019c5790565b156105f557565b60405162461bcd60e51b815260206004820152602860248201527f6d73672e73656e646572206973206e6f74207065726d697373696f6e6564206160448201526739903830bab9b2b960c11b6064820152608490fdfea264697066735822122071cff02f8368939721ae27b37a9bdb3911b7f91f769450bc9ff0c26a0ce9ddaf64736f6c63430008180033","linkReferences":{}},"methodIdentifiers":{"pause(uint256)":"136439dd","pauseAll()":"595c6a67","paused()":"5c975abb","paused(uint8)":"5ac86ab7","pauserRegistry()":"886f1195","setPauserRegistry(address)":"10d67a2f","unpause(uint256)":"fabc1cbc"},"id":33}